{
    "_format": "hh-sol-artifact-1",
    "contractName": "Shield",
    "sourceName": "contracts/Shield.sol",
    "abi": [
        {
            "inputs": [],
            "stateMutability": "nonpayable",
            "type": "constructor"
        },
        {
            "inputs": [
                {
                    "internalType": "string",
                    "name": "reason",
                    "type": "string"
                }
            ],
            "name": "InvalidCredentials",
            "type": "error"
        },
        {
            "inputs": [
                {
                    "internalType": "string",
                    "name": "reason",
                    "type": "string"
                }
            ],
            "name": "ShieldError",
            "type": "error"
        },
        {
            "anonymous": false,
            "inputs": [
                {
                    "indexed": false,
                    "internalType": "uint8",
                    "name": "version",
                    "type": "uint8"
                }
            ],
            "name": "Initialized",
            "type": "event"
        },
        {
            "anonymous": false,
            "inputs": [],
            "name": "Paused",
            "type": "event"
        },
        {
            "anonymous": false,
            "inputs": [
                {
                    "indexed": true,
                    "internalType": "bytes32",
                    "name": "label",
                    "type": "bytes32"
                },
                {
                    "indexed": false,
                    "internalType": "bytes8[]",
                    "name": "policy",
                    "type": "bytes8[]"
                }
            ],
            "name": "PolicyAdded",
            "type": "event"
        },
        {
            "anonymous": false,
            "inputs": [
                {
                    "indexed": true,
                    "internalType": "address",
                    "name": "to",
                    "type": "address"
                },
                {
                    "indexed": false,
                    "internalType": "bytes4",
                    "name": "sig",
                    "type": "bytes4"
                },
                {
                    "indexed": true,
                    "internalType": "bytes32",
                    "name": "label",
                    "type": "bytes32"
                }
            ],
            "name": "PolicyAssigned",
            "type": "event"
        },
        {
            "anonymous": false,
            "inputs": [
                {
                    "indexed": false,
                    "internalType": "bytes32[]",
                    "name": "roles",
                    "type": "bytes32[]"
                }
            ],
            "name": "RolesAdded",
            "type": "event"
        },
        {
            "anonymous": false,
            "inputs": [
                {
                    "indexed": false,
                    "internalType": "address",
                    "name": "shieldable",
                    "type": "address"
                },
                {
                    "indexed": false,
                    "internalType": "address",
                    "name": "shield",
                    "type": "address"
                }
            ],
            "name": "ShieldableDeployed",
            "type": "event"
        },
        {
            "anonymous": false,
            "inputs": [],
            "name": "Unpaused",
            "type": "event"
        },
        {
            "anonymous": false,
            "inputs": [
                {
                    "components": [
                        {
                            "internalType": "address",
                            "name": "addr",
                            "type": "address"
                        },
                        {
                            "internalType": "bytes8",
                            "name": "roles",
                            "type": "bytes8"
                        }
                    ],
                    "indexed": false,
                    "internalType": "struct User[]",
                    "name": "users",
                    "type": "tuple[]"
                }
            ],
            "name": "UsersSet",
            "type": "event"
        },
        {
            "stateMutability": "payable",
            "type": "fallback"
        },
        {
            "inputs": [
                {
                    "internalType": "bytes32",
                    "name": "label",
                    "type": "bytes32"
                },
                {
                    "internalType": "bytes8[]",
                    "name": "policy",
                    "type": "bytes8[]"
                },
                {
                    "components": [
                        {
                            "internalType": "uint256",
                            "name": "timestamp",
                            "type": "uint256"
                        },
                        {
                            "internalType": "uint256",
                            "name": "chainid",
                            "type": "uint256"
                        },
                        {
                            "internalType": "address",
                            "name": "to",
                            "type": "address"
                        },
                        {
                            "internalType": "bytes",
                            "name": "call",
                            "type": "bytes"
                        },
                        {
                            "internalType": "bytes[]",
                            "name": "approvals",
                            "type": "bytes[]"
                        }
                    ],
                    "internalType": "struct Credentials",
                    "name": "credentials",
                    "type": "tuple"
                }
            ],
            "name": "addPolicy",
            "outputs": [],
            "stateMutability": "nonpayable",
            "type": "function"
        },
        {
            "inputs": [
                {
                    "internalType": "bytes32[]",
                    "name": "_roles",
                    "type": "bytes32[]"
                },
                {
                    "components": [
                        {
                            "internalType": "uint256",
                            "name": "timestamp",
                            "type": "uint256"
                        },
                        {
                            "internalType": "uint256",
                            "name": "chainid",
                            "type": "uint256"
                        },
                        {
                            "internalType": "address",
                            "name": "to",
                            "type": "address"
                        },
                        {
                            "internalType": "bytes",
                            "name": "call",
                            "type": "bytes"
                        },
                        {
                            "internalType": "bytes[]",
                            "name": "approvals",
                            "type": "bytes[]"
                        }
                    ],
                    "internalType": "struct Credentials",
                    "name": "credentials",
                    "type": "tuple"
                }
            ],
            "name": "addRoles",
            "outputs": [],
            "stateMutability": "nonpayable",
            "type": "function"
        },
        {
            "inputs": [
                {
                    "internalType": "address",
                    "name": "to",
                    "type": "address"
                },
                {
                    "internalType": "bytes4",
                    "name": "sig",
                    "type": "bytes4"
                },
                {
                    "internalType": "bytes32",
                    "name": "label",
                    "type": "bytes32"
                },
                {
                    "components": [
                        {
                            "internalType": "uint256",
                            "name": "timestamp",
                            "type": "uint256"
                        },
                        {
                            "internalType": "uint256",
                            "name": "chainid",
                            "type": "uint256"
                        },
                        {
                            "internalType": "address",
                            "name": "to",
                            "type": "address"
                        },
                        {
                            "internalType": "bytes",
                            "name": "call",
                            "type": "bytes"
                        },
                        {
                            "internalType": "bytes[]",
                            "name": "approvals",
                            "type": "bytes[]"
                        }
                    ],
                    "internalType": "struct Credentials",
                    "name": "credentials",
                    "type": "tuple"
                }
            ],
            "name": "assignPolicy",
            "outputs": [],
            "stateMutability": "nonpayable",
            "type": "function"
        },
        {
            "inputs": [
                {
                    "components": [
                        {
                            "internalType": "uint256",
                            "name": "timestamp",
                            "type": "uint256"
                        },
                        {
                            "internalType": "uint256",
                            "name": "chainid",
                            "type": "uint256"
                        },
                        {
                            "internalType": "address",
                            "name": "to",
                            "type": "address"
                        },
                        {
                            "internalType": "bytes",
                            "name": "call",
                            "type": "bytes"
                        },
                        {
                            "internalType": "bytes[]",
                            "name": "approvals",
                            "type": "bytes[]"
                        }
                    ],
                    "internalType": "struct Credentials",
                    "name": "credentials",
                    "type": "tuple"
                }
            ],
            "name": "cancelCredentials",
            "outputs": [],
            "stateMutability": "nonpayable",
            "type": "function"
        },
        {
            "inputs": [
                {
                    "internalType": "bytes32",
                    "name": "",
                    "type": "bytes32"
                }
            ],
            "name": "canceled",
            "outputs": [
                {
                    "internalType": "bool",
                    "name": "",
                    "type": "bool"
                }
            ],
            "stateMutability": "view",
            "type": "function"
        },
        {
            "inputs": [
                {
                    "internalType": "bytes32",
                    "name": "",
                    "type": "bytes32"
                }
            ],
            "name": "executed",
            "outputs": [
                {
                    "internalType": "bool",
                    "name": "",
                    "type": "bool"
                }
            ],
            "stateMutability": "view",
            "type": "function"
        },
        {
            "inputs": [
                {
                    "internalType": "address",
                    "name": "to",
                    "type": "address"
                },
                {
                    "internalType": "bytes4",
                    "name": "sig",
                    "type": "bytes4"
                }
            ],
            "name": "getAssignedPolicy",
            "outputs": [
                {
                    "internalType": "bytes8[]",
                    "name": "",
                    "type": "bytes8[]"
                }
            ],
            "stateMutability": "view",
            "type": "function"
        },
        {
            "inputs": [
                {
                    "internalType": "bytes32",
                    "name": "label",
                    "type": "bytes32"
                }
            ],
            "name": "getPolicy",
            "outputs": [
                {
                    "internalType": "bytes8[]",
                    "name": "",
                    "type": "bytes8[]"
                }
            ],
            "stateMutability": "view",
            "type": "function"
        },
        {
            "inputs": [],
            "name": "getRoles",
            "outputs": [
                {
                    "internalType": "bytes32[]",
                    "name": "",
                    "type": "bytes32[]"
                }
            ],
            "stateMutability": "view",
            "type": "function"
        },
        {
            "inputs": [
                {
                    "internalType": "address",
                    "name": "user",
                    "type": "address"
                }
            ],
            "name": "getUser",
            "outputs": [
                {
                    "internalType": "bytes8",
                    "name": "",
                    "type": "bytes8"
                }
            ],
            "stateMutability": "view",
            "type": "function"
        },
        {
            "inputs": [
                {
                    "internalType": "address",
                    "name": "user",
                    "type": "address"
                },
                {
                    "internalType": "bytes8",
                    "name": "_roles",
                    "type": "bytes8"
                }
            ],
            "name": "hasAnyRoles",
            "outputs": [
                {
                    "internalType": "bool",
                    "name": "",
                    "type": "bool"
                }
            ],
            "stateMutability": "view",
            "type": "function"
        },
        {
            "inputs": [
                {
                    "internalType": "bytes32[]",
                    "name": "_roles",
                    "type": "bytes32[]"
                },
                {
                    "components": [
                        {
                            "internalType": "address",
                            "name": "addr",
                            "type": "address"
                        },
                        {
                            "internalType": "bytes8",
                            "name": "roles",
                            "type": "bytes8"
                        }
                    ],
                    "internalType": "struct User[]",
                    "name": "_users",
                    "type": "tuple[]"
                },
                {
                    "internalType": "bytes8[]",
                    "name": "policy",
                    "type": "bytes8[]"
                }
            ],
            "name": "initialize",
            "outputs": [],
            "stateMutability": "nonpayable",
            "type": "function"
        },
        {
            "inputs": [
                {
                    "components": [
                        {
                            "internalType": "uint256",
                            "name": "timestamp",
                            "type": "uint256"
                        },
                        {
                            "internalType": "uint256",
                            "name": "chainid",
                            "type": "uint256"
                        },
                        {
                            "internalType": "address",
                            "name": "to",
                            "type": "address"
                        },
                        {
                            "internalType": "bytes",
                            "name": "call",
                            "type": "bytes"
                        },
                        {
                            "internalType": "bytes[]",
                            "name": "approvals",
                            "type": "bytes[]"
                        }
                    ],
                    "internalType": "struct Credentials",
                    "name": "credentials",
                    "type": "tuple"
                }
            ],
            "name": "pause",
            "outputs": [],
            "stateMutability": "nonpayable",
            "type": "function"
        },
        {
            "inputs": [],
            "name": "paused",
            "outputs": [
                {
                    "internalType": "bool",
                    "name": "",
                    "type": "bool"
                }
            ],
            "stateMutability": "view",
            "type": "function"
        },
        {
            "inputs": [
                {
                    "components": [
                        {
                            "internalType": "address",
                            "name": "addr",
                            "type": "address"
                        },
                        {
                            "internalType": "bytes8",
                            "name": "roles",
                            "type": "bytes8"
                        }
                    ],
                    "internalType": "struct User[]",
                    "name": "_users",
                    "type": "tuple[]"
                },
                {
                    "components": [
                        {
                            "internalType": "uint256",
                            "name": "timestamp",
                            "type": "uint256"
                        },
                        {
                            "internalType": "uint256",
                            "name": "chainid",
                            "type": "uint256"
                        },
                        {
                            "internalType": "address",
                            "name": "to",
                            "type": "address"
                        },
                        {
                            "internalType": "bytes",
                            "name": "call",
                            "type": "bytes"
                        },
                        {
                            "internalType": "bytes[]",
                            "name": "approvals",
                            "type": "bytes[]"
                        }
                    ],
                    "internalType": "struct Credentials",
                    "name": "credentials",
                    "type": "tuple"
                }
            ],
            "name": "setUsers",
            "outputs": [],
            "stateMutability": "nonpayable",
            "type": "function"
        },
        {
            "inputs": [
                {
                    "internalType": "address payable",
                    "name": "_to",
                    "type": "address"
                },
                {
                    "internalType": "uint256",
                    "name": "amount",
                    "type": "uint256"
                },
                {
                    "components": [
                        {
                            "internalType": "uint256",
                            "name": "timestamp",
                            "type": "uint256"
                        },
                        {
                            "internalType": "uint256",
                            "name": "chainid",
                            "type": "uint256"
                        },
                        {
                            "internalType": "address",
                            "name": "to",
                            "type": "address"
                        },
                        {
                            "internalType": "bytes",
                            "name": "call",
                            "type": "bytes"
                        },
                        {
                            "internalType": "bytes[]",
                            "name": "approvals",
                            "type": "bytes[]"
                        }
                    ],
                    "internalType": "struct Credentials",
                    "name": "credentials",
                    "type": "tuple"
                }
            ],
            "name": "transfer",
            "outputs": [],
            "stateMutability": "payable",
            "type": "function"
        },
        {
            "inputs": [
                {
                    "components": [
                        {
                            "internalType": "uint256",
                            "name": "timestamp",
                            "type": "uint256"
                        },
                        {
                            "internalType": "uint256",
                            "name": "chainid",
                            "type": "uint256"
                        },
                        {
                            "internalType": "address",
                            "name": "to",
                            "type": "address"
                        },
                        {
                            "internalType": "bytes",
                            "name": "call",
                            "type": "bytes"
                        },
                        {
                            "internalType": "bytes[]",
                            "name": "approvals",
                            "type": "bytes[]"
                        }
                    ],
                    "internalType": "struct Credentials",
                    "name": "credentials",
                    "type": "tuple"
                }
            ],
            "name": "unpause",
            "outputs": [],
            "stateMutability": "nonpayable",
            "type": "function"
        },
        {
            "inputs": [
                {
                    "components": [
                        {
                            "internalType": "uint256",
                            "name": "timestamp",
                            "type": "uint256"
                        },
                        {
                            "internalType": "uint256",
                            "name": "chainid",
                            "type": "uint256"
                        },
                        {
                            "internalType": "address",
                            "name": "to",
                            "type": "address"
                        },
                        {
                            "internalType": "bytes",
                            "name": "call",
                            "type": "bytes"
                        },
                        {
                            "internalType": "bytes[]",
                            "name": "approvals",
                            "type": "bytes[]"
                        }
                    ],
                    "internalType": "struct Credentials",
                    "name": "credentials",
                    "type": "tuple"
                },
                {
                    "internalType": "address",
                    "name": "sender",
                    "type": "address"
                },
                {
                    "internalType": "address",
                    "name": "to",
                    "type": "address"
                },
                {
                    "internalType": "bytes4",
                    "name": "f",
                    "type": "bytes4"
                },
                {
                    "internalType": "bytes",
                    "name": "call",
                    "type": "bytes"
                },
                {
                    "internalType": "bool",
                    "name": "full",
                    "type": "bool"
                }
            ],
            "name": "validateCredentials",
            "outputs": [
                {
                    "internalType": "address[]",
                    "name": "",
                    "type": "address[]"
                }
            ],
            "stateMutability": "view",
            "type": "function"
        },
        {
            "stateMutability": "payable",
            "type": "receive"
        }
    ],
    "bytecode": "0x60806040523480156200001157600080fd5b50600080546001600160a01b031916309081179091556040517f7325cede0f4927e0139385df8b1c5e5fbb3e2de5851b8c784ea8e75e2576d1b7906200005b90839081906200012b565b60405180910390a15060016004556200007362000079565b620001b7565b600354610100900460ff1615620000ad5760405162461bcd60e51b8152600401620000a49062000151565b60405180910390fd5b60035460ff908116101562000105576003805460ff191660ff9081179091556040517f7f26b83ff96e1f2b6a682f133852f6798a09c465da95921460cefb384740249891620000fc91620001a7565b60405180910390a15b565b60006001600160a01b0382165b92915050565b620001258162000107565b82525050565b604081016200013b82856200011a565b6200014a60208301846200011a565b9392505050565b602080825281016200011481602781527f496e697469616c697a61626c653a20636f6e747261637420697320696e697469602082015266616c697a696e6760c81b604082015260600190565b60ff811662000125565b602081016200011482846200019d565b613a6980620001c76000396000f3fe6080604052600436106101015760003560e01c806373c629051161008f578063a3f685f911610061578063a3f685f9146102f2578063a9fcfb3314610312578063dd4f120e14610342578063e8fc5b2c14610362578063fd8354261461038257005b806373c629051461027f5780638441e0af146102925780638b2c0edd146102b257806391525691146102d257005b80635784091e116100d35780635784091e146101b05780635c975abb146101d05780636bc49871146101ea5780636f77926b14610217578063710613981461025d57005b806311d5776e1461010a5780631c4392661461012a57806324877e58146101705780633ff8ca591461019057005b3661010857005b005b34801561011657600080fd5b50610108610125366004612554565b6103af565b34801561013657600080fd5b5061015a6101453660046125e0565b60026020526000908152604090205460ff1681565b6040516101679190612613565b60405180910390f35b34801561017c57600080fd5b5061010861018b366004612661565b610683565b34801561019c57600080fd5b5061015a6101ab3660046126fa565b61089d565b3480156101bc57600080fd5b506101086101cb366004612737565b6108da565b3480156101dc57600080fd5b5060055461015a9060ff1681565b3480156101f657600080fd5b5061020a610205366004612771565b610aca565b6040516101679190612811565b34801561022357600080fd5b50610250610232366004612829565b6001600160a01b031660009081526007602052604090205460c01b90565b604051610167919061284a565b34801561026957600080fd5b50610272610b82565b60405161016791906128a8565b61010861028d3660046128b9565b610bda565b34801561029e57600080fd5b506101086102ad366004612737565b610e64565b3480156102be57600080fd5b506101086102cd366004612a5e565b6110a6565b3480156102de57600080fd5b506101086102ed366004612ac4565b6112bc565b3480156102fe57600080fd5b5061020a61030d3660046125e0565b611490565b34801561031e57600080fd5b5061015a61032d3660046125e0565b60016020526000908152604090205460ff1681565b34801561034e57600080fd5b5061010861035d366004612b7f565b61151f565b34801561036e57600080fd5b5061010861037d366004612737565b6117f4565b34801561038e57600080fd5b506103a261039d366004612c86565b6119d0565b6040516101679190612d9c565b60005460408051635c975abb60e01b8152905183926001600160a01b031691635c975abb9160048083019260209291908290030181865afa1580156103f8573d6000803e3d6000fd5b505050506040513d601f19601f8201168201806040525081019061041c9190612db8565b15610473576000546001600160a01b03163014801561044d5750633a3f16cb60e21b6001600160e01b031960003516145b61047357604051632022058360e01b815260040161046a90612e07565b60405180910390fd5b600081604051602001610486919061301b565b60408051601f19818403018152919052516104a19036613042565b6104ac906020613055565b600080549192506001600160a01b039091169063fd835426908490339030906001600160e01b0319813516906104e59088903681613068565b60016040518863ffffffff1660e01b815260040161050997969594939291906130a8565b600060405180830381865afa158015610526573d6000803e3d6000fd5b505050506040513d6000823e601f3d908101601f1916820160405261054e9190810190613190565b50600654604090610560908690613055565b111561057f576040516330f4936760e21b815260040161046a90613213565b60005b848110156105d257600686868381811061059e5761059e613223565b83546001810185556000948552602094859020919094029290920135919092015550806105ca81613239565b915050610582565b507fdc3627b8a50594a2c055615b1dd1ef69f5dc80de35b405d1550f8bc7276e71ee8585604051610604929190613295565b60405180910390a1600180600061061e60808601866132a7565b600081811061062f5761062f613223565b905060200281019061064191906132fb565b60405161064f92919061335e565b6040518091039020815260200190815260200160002060006101000a81548160ff0219169083151502179055505050505050565b60005460408051635c975abb60e01b8152905183926001600160a01b031691635c975abb9160048083019260209291908290030181865afa1580156106cc573d6000803e3d6000fd5b505050506040513d601f19601f820116820180604052508101906106f09190612db8565b1561073e576000546001600160a01b0316301480156107215750633a3f16cb60e21b6001600160e01b031960003516145b61073e57604051632022058360e01b815260040161046a90612e07565b600081604051602001610751919061301b565b60408051601f198184030181529190525161076c9036613042565b610777906020613055565b600080549192506001600160a01b039091169063fd835426908490339030906001600160e01b0319813516906107b09088903681613068565b60016040518863ffffffff1660e01b81526004016107d497969594939291906130a8565b600060405180830381865afa1580156107f1573d6000803e3d6000fd5b505050506040513d6000823e601f3d908101601f191682016040526108199190810190613190565b50610825868686611f1f565b600180600061083760808601866132a7565b600081811061084857610848613223565b905060200281019061085a91906132fb565b60405161086892919061335e565b6040518091039020815260200190815260200160002060006101000a81548160ff021916908315150217905550505050505050565b600080826108c3856001600160a01b031660009081526007602052604090205460c01b90565b166001600160c01b03191615159150505b92915050565b6000813560208301356108f36060850160408601612829565b61090060608601866132fb565b60405160200161091495949392919061336b565b60408051601f198184030181529190528051602090910120905060006109a961094060808501856132a7565b600081811061095157610951613223565b905060200281019061096391906132fb565b8080601f0160208091040260200160405190810160405280939291908181526020018383808284376000920191909152506109a39250869150611f8f9050565b90611fbf565b905060006109fb84836109c26060830160408401612829565b6109cf60608901896132fb565b6109de91600491600091613068565b6109e7916133b1565b6109f460608a018a6132fb565b60006119d0565b905060005b8151811015610ac357336001600160a01b0316828281518110610a2557610a25613223565b60200260200101516001600160a01b031603610ab157600160026000610a4e60808901896132a7565b6000818110610a5f57610a5f613223565b9050602002810190610a7191906132fb565b604051610a7f92919061335e565b6040518091039020815260200190815260200160002060006101000a81548160ff021916908315150217905550610ac3565b80610abb81613239565b915050610a00565b5050505050565b6001600160a01b03821660009081526009602090815260408083206001600160e01b0319851684528252808320548084526008835292819020805482518185028101850190935280835260609493830182828015610b7457602002820191906000526020600020906000905b82829054906101000a900460c01b6001600160c01b03191681526020019060080190602082600701049283019260010382029150808411610b365790505b505050505091505092915050565b60606006805480602002602001604051908101604052809291908181526020018280548015610bd057602002820191906000526020600020905b815481526020019060010190808311610bbc575b5050505050905090565b610be2611fe3565b60005460408051635c975abb60e01b8152905183926001600160a01b031691635c975abb9160048083019260209291908290030181865afa158015610c2b573d6000803e3d6000fd5b505050506040513d601f19601f82011682018060405250810190610c4f9190612db8565b15610c9d576000546001600160a01b031630148015610c805750633a3f16cb60e21b6001600160e01b031960003516145b610c9d57604051632022058360e01b815260040161046a90612e07565b600081604051602001610cb0919061301b565b60408051601f1981840301815291905251610ccb9036613042565b610cd6906020613055565b600080549192506001600160a01b039091169063fd835426908490339030906001600160e01b031981351690610d0f9088903681613068565b60016040518863ffffffff1660e01b8152600401610d3397969594939291906130a8565b600060405180830381865afa158015610d50573d6000803e3d6000fd5b505050506040513d6000823e601f3d908101601f19168201604052610d789190810190613190565b506000856001600160a01b031685604051610d92906133ec565b60006040518083038185875af1925050503d8060008114610dcf576040519150601f19603f3d011682016040523d82523d6000602084013e610dd4565b606091505b5050905080610de257600080fd5b506001806000610df560808601866132a7565b6000818110610e0657610e06613223565b9050602002810190610e1891906132fb565b604051610e2692919061335e565b6040518091039020815260200190815260200160002060006101000a81548160ff0219169083151502179055505050610e5f6001600455565b505050565b60005460408051635c975abb60e01b8152905183926001600160a01b031691635c975abb9160048083019260209291908290030181865afa158015610ead573d6000803e3d6000fd5b505050506040513d601f19601f82011682018060405250810190610ed19190612db8565b15610f1f576000546001600160a01b031630148015610f025750633a3f16cb60e21b6001600160e01b031960003516145b610f1f57604051632022058360e01b815260040161046a90612e07565b600081604051602001610f32919061301b565b60408051601f1981840301815291905251610f4d9036613042565b610f58906020613055565b600080549192506001600160a01b039091169063fd835426908490339030906001600160e01b031981351690610f919088903681613068565b60016040518863ffffffff1660e01b8152600401610fb597969594939291906130a8565b600060405180830381865afa158015610fd2573d6000803e3d6000fd5b505050506040513d6000823e601f3d908101601f19168201604052610ffa9190810190613190565b506005805460ff191660011790556040517f9e87fac88ff661f02d44f95383c817fece4bce600a3dab7a54406878b965e75290600090a1600180600061104360808601866132a7565b600081811061105457611054613223565b905060200281019061106691906132fb565b60405161107492919061335e565b6040518091039020815260200190815260200160002060006101000a81548160ff021916908315150217905550505050565b60005460408051635c975abb60e01b8152905183926001600160a01b031691635c975abb9160048083019260209291908290030181865afa1580156110ef573d6000803e3d6000fd5b505050506040513d601f19601f820116820180604052508101906111139190612db8565b15611161576000546001600160a01b0316301480156111445750633a3f16cb60e21b6001600160e01b031960003516145b61116157604051632022058360e01b815260040161046a90612e07565b600081604051602001611174919061301b565b60408051601f198184030181529190525161118f9036613042565b61119a906020613055565b600080549192506001600160a01b039091169063fd835426908490339030906001600160e01b0319813516906111d39088903681613068565b60016040518863ffffffff1660e01b81526004016111f797969594939291906130a8565b600060405180830381865afa158015611214573d6000803e3d6000fd5b505050506040513d6000823e601f3d908101601f1916820160405261123c9190810190613190565b506112468461200c565b600180600061125860808601866132a7565b600081811061126957611269613223565b905060200281019061127b91906132fb565b60405161128992919061335e565b6040518091039020815260200190815260200160002060006101000a81548160ff02191690831515021790555050505050565b60005460408051635c975abb60e01b8152905183926001600160a01b031691635c975abb9160048083019260209291908290030181865afa158015611305573d6000803e3d6000fd5b505050506040513d601f19601f820116820180604052508101906113299190612db8565b15611377576000546001600160a01b03163014801561135a5750633a3f16cb60e21b6001600160e01b031960003516145b61137757604051632022058360e01b815260040161046a90612e07565b60008160405160200161138a919061301b565b60408051601f19818403018152919052516113a59036613042565b6113b0906020613055565b600080549192506001600160a01b039091169063fd835426908490339030906001600160e01b0319813516906113e99088903681613068565b60016040518863ffffffff1660e01b815260040161140d97969594939291906130a8565b600060405180830381865afa15801561142a573d6000803e3d6000fd5b505050506040513d6000823e601f3d908101601f191682016040526114529190810190613190565b50610825868686808060200260200160405190810160405280939291908181526020018383602002808284376000920191909152506120db92505050565b60008181526008602090815260409182902080548351818402810184019094528084526060939283018282801561151357602002820191906000526020600020906000905b82829054906101000a900460c01b6001600160c01b031916815260200190600801906020826007010492830192600103820291508084116114d55790505b50505050509050919050565b600354610100900460ff161580801561153f5750600354600160ff909116105b806115595750303b158015611559575060035460ff166001145b6115755760405162461bcd60e51b815260040161046a9061343f565b6003805460ff191660011790558015611598576003805461ff0019166101001790555b600080546001600160a01b0319163017905560408611156115cc576040516330f4936760e21b815260040161046a90613213565b6115d8600688886123e6565b507fdc3627b8a50594a2c055615b1dd1ef69f5dc80de35b405d1550f8bc7276e71ee878760405161160a929190613295565b60405180910390a161166d8585808060200260200160405190810160405280939291908181526020016000905b82821015611663576116546040830286013681900381019061344f565b81526020019060010190611637565b505050505061200c565b6116b96b61646d696e2d706f6c69637960a01b8484808060200260200160405190810160405280939291908181526020018383602002808284376000920191909152506120db92505050565b6116da306308eabbb760e11b6b61646d696e2d706f6c69637960a01b611f1f565b6116fb30638b2c0edd60e01b6b61646d696e2d706f6c69637960a01b611f1f565b61171c30639152569160e01b6b61646d696e2d706f6c69637960a01b611f1f565b61173d30630490efcb60e31b6b61646d696e2d706f6c69637960a01b611f1f565b61175e30638441e0af60e01b6b61646d696e2d706f6c69637960a01b611f1f565b61177f30633a3f16cb60e21b6b61646d696e2d706f6c69637960a01b611f1f565b6117a0306373c6290560e01b6b61646d696e2d706f6c69637960a01b611f1f565b80156117eb576003805461ff00191690556040517f7f26b83ff96e1f2b6a682f133852f6798a09c465da95921460cefb3847402498906117e290600190613484565b60405180910390a15b50505050505050565b60005460408051635c975abb60e01b8152905183926001600160a01b031691635c975abb9160048083019260209291908290030181865afa15801561183d573d6000803e3d6000fd5b505050506040513d601f19601f820116820180604052508101906118619190612db8565b156118af576000546001600160a01b0316301480156118925750633a3f16cb60e21b6001600160e01b031960003516145b6118af57604051632022058360e01b815260040161046a90612e07565b6000816040516020016118c2919061301b565b60408051601f19818403018152919052516118dd9036613042565b6118e8906020613055565b600080549192506001600160a01b039091169063fd835426908490339030906001600160e01b0319813516906119219088903681613068565b60016040518863ffffffff1660e01b815260040161194597969594939291906130a8565b600060405180830381865afa158015611962573d6000803e3d6000fd5b505050506040513d6000823e601f3d908101601f1916820160405261198a9190810190613190565b506005805460ff191690556040517fa45f47fdea8a1efdd9029a5691c7f759c32b7c698632b563573e155625d1693390600090a1600180600061104360808601866132a7565b6060468860200135146119f657604051632022058360e01b815260040161046a906134ba565b6001600160a01b038616611a1060608a0160408b01612829565b6001600160a01b031614611a3757604051632022058360e01b815260040161046a906134f2565b611a4460608901896132fb565b604051611a5292919061335e565b60405180910390208484604051611a6a92919061335e565b604051809103902014611a9057604051632022058360e01b815260040161046a9061352a565b611a9d60808901896132a7565b9050600003611abf57604051632022058360e01b815260040161046a9061356e565b6000611acb8787610aca565b90508215611c015760026000611ae460808c018c6132a7565b6000818110611af557611af5613223565b9050602002810190611b0791906132fb565b604051611b1592919061335e565b604080519182900390912082526020820192909252016000205460ff1615611b5057604051632022058360e01b815260040161046a906135b2565b60016000611b6160808c018c6132a7565b6000818110611b7257611b72613223565b9050602002810190611b8491906132fb565b604051611b9292919061335e565b604080519182900390912082526020820192909252016000205460ff1615611bcd57604051632022058360e01b815260040161046a90613605565b8051611bdc60808b018b6132a7565b905014611bfc57604051632022058360e01b815260040161046a90613649565b611c31565b8051611c1060808b018b6132a7565b90501115611c3157604051632022058360e01b815260040161046a90613649565b6000611c4060808b018b6132a7565b90506001600160401b03811115611c5957611c5961290d565b604051908082528060200260200182016040528015611c82578160200160208202803683370190505b50905060005b611c9560808c018c6132a7565b9050811015611f11576000611cad60808d018d6132a7565b83818110611cbd57611cbd613223565b9050602002810190611ccf91906132fb565b8080601f016020809104026020016040519081016040528093929190818152602001838380828437600092018290525093945050508382039050611d6b578c600001358d602001358e6040016020810190611d2a9190612829565b8f8060600190611d3a91906132fb565b604051602001611d4e95949392919061336b565b604051602081830303815290604052805190602001209050611dce565b611d7860808e018e6132a7565b611d83600186613042565b818110611d9257611d92613223565b9050602002810190611da491906132fb565b604051602001611db5929190613659565b6040516020818303038152906040528051906020012090505b6000611ddd836109a384611f8f565b9050611e0281878681518110611df557611df5613223565b602002602001015161089d565b611e1f57604051632022058360e01b815260040161046a90613692565b83600003611e5e578c6001600160a01b0316816001600160a01b031614611e5957604051632022058360e01b815260040161046a906136e3565b611ec8565b60005b84811015611ec657816001600160a01b0316868281518110611e8557611e85613223565b60200260200101516001600160a01b031603611eb457604051632022058360e01b815260040161046a90613727565b80611ebe81613239565b915050611e61565b505b80858581518110611edb57611edb613223565b60200260200101906001600160a01b031690816001600160a01b0316815250505050508080611f0990613239565b915050611c88565b509998505050505050505050565b6001600160a01b03831660008181526009602090815260408083206001600160e01b03198716845290915290819020839055518291907fba1ec2dff55a4b0931cf9207c31d493bd27e678b2e15d806c497b820c4dcaeeb90611f82908690613737565b60405180910390a3505050565b600081604051602001611fa29190613745565b604051602081830303815290604052805190602001209050919050565b6000806000611fce8585612217565b91509150611fdb8161225c565b509392505050565b6002600454036120055760405162461bcd60e51b815260040161046a906137b4565b6002600455565b600061201661230e565b905060005b825181101561209f57600083828151811061203857612038613223565b602090810291909101810151808201805186166001600160c01b0319811690915290516001600160a01b0316600090815260079092526040909120805467ffffffffffffffff191660c09290921c919091179055508061209781613239565b91505061201b565b507f12a11ba4a0395b9f775a0cdac6c1a44182322f4a2892f95922fdc1479cfc02c8826040516120cf9190613840565b60405180910390a15050565b816120f9576040516330f4936760e21b815260040161046a90613877565b60008281526008602052604090205415612126576040516330f4936760e21b815260040161046a906138b2565b8051600003612148576040516330f4936760e21b815260040161046a906138ef565b600061215261230e565b905060005b82518110156121b9578183828151811061217357612173613223565b60200260200101511683828151811061218e5761218e613223565b6001600160c01b031990921660209283029190910190910152806121b181613239565b915050612157565b50600083815260086020908152604090912083516121d992850190612431565b50827f1c28460e7353d1f76d93ce571bb7bf39c569b19a4c9b2a4c1d7f2c9c95f4c0da8360405161220a9190612811565b60405180910390a2505050565b600080825160410361224d5760208301516040840151606085015160001a6122418782858561232f565b94509450505050612255565b506000905060025b9250929050565b6000816004811115612270576122706138ff565b036122785750565b600181600481111561228c5761228c6138ff565b036122a95760405162461bcd60e51b815260040161046a90613949565b60028160048111156122bd576122bd6138ff565b036122da5760405162461bcd60e51b815260040161046a9061398d565b60038160048111156122ee576122ee6138ff565b0361230b5760405162461bcd60e51b815260040161046a906139dc565b50565b60065460009061231f906040613042565b6001600160c01b0319901c919050565b6000807f7fffffffffffffffffffffffffffffff5d576e7357a4501ddfe92f46681b20a083111561236657506000905060036123dd565b60006001878787876040516000815260200160405260405161238b94939291906139f5565b6020604051602081039080840390855afa1580156123ad573d6000803e3d6000fd5b5050604051601f1901519150506001600160a01b0381166123d6576000600192509250506123dd565b9150600090505b94509492505050565b828054828255906000526020600020908101928215612421579160200282015b82811115612421578235825591602001919060010190612406565b5061242d9291506124da565b5090565b828054828255906000526020600020906003016004900481019282156124215791602002820160005b8382111561249e57835183826101000a8154816001600160401b03021916908360c01c0217905550926020019260080160208160070104928301926001030261245a565b80156124d15782816101000a8154906001600160401b03021916905560080160208160070104928301926001030261249e565b505061242d9291505b5b8082111561242d57600081556001016124db565b60008083601f84011261250457612504600080fd5b5081356001600160401b0381111561251e5761251e600080fd5b60208301915083602082028301111561225557612255600080fd5b600060a0828403121561254e5761254e600080fd5b50919050565b60008060006040848603121561256c5761256c600080fd5b83356001600160401b0381111561258557612585600080fd5b612591868287016124ef565b935093505060208401356001600160401b038111156125b2576125b2600080fd5b6125be86828701612539565b9150509250925092565b805b811461230b57600080fd5b80356108d4816125c8565b6000602082840312156125f5576125f5600080fd5b600061260184846125d5565b949350505050565b8015155b82525050565b602081016108d48284612609565b60006001600160a01b0382166108d4565b6125ca81612621565b80356108d481612632565b6001600160e01b031981166125ca565b80356108d481612646565b6000806000806080858703121561267a5761267a600080fd5b6000612686878761263b565b945050602061269787828801612656565b93505060406126a8878288016125d5565b92505060608501356001600160401b038111156126c7576126c7600080fd5b6126d387828801612539565b91505092959194509250565b6001600160c01b031981166125ca565b80356108d4816126df565b6000806040838503121561271057612710600080fd5b600061271c858561263b565b925050602061272d858286016126ef565b9150509250929050565b60006020828403121561274c5761274c600080fd5b81356001600160401b0381111561276557612765600080fd5b61260184828501612539565b6000806040838503121561278757612787600080fd5b6000612793858561263b565b925050602061272d85828601612656565b6001600160c01b0319811661260d565b60006127c083836127a4565b505060200190565b60006127d2825190565b80845260209384019383018060005b838110156128065781516127f588826127b4565b9750602083019250506001016127e1565b509495945050505050565b6020808252810161282281846127c8565b9392505050565b60006020828403121561283e5761283e600080fd5b6000612601848461263b565b602081016108d482846127a4565b8061260d565b60006127c08383612858565b6000612874825190565b80845260209384019383018060005b83811015612806578151612897888261285e565b975060208301925050600101612883565b60208082528101612822818461286a565b6000806000606084860312156128d1576128d1600080fd5b60006128dd868661263b565b93505060206128ee868287016125d5565b92505060408401356001600160401b038111156125b2576125b2600080fd5b634e487b7160e01b600052604160045260246000fd5b601f19601f83011681018181106001600160401b03821117156129485761294861290d565b6040525050565b600061295a60405190565b90506129668282612923565b919050565b60006001600160401b038211156129845761298461290d565b5060209081020190565b6000604082840312156129a3576129a3600080fd5b6129ad604061294f565b905060006129bb848461263b565b82525060206129cc848483016126ef565b60208301525092915050565b60006129eb6129e68461296b565b61294f565b83815290506020810160408402830185811115612a0a57612a0a600080fd5b835b81811015612a305780612a1f888261298e565b845250602090920191604001612a0c565b5050509392505050565b600082601f830112612a4e57612a4e600080fd5b81356126018482602086016129d8565b60008060408385031215612a7457612a74600080fd5b82356001600160401b03811115612a8d57612a8d600080fd5b612a9985828601612a3a565b92505060208301356001600160401b03811115612ab857612ab8600080fd5b61272d85828601612539565b60008060008060608587031215612add57612add600080fd5b6000612ae987876125d5565b94505060208501356001600160401b03811115612b0857612b08600080fd5b612b14878288016124ef565b935093505060408501356001600160401b038111156126c7576126c7600080fd5b60008083601f840112612b4a57612b4a600080fd5b5081356001600160401b03811115612b6457612b64600080fd5b60208301915083604082028301111561225557612255600080fd5b60008060008060008060608789031215612b9b57612b9b600080fd5b86356001600160401b03811115612bb457612bb4600080fd5b612bc089828a016124ef565b965096505060208701356001600160401b03811115612be157612be1600080fd5b612bed89828a01612b35565b945094505060408701356001600160401b03811115612c0e57612c0e600080fd5b612c1a89828a016124ef565b92509250509295509295509295565b60008083601f840112612c3e57612c3e600080fd5b5081356001600160401b03811115612c5857612c58600080fd5b60208301915083600182028301111561225557612255600080fd5b8015156125ca565b80356108d481612c73565b600080600080600080600060c0888a031215612ca457612ca4600080fd5b87356001600160401b03811115612cbd57612cbd600080fd5b612cc98a828b01612539565b9750506020612cda8a828b0161263b565b9650506040612ceb8a828b0161263b565b9550506060612cfc8a828b01612656565b94505060808801356001600160401b03811115612d1b57612d1b600080fd5b612d278a828b01612c29565b935093505060a0612d3a8a828b01612c7b565b91505092959891949750929550565b61260d81612621565b60006127c08383612d49565b6000612d68825190565b80845260209384019383018060005b83811015612806578151612d8b8882612d52565b975060208301925050600101612d77565b602080825281016128228184612d5e565b80516108d481612c73565b600060208284031215612dcd57612dcd600080fd5b60006126018484612dad565b6014815260006020820173151a194814da1a595b19081a5cc81c185d5cd95960621b815291505b5060200190565b602080825281016108d481612dd9565b600061282260208401846125d5565b6000612822602084018461263b565b6000808335601e1936859003018112612e5057612e50600080fd5b8381016020810193503591506001600160401b03821115612e7357612e73600080fd5b36829003831315612e8657612e86600080fd5b509250929050565b82818337506000910152565b8183526000602084019350612eb0838584612e8e565b5050601f01601f19160190565b6000808335601e1936859003018112612ed857612ed8600080fd5b8381016020810193503591506001600160401b03821115612efb57612efb600080fd5b602082023603831315612e8657612e86600080fd5b6000612601848484612e9a565b818352600060208401935083602084028101838060005b87811015612f6f578484038952612f4b8284612e35565b612f56868284612f10565b95506020840160209b909b019a93505050600101612f34565b5091979650505050505050565b600060a08301612f8c8380612e17565b612f968582612858565b50612fa46020840184612e17565b612fb16020860182612858565b50612fbf6040840184612e26565b612fcc6040860182612d49565b50612fda6060840184612e35565b8583036060870152612fed838284612e9a565b92505050612ffe6080840184612ebd565b8583036080870152613011838284612f1d565b9695505050505050565b602080825281016128228184612f7c565b634e487b7160e01b600052601160045260246000fd5b818103818111156108d4576108d461302c565b808201808211156108d4576108d461302c565b6000808585111561307b5761307b600080fd5b8386111561308b5761308b600080fd5b5050820193919092039150565b6001600160e01b0319811661260d565b60c080825281016130b9818a612f7c565b90506130c86020830189612d49565b6130d56040830188612d49565b6130e26060830187613098565b81810360808301526130f5818587612e9a565b905061310460a0830184612609565b98975050505050505050565b80516108d481612632565b60006131296129e68461296b565b8381529050602080820190840283018581111561314857613148600080fd5b835b81811015612a30578061315d8882613110565b8452506020928301920161314a565b600082601f83011261318057613180600080fd5b815161260184826020860161311b565b6000602082840312156131a5576131a5600080fd5b81516001600160401b038111156131be576131be600080fd5b6126018482850161316c565b602981526000602082017f54686520536869656c642063616e6e6f742068617665206d6f7265207468616e81526820363420726f6c657360b81b602082015291505b5060400190565b602080825281016108d4816131ca565b634e487b7160e01b600052603260045260246000fd5b6000600019820361324c5761324c61302c565b5060010190565b82818337505050565b81835260006020840193506001600160fb1b0383111561327e5761327e600080fd5b60208302925061328f838584613253565b50500190565b6020808252810161260181848661325c565b6000808335601e19368590030181126132c2576132c2600080fd5b8084019250823591506001600160401b038211156132e2576132e2600080fd5b60209283019282023603831315612e8657612e86600080fd5b6000808335601e193685900301811261331657613316600080fd5b8084019250823591506001600160401b0382111561333657613336600080fd5b602083019250600182023603831315612e8657612e86600080fd5b600061328f838584612e8e565b6000612601828486613351565b608081016133798288612858565b6133866020830187612858565b6133936040830186612d49565b81810360608301526133a6818486612e9a565b979650505050505050565b80356001600160e01b031916828260048210156133e4576133df6001600160e01b0319836004036008021b90565b831692505b505092915050565b6000816108d4565b602e81526000602082017f496e697469616c697a61626c653a20636f6e747261637420697320616c72656181526d191e481a5b9a5d1a585b1a5e995960921b6020820152915061320c565b602080825281016108d4816133f4565b60006040828403121561346457613464600080fd5b6000612601848461298e565b600060ff82166108d4565b61260d81613470565b602081016108d4828461347b565b6011815260006020820170086d0c2d2dc40928840dad2e6dac2e8c6d607b1b81529150612e00565b602080825281016108d481613492565b6011815260006020820170086dedce8e4c2c6e840dad2e6dac2e8c6d607b1b81529150612e00565b602080825281016108d4816134ca565b601181526000602082017008ceadcc6e8d2dedc40dad2e6dac2e8c6d607b1b81529150612e00565b602080825281016108d481613502565b601981526000602082017f417070726f76616c732063616e6e6f7420626520656d7074790000000000000081529150612e00565b602080825281016108d48161353a565b601e81526000602082017f43726564656e7469616c732068617665206265656e2063616e63656c6564000081529150612e00565b602080825281016108d48161357e565b602681526000602082017f43726564656e7469616c732068617665206265656e20657865637574656420618152656c726561647960d01b6020820152915061320c565b602080825281016108d4816135c2565b601d81526000602082017f496e636f7272656374206e756d626572206f6620617070726f76616c7300000081529150612e00565b602080825281016108d481613615565b60208082528101612601818486612e9a565b601081526000602082016f2837b634b1bc903b34b7b630ba34b7b760811b81529150612e00565b602080825281016108d48161366b565b602481526000602082017f546865206f776e6572206d75737420626520746865206669727374206170707281526337bb32b960e11b6020820152915061320c565b602080825281016108d4816136a2565b601e81526000602082017f53616d6520616464726573732063616e6e6f74207369676e207477696365000081529150612e00565b602080825281016108d4816136f3565b602081016108d48284613098565b7f19457468657265756d205369676e6564204d6573736167653a0a3332000000008152601c0160006137778284612858565b50602001919050565b601f81526000602082017f5265656e7472616e637947756172643a207265656e7472616e742063616c6c0081529150612e00565b602080825281016108d481613780565b805160408301906137d58482612d49565b5060208201516137e860208501826127a4565b50505050565b60006137fa83836137c4565b505060400190565b600061380c825190565b80845260209384019383018060005b8381101561280657815161382f88826137ee565b97506020830192505060010161381b565b602080825281016128228184613802565b600f81526000602082016e155b9919599a5b9959081b1858995b608a1b81529150612e00565b602080825281016108d481613851565b60148152600060208201734c6162656c20616c72656164792065786973747360601b81529150612e00565b602080825281016108d481613887565b6016815260006020820175506f6c6963792063616e6e6f7420626520656d70747960501b81529150612e00565b602080825281016108d4816138c2565b634e487b7160e01b600052602160045260246000fd5b601881526000602082017f45434453413a20696e76616c6964207369676e6174757265000000000000000081529150612e00565b602080825281016108d481613915565b601f81526000602082017f45434453413a20696e76616c6964207369676e6174757265206c656e6774680081529150612e00565b602080825281016108d481613959565b602281526000602082017f45434453413a20696e76616c6964207369676e6174757265202773272076616c815261756560f01b6020820152915061320c565b602080825281016108d48161399d565b60ff811661260d565b60808101613a038287612858565b613a1060208301866139ec565b613a1d6040830185612858565b613a2a6060830184612858565b9594505050505056fea26469706673582212208a499e79f4425d5d14f946659082d77284505b6830a7bda6649c22779ee8cccd64736f6c63430008110033",
    "linkReferences": {},
    "deployedLinkReferences": {}
}