{
    "_format": "hh-sol-artifact-1",
    "contractName": "Shield",
    "sourceName": "contracts/Shield.sol",
    "abi": [
        {
            "inputs": [],
            "stateMutability": "nonpayable",
            "type": "constructor"
        },
        {
            "inputs": [
                {
                    "internalType": "string",
                    "name": "reason",
                    "type": "string"
                }
            ],
            "name": "InvalidCredentials",
            "type": "error"
        },
        {
            "inputs": [
                {
                    "internalType": "string",
                    "name": "reason",
                    "type": "string"
                }
            ],
            "name": "ShieldError",
            "type": "error"
        },
        {
            "anonymous": false,
            "inputs": [
                {
                    "indexed": false,
                    "internalType": "uint8",
                    "name": "version",
                    "type": "uint8"
                }
            ],
            "name": "Initialized",
            "type": "event"
        },
        {
            "anonymous": false,
            "inputs": [],
            "name": "Paused",
            "type": "event"
        },
        {
            "anonymous": false,
            "inputs": [
                {
                    "indexed": true,
                    "internalType": "bytes32",
                    "name": "label",
                    "type": "bytes32"
                },
                {
                    "indexed": false,
                    "internalType": "bytes8[]",
                    "name": "policy",
                    "type": "bytes8[]"
                }
            ],
            "name": "PolicyAdded",
            "type": "event"
        },
        {
            "anonymous": false,
            "inputs": [
                {
                    "indexed": true,
                    "internalType": "address",
                    "name": "to",
                    "type": "address"
                },
                {
                    "indexed": false,
                    "internalType": "bytes4",
                    "name": "sig",
                    "type": "bytes4"
                },
                {
                    "indexed": true,
                    "internalType": "bytes32",
                    "name": "label",
                    "type": "bytes32"
                }
            ],
            "name": "PolicyAssigned",
            "type": "event"
        },
        {
            "anonymous": false,
            "inputs": [
                {
                    "indexed": false,
                    "internalType": "bytes32[]",
                    "name": "roles",
                    "type": "bytes32[]"
                }
            ],
            "name": "RolesAdded",
            "type": "event"
        },
        {
            "anonymous": false,
            "inputs": [
                {
                    "indexed": false,
                    "internalType": "address",
                    "name": "shieldable",
                    "type": "address"
                },
                {
                    "indexed": false,
                    "internalType": "address",
                    "name": "shield",
                    "type": "address"
                }
            ],
            "name": "ShieldableDeployed",
            "type": "event"
        },
        {
            "anonymous": false,
            "inputs": [],
            "name": "Unpaused",
            "type": "event"
        },
        {
            "anonymous": false,
            "inputs": [
                {
                    "indexed": false,
                    "internalType": "address",
                    "name": "user",
                    "type": "address"
                },
                {
                    "indexed": false,
                    "internalType": "bytes8",
                    "name": "roles",
                    "type": "bytes8"
                }
            ],
            "name": "UserSet",
            "type": "event"
        },
        {
            "stateMutability": "payable",
            "type": "fallback"
        },
        {
            "inputs": [
                {
                    "internalType": "bytes32",
                    "name": "label",
                    "type": "bytes32"
                },
                {
                    "internalType": "bytes8[]",
                    "name": "policy",
                    "type": "bytes8[]"
                },
                {
                    "components": [
                        {
                            "internalType": "address",
                            "name": "to",
                            "type": "address"
                        },
                        {
                            "internalType": "bytes",
                            "name": "call",
                            "type": "bytes"
                        },
                        {
                            "internalType": "uint256",
                            "name": "timestamp",
                            "type": "uint256"
                        },
                        {
                            "internalType": "bytes[]",
                            "name": "approvals",
                            "type": "bytes[]"
                        }
                    ],
                    "internalType": "struct Credentials",
                    "name": "credentials",
                    "type": "tuple"
                }
            ],
            "name": "addPolicy",
            "outputs": [],
            "stateMutability": "nonpayable",
            "type": "function"
        },
        {
            "inputs": [
                {
                    "internalType": "bytes32[]",
                    "name": "_roles",
                    "type": "bytes32[]"
                },
                {
                    "components": [
                        {
                            "internalType": "address",
                            "name": "to",
                            "type": "address"
                        },
                        {
                            "internalType": "bytes",
                            "name": "call",
                            "type": "bytes"
                        },
                        {
                            "internalType": "uint256",
                            "name": "timestamp",
                            "type": "uint256"
                        },
                        {
                            "internalType": "bytes[]",
                            "name": "approvals",
                            "type": "bytes[]"
                        }
                    ],
                    "internalType": "struct Credentials",
                    "name": "credentials",
                    "type": "tuple"
                }
            ],
            "name": "addRoles",
            "outputs": [],
            "stateMutability": "nonpayable",
            "type": "function"
        },
        {
            "inputs": [
                {
                    "internalType": "address",
                    "name": "to",
                    "type": "address"
                },
                {
                    "internalType": "bytes4",
                    "name": "sig",
                    "type": "bytes4"
                },
                {
                    "internalType": "bytes32",
                    "name": "label",
                    "type": "bytes32"
                },
                {
                    "components": [
                        {
                            "internalType": "address",
                            "name": "to",
                            "type": "address"
                        },
                        {
                            "internalType": "bytes",
                            "name": "call",
                            "type": "bytes"
                        },
                        {
                            "internalType": "uint256",
                            "name": "timestamp",
                            "type": "uint256"
                        },
                        {
                            "internalType": "bytes[]",
                            "name": "approvals",
                            "type": "bytes[]"
                        }
                    ],
                    "internalType": "struct Credentials",
                    "name": "credentials",
                    "type": "tuple"
                }
            ],
            "name": "assignPolicy",
            "outputs": [],
            "stateMutability": "nonpayable",
            "type": "function"
        },
        {
            "inputs": [],
            "name": "born",
            "outputs": [
                {
                    "internalType": "uint256",
                    "name": "",
                    "type": "uint256"
                }
            ],
            "stateMutability": "view",
            "type": "function"
        },
        {
            "inputs": [
                {
                    "components": [
                        {
                            "internalType": "address",
                            "name": "to",
                            "type": "address"
                        },
                        {
                            "internalType": "bytes",
                            "name": "call",
                            "type": "bytes"
                        },
                        {
                            "internalType": "uint256",
                            "name": "timestamp",
                            "type": "uint256"
                        },
                        {
                            "internalType": "bytes[]",
                            "name": "approvals",
                            "type": "bytes[]"
                        }
                    ],
                    "internalType": "struct Credentials",
                    "name": "credentials",
                    "type": "tuple"
                }
            ],
            "name": "burnCredentials",
            "outputs": [],
            "stateMutability": "nonpayable",
            "type": "function"
        },
        {
            "inputs": [
                {
                    "internalType": "address",
                    "name": "to",
                    "type": "address"
                },
                {
                    "internalType": "bytes4",
                    "name": "sig",
                    "type": "bytes4"
                }
            ],
            "name": "getAssignedPolicy",
            "outputs": [
                {
                    "internalType": "bytes8[]",
                    "name": "",
                    "type": "bytes8[]"
                }
            ],
            "stateMutability": "view",
            "type": "function"
        },
        {
            "inputs": [
                {
                    "internalType": "bytes32",
                    "name": "label",
                    "type": "bytes32"
                }
            ],
            "name": "getPolicy",
            "outputs": [
                {
                    "internalType": "bytes8[]",
                    "name": "",
                    "type": "bytes8[]"
                }
            ],
            "stateMutability": "view",
            "type": "function"
        },
        {
            "inputs": [],
            "name": "getRoles",
            "outputs": [
                {
                    "internalType": "bytes32[]",
                    "name": "",
                    "type": "bytes32[]"
                }
            ],
            "stateMutability": "view",
            "type": "function"
        },
        {
            "inputs": [
                {
                    "internalType": "address",
                    "name": "user",
                    "type": "address"
                }
            ],
            "name": "getUser",
            "outputs": [
                {
                    "internalType": "bytes8",
                    "name": "",
                    "type": "bytes8"
                }
            ],
            "stateMutability": "view",
            "type": "function"
        },
        {
            "inputs": [
                {
                    "internalType": "contract ShieldFactory",
                    "name": "_factory",
                    "type": "address"
                },
                {
                    "internalType": "bytes32[]",
                    "name": "_roles",
                    "type": "bytes32[]"
                },
                {
                    "components": [
                        {
                            "internalType": "address",
                            "name": "addr",
                            "type": "address"
                        },
                        {
                            "internalType": "bytes8",
                            "name": "roles",
                            "type": "bytes8"
                        }
                    ],
                    "internalType": "struct User[]",
                    "name": "_users",
                    "type": "tuple[]"
                },
                {
                    "internalType": "bytes8[]",
                    "name": "policy",
                    "type": "bytes8[]"
                }
            ],
            "name": "initialize",
            "outputs": [],
            "stateMutability": "nonpayable",
            "type": "function"
        },
        {
            "inputs": [
                {
                    "components": [
                        {
                            "internalType": "address",
                            "name": "to",
                            "type": "address"
                        },
                        {
                            "internalType": "bytes",
                            "name": "call",
                            "type": "bytes"
                        },
                        {
                            "internalType": "uint256",
                            "name": "timestamp",
                            "type": "uint256"
                        },
                        {
                            "internalType": "bytes[]",
                            "name": "approvals",
                            "type": "bytes[]"
                        }
                    ],
                    "internalType": "struct Credentials",
                    "name": "credentials",
                    "type": "tuple"
                }
            ],
            "name": "pause",
            "outputs": [],
            "stateMutability": "nonpayable",
            "type": "function"
        },
        {
            "inputs": [],
            "name": "paused",
            "outputs": [
                {
                    "internalType": "bool",
                    "name": "",
                    "type": "bool"
                }
            ],
            "stateMutability": "view",
            "type": "function"
        },
        {
            "inputs": [
                {
                    "internalType": "address",
                    "name": "addr",
                    "type": "address"
                },
                {
                    "internalType": "bytes8",
                    "name": "_roles",
                    "type": "bytes8"
                },
                {
                    "components": [
                        {
                            "internalType": "address",
                            "name": "to",
                            "type": "address"
                        },
                        {
                            "internalType": "bytes",
                            "name": "call",
                            "type": "bytes"
                        },
                        {
                            "internalType": "uint256",
                            "name": "timestamp",
                            "type": "uint256"
                        },
                        {
                            "internalType": "bytes[]",
                            "name": "approvals",
                            "type": "bytes[]"
                        }
                    ],
                    "internalType": "struct Credentials",
                    "name": "credentials",
                    "type": "tuple"
                }
            ],
            "name": "setUser",
            "outputs": [],
            "stateMutability": "nonpayable",
            "type": "function"
        },
        {
            "inputs": [
                {
                    "internalType": "address payable",
                    "name": "_to",
                    "type": "address"
                },
                {
                    "internalType": "uint256",
                    "name": "amount",
                    "type": "uint256"
                },
                {
                    "components": [
                        {
                            "internalType": "address",
                            "name": "to",
                            "type": "address"
                        },
                        {
                            "internalType": "bytes",
                            "name": "call",
                            "type": "bytes"
                        },
                        {
                            "internalType": "uint256",
                            "name": "timestamp",
                            "type": "uint256"
                        },
                        {
                            "internalType": "bytes[]",
                            "name": "approvals",
                            "type": "bytes[]"
                        }
                    ],
                    "internalType": "struct Credentials",
                    "name": "credentials",
                    "type": "tuple"
                }
            ],
            "name": "transfer",
            "outputs": [],
            "stateMutability": "payable",
            "type": "function"
        },
        {
            "inputs": [
                {
                    "components": [
                        {
                            "internalType": "address",
                            "name": "to",
                            "type": "address"
                        },
                        {
                            "internalType": "bytes",
                            "name": "call",
                            "type": "bytes"
                        },
                        {
                            "internalType": "uint256",
                            "name": "timestamp",
                            "type": "uint256"
                        },
                        {
                            "internalType": "bytes[]",
                            "name": "approvals",
                            "type": "bytes[]"
                        }
                    ],
                    "internalType": "struct Credentials",
                    "name": "credentials",
                    "type": "tuple"
                }
            ],
            "name": "unpause",
            "outputs": [],
            "stateMutability": "nonpayable",
            "type": "function"
        },
        {
            "inputs": [
                {
                    "components": [
                        {
                            "internalType": "address",
                            "name": "to",
                            "type": "address"
                        },
                        {
                            "internalType": "bytes",
                            "name": "call",
                            "type": "bytes"
                        },
                        {
                            "internalType": "uint256",
                            "name": "timestamp",
                            "type": "uint256"
                        },
                        {
                            "internalType": "bytes[]",
                            "name": "approvals",
                            "type": "bytes[]"
                        }
                    ],
                    "internalType": "struct Credentials",
                    "name": "credentials",
                    "type": "tuple"
                },
                {
                    "internalType": "address",
                    "name": "sender",
                    "type": "address"
                },
                {
                    "internalType": "address",
                    "name": "to",
                    "type": "address"
                },
                {
                    "internalType": "bytes4",
                    "name": "f",
                    "type": "bytes4"
                },
                {
                    "internalType": "bytes",
                    "name": "call",
                    "type": "bytes"
                },
                {
                    "internalType": "bool",
                    "name": "full",
                    "type": "bool"
                }
            ],
            "name": "validateCredentials",
            "outputs": [
                {
                    "internalType": "address[]",
                    "name": "",
                    "type": "address[]"
                }
            ],
            "stateMutability": "view",
            "type": "function"
        },
        {
            "stateMutability": "payable",
            "type": "receive"
        }
    ],
    "bytecode": "0x60806040523480156200001157600080fd5b50600080546001600160a01b031916309081179091556040517f7325cede0f4927e0139385df8b1c5e5fbb3e2de5851b8c784ea8e75e2576d1b7906200005b90839081906200012b565b60405180910390a15060016003556200007362000079565b620001b7565b600254610100900460ff1615620000ad5760405162461bcd60e51b8152600401620000a49062000151565b60405180910390fd5b60025460ff908116101562000105576002805460ff191660ff9081179091556040517f7f26b83ff96e1f2b6a682f133852f6798a09c465da95921460cefb384740249891620000fc91620001a7565b60405180910390a15b565b60006001600160a01b0382165b92915050565b620001258162000107565b82525050565b604081016200013b82856200011a565b6200014a60208301846200011a565b9392505050565b602080825281016200011481602781527f496e697469616c697a61626c653a20636f6e747261637420697320696e697469602082015266616c697a696e6760c81b604082015260600190565b60ff811662000125565b602081016200011482846200019d565b61375080620001c76000396000f3fe6080604052600436106100eb5760003560e01c80635ebbc32a11610084578063a3f685f911610056578063a3f685f9146102c3578063da1f874d146102e3578063e1b7351f14610303578063f90a9c9e1461032357005b80635ebbc32a1461020e5780636bc498711461022e5780636f77926b1461025b57806371061398146102a157005b80631df0be84116100bd5780631df0be841461018d5780634aece76e146101ad57806350542f2a146101cd5780635c975abb146101e057005b806302eba6ce146100f457806303289bfb1461011457806310c1942114610134578063157432e41461016057005b366100f257005b005b34801561010057600080fd5b506100f261010f3660046123e3565b610343565b34801561012057600080fd5b506100f261012f366004612461565b61055b565b34801561014057600080fd5b5061014a60045481565b60405161015791906124ab565b60405180910390f35b34801561016c57600080fd5b5061018061017b366004612516565b610741565b604051610157919061263f565b34801561019957600080fd5b506100f26101a83660046126a1565b610c07565b3480156101b957600080fd5b506100f26101c8366004612712565b610dd0565b6100f26101db366004612786565b611090565b3480156101ec57600080fd5b5060055461020190600160a01b900460ff1681565b60405161015791906127e2565b34801561021a57600080fd5b506100f261022936600461280b565b61130f565b34801561023a57600080fd5b5061024e610249366004612840565b6114b7565b60405161015791906128d7565b34801561026757600080fd5b506102946102763660046128e8565b6001600160a01b031660009081526007602052604090205460c01b90565b6040516101579190612909565b3480156102ad57600080fd5b506102b6611570565b6040516101579190612961565b3480156102cf57600080fd5b5061024e6102de366004612972565b6115c8565b3480156102ef57600080fd5b506100f26102fe366004612461565b611657565b34801561030f57600080fd5b506100f261031e366004612461565b61188e565b34801561032f57600080fd5b506100f261033e3660046129fc565b611a68565b60005460408051635c975abb60e01b8152905183926001600160a01b031691635c975abb9160048083019260209291908290030181865afa15801561038c573d6000803e3d6000fd5b505050506040513d601f19601f820116820180604052508101906103b09190612ac7565b15610407576000546001600160a01b0316301480156103e1575063da1f874d60e01b6001600160e01b031960003516145b61040757604051632022058360e01b81526004016103fe90612b16565b60405180910390fd5b60008160405160200161041a9190612d0f565b60408051601f19818403018152919052516104359036612d36565b600080549192506001600160a01b039091169063157432e4908490339030906001600160e01b03198135169061046e9088903681612d49565b60016040518863ffffffff1660e01b81526004016104929796959493929190612d89565b600060405180830381865afa1580156104af573d6000803e3d6000fd5b505050506040513d6000823e601f3d908101601f191682016040526104d79190810190612f01565b506104e3868686611d5f565b60018060006104f56060860186612f3b565b600081811061050657610506612f8f565b90506020028101906105189190612fa5565b60405161052692919061300e565b6040518091039020815260200190815260200160002060006101000a81548160ff021916908315150217905550505050505050565b600061056a60208301836128e8565b6105776020840184612fa5565b846040013560405160200161058f949392919061301b565b60408051601f198184030181529190528051602090910120905060006106246105bb6060850185612f3b565b60008181106105cc576105cc612f8f565b90506020028101906105de9190612fa5565b8080601f01602080910402602001604051908101604052809392919081815260200183838082843760009201919091525061061e9250869150611dcf9050565b90611dff565b90506000610673848361063a60208301836128e8565b6106476020890189612fa5565b61065691600491600091612d49565b61065f91613054565b61066c60208a018a612fa5565b6000610741565b905060005b815181101561073a57336001600160a01b031682828151811061069d5761069d612f8f565b60200260200101516001600160a01b0316036107285760018060006106c56060890189612f3b565b60008181106106d6576106d6612f8f565b90506020028101906106e89190612fa5565b6040516106f692919061300e565b6040518091039020815260200190815260200160002060006101000a81548160ff02191690831515021790555061073a565b806107328161308f565b915050610678565b5050505050565b60606001600160a01b03861661075a60208a018a6128e8565b6001600160a01b03161461078157604051632022058360e01b81526004016103fe906130d1565b61078e6020890189612fa5565b60405161079c92919061300e565b604051809103902084846040516107b492919061300e565b6040518091039020146107da57604051632022058360e01b81526004016103fe90613109565b6107e76060890189612f3b565b905060000361080957604051632022058360e01b81526004016103fe9061314d565b600061081587876114b7565b9050821561085157805161082c60608b018b612f3b565b90501461084c57604051632022058360e01b81526004016103fe90613191565b610881565b805161086060608b018b612f3b565b9050111561088157604051632022058360e01b81526004016103fe90613191565b6001600061089260608c018c612f3b565b60008181106108a3576108a3612f8f565b90506020028101906108b59190612fa5565b6040516108c392919061300e565b604080519182900390912082526020820192909252016000205460ff16156108fe57604051632022058360e01b81526004016103fe906131e3565b600061090d60608b018b612f3b565b90506001600160401b0381111561092657610926612df1565b60405190808252806020026020018201604052801561094f578160200160208202803683370190505b50905060005b61096260608c018c612f3b565b9050811015610bf957600061097a60608d018d612f3b565b8381811061098a5761098a612f8f565b905060200281019061099c9190612fa5565b8080601f016020809104026020016040519081016040528093929190818152602001838380828437600092018290525093945050508382039050610a29576109e760208e018e6128e8565b6109f460208f018f612fa5565b8f60400135604051602001610a0c949392919061301b565b604051602081830303815290604052805190602001209050610a8c565b610a3660608e018e612f3b565b610a41600186612d36565b818110610a5057610a50612f8f565b9050602002810190610a629190612fa5565b604051602001610a739291906131f3565b6040516020818303038152906040528051906020012090505b6000610a9b8361061e84611dcf565b90506000868581518110610ab157610ab1612f8f565b6020026020010151610adb836001600160a01b031660009081526007602052604090205460c01b90565b166001600160c01b031916905080610b0657604051632022058360e01b81526004016103fe9061322c565b84600003610b45578d6001600160a01b0316826001600160a01b031614610b4057604051632022058360e01b81526004016103fe9061327d565b610baf565b60005b85811015610bad57826001600160a01b0316878281518110610b6c57610b6c612f8f565b60200260200101516001600160a01b031603610b9b57604051632022058360e01b81526004016103fe906132c1565b80610ba58161308f565b915050610b48565b505b81868681518110610bc257610bc2612f8f565b60200260200101906001600160a01b031690816001600160a01b031681525050505050508080610bf19061308f565b915050610955565b509998505050505050505050565b60005460408051635c975abb60e01b8152905183926001600160a01b031691635c975abb9160048083019260209291908290030181865afa158015610c50573d6000803e3d6000fd5b505050506040513d601f19601f82011682018060405250810190610c749190612ac7565b15610cc2576000546001600160a01b031630148015610ca5575063da1f874d60e01b6001600160e01b031960003516145b610cc257604051632022058360e01b81526004016103fe90612b16565b600081604051602001610cd59190612d0f565b60408051601f1981840301815291905251610cf09036612d36565b600080549192506001600160a01b039091169063157432e4908490339030906001600160e01b031981351690610d299088903681612d49565b60016040518863ffffffff1660e01b8152600401610d4d9796959493929190612d89565b600060405180830381865afa158015610d6a573d6000803e3d6000fd5b505050506040513d6000823e601f3d908101601f19168201604052610d929190810190612f01565b506104e386868680806020026020016040519081016040528093929190818152602001838360200280828437600092019190915250611e2392505050565b60005460408051635c975abb60e01b8152905183926001600160a01b031691635c975abb9160048083019260209291908290030181865afa158015610e19573d6000803e3d6000fd5b505050506040513d601f19601f82011682018060405250810190610e3d9190612ac7565b15610e8b576000546001600160a01b031630148015610e6e575063da1f874d60e01b6001600160e01b031960003516145b610e8b57604051632022058360e01b81526004016103fe90612b16565b600081604051602001610e9e9190612d0f565b60408051601f1981840301815291905251610eb99036612d36565b600080549192506001600160a01b039091169063157432e4908490339030906001600160e01b031981351690610ef29088903681612d49565b60016040518863ffffffff1660e01b8152600401610f169796959493929190612d89565b600060405180830381865afa158015610f33573d6000803e3d6000fd5b505050506040513d6000823e601f3d908101601f19168201604052610f5b9190810190612f01565b50600654604090610f6d9086906132d1565b1115610f8c576040516330f4936760e21b81526004016103fe9061332a565b60005b84811015610fdf576006868683818110610fab57610fab612f8f565b8354600181018555600094855260209485902091909402929092013591909201555080610fd78161308f565b915050610f8f565b507fdc3627b8a50594a2c055615b1dd1ef69f5dc80de35b405d1550f8bc7276e71ee8585604051611011929190613376565b60405180910390a1600180600061102b6060860186612f3b565b600081811061103c5761103c612f8f565b905060200281019061104e9190612fa5565b60405161105c92919061300e565b6040518091039020815260200190815260200160002060006101000a81548160ff0219169083151502179055505050505050565b611098611f5f565b60005460408051635c975abb60e01b8152905183926001600160a01b031691635c975abb9160048083019260209291908290030181865afa1580156110e1573d6000803e3d6000fd5b505050506040513d601f19601f820116820180604052508101906111059190612ac7565b15611153576000546001600160a01b031630148015611136575063da1f874d60e01b6001600160e01b031960003516145b61115357604051632022058360e01b81526004016103fe90612b16565b6000816040516020016111669190612d0f565b60408051601f19818403018152919052516111819036612d36565b600080549192506001600160a01b039091169063157432e4908490339030906001600160e01b0319813516906111ba9088903681612d49565b60016040518863ffffffff1660e01b81526004016111de9796959493929190612d89565b600060405180830381865afa1580156111fb573d6000803e3d6000fd5b505050506040513d6000823e601f3d908101601f191682016040526112239190810190612f01565b506000856001600160a01b03168560405161123d90613388565b60006040518083038185875af1925050503d806000811461127a576040519150601f19603f3d011682016040523d82523d6000602084013e61127f565b606091505b505090508061128d57600080fd5b5060018060006112a06060860186612f3b565b60008181106112b1576112b1612f8f565b90506020028101906112c39190612fa5565b6040516112d192919061300e565b6040518091039020815260200190815260200160002060006101000a81548160ff021916908315150217905550505061130a6001600355565b505050565b60005460408051635c975abb60e01b8152905183926001600160a01b031691635c975abb9160048083019260209291908290030181865afa158015611358573d6000803e3d6000fd5b505050506040513d601f19601f8201168201806040525081019061137c9190612ac7565b156113ca576000546001600160a01b0316301480156113ad575063da1f874d60e01b6001600160e01b031960003516145b6113ca57604051632022058360e01b81526004016103fe90612b16565b6000816040516020016113dd9190612d0f565b60408051601f19818403018152919052516113f89036612d36565b600080549192506001600160a01b039091169063157432e4908490339030906001600160e01b0319813516906114319088903681612d49565b60016040518863ffffffff1660e01b81526004016114559796959493929190612d89565b600060405180830381865afa158015611472573d6000803e3d6000fd5b505050506040513d6000823e601f3d908101601f1916820160405261149a9190810190612f01565b506114a58585611f88565b600180600061102b6060860186612f3b565b6001600160a01b03821660009081526009602090815260408083206001600160e01b031985168452825280832054808452600883529281902080548251818502810185019093528083526060949383018282801561156157602002820191906000526020600020906000905b82829054906101000a900460c01b6001600160c01b031916815260200190600801906020826007010492830192600103820291508084116115235790505b50505050509150505b92915050565b606060068054806020026020016040519081016040528092919081815260200182805480156115be57602002820191906000526020600020905b8154815260200190600101908083116115aa575b5050505050905090565b60008181526008602090815260409182902080548351818402810184019094528084526060939283018282801561164b57602002820191906000526020600020906000905b82829054906101000a900460c01b6001600160c01b0319168152602001906008019060208260070104928301926001038202915080841161160d5790505b50505050509050919050565b60005460408051635c975abb60e01b8152905183926001600160a01b031691635c975abb9160048083019260209291908290030181865afa1580156116a0573d6000803e3d6000fd5b505050506040513d601f19601f820116820180604052508101906116c49190612ac7565b15611712576000546001600160a01b0316301480156116f5575063da1f874d60e01b6001600160e01b031960003516145b61171257604051632022058360e01b81526004016103fe90612b16565b6000816040516020016117259190612d0f565b60408051601f19818403018152919052516117409036612d36565b600080549192506001600160a01b039091169063157432e4908490339030906001600160e01b0319813516906117799088903681612d49565b60016040518863ffffffff1660e01b815260040161179d9796959493929190612d89565b600060405180830381865afa1580156117ba573d6000803e3d6000fd5b505050506040513d6000823e601f3d908101601f191682016040526117e29190810190612f01565b506005805460ff60a01b191690556040517fa45f47fdea8a1efdd9029a5691c7f759c32b7c698632b563573e155625d1693390600090a1600180600061182b6060860186612f3b565b600081811061183c5761183c612f8f565b905060200281019061184e9190612fa5565b60405161185c92919061300e565b6040518091039020815260200190815260200160002060006101000a81548160ff021916908315150217905550505050565b60005460408051635c975abb60e01b8152905183926001600160a01b031691635c975abb9160048083019260209291908290030181865afa1580156118d7573d6000803e3d6000fd5b505050506040513d601f19601f820116820180604052508101906118fb9190612ac7565b15611949576000546001600160a01b03163014801561192c575063da1f874d60e01b6001600160e01b031960003516145b61194957604051632022058360e01b81526004016103fe90612b16565b60008160405160200161195c9190612d0f565b60408051601f19818403018152919052516119779036612d36565b600080549192506001600160a01b039091169063157432e4908490339030906001600160e01b0319813516906119b09088903681612d49565b60016040518863ffffffff1660e01b81526004016119d49796959493929190612d89565b600060405180830381865afa1580156119f1573d6000803e3d6000fd5b505050506040513d6000823e601f3d908101601f19168201604052611a199190810190612f01565b506005805460ff60a01b1916600160a01b1790556040517f9e87fac88ff661f02d44f95383c817fece4bce600a3dab7a54406878b965e75290600090a1600180600061182b6060860186612f3b565b600254610100900460ff1615808015611a885750600254600160ff909116105b80611aa25750303b158015611aa2575060025460ff166001145b611abe5760405162461bcd60e51b81526004016103fe906133db565b6002805460ff191660011790558015611ae1576002805461ff0019166101001790555b4360045560058054600080546001600160a01b031916301790556001600160a81b0319166001600160a01b038a161790556040861115611b34576040516330f4936760e21b81526004016103fe9061332a565b611b4060068888612263565b507fdc3627b8a50594a2c055615b1dd1ef69f5dc80de35b405d1550f8bc7276e71ee8787604051611b72929190613376565b60405180910390a160005b84811015611bd6576000868683818110611b9957611b99612f8f565b905060400201803603810190611baf9190613435565b9050611bc381600001518260200151611f88565b5080611bce8161308f565b915050611b7d565b50611c236b61646d696e2d706f6c69637960a01b848480806020026020016040519081016040528093929190818152602001838360200280828437600092019190915250611e2392505050565b611c443063257673b760e11b6b61646d696e2d706f6c69637960a01b611d5f565b611c6530632f5de19560e11b6b61646d696e2d706f6c69637960a01b611d5f565b611c863063077c2fa160e21b6b61646d696e2d706f6c69637960a01b611d5f565b611ca730630175d36760e11b6b61646d696e2d706f6c69637960a01b611d5f565b611cc83063e1b7351f60e01b6b61646d696e2d706f6c69637960a01b611d5f565b611ce93063da1f874d60e01b6b61646d696e2d706f6c69637960a01b611d5f565b611d0a3063282a179560e11b6b61646d696e2d706f6c69637960a01b611d5f565b8015611d55576002805461ff00191690556040517f7f26b83ff96e1f2b6a682f133852f6798a09c465da95921460cefb384740249890611d4c9060019061346a565b60405180910390a15b5050505050505050565b6001600160a01b03831660008181526009602090815260408083206001600160e01b03198716845290915290819020839055518291907fba1ec2dff55a4b0931cf9207c31d493bd27e678b2e15d806c497b820c4dcaeeb90611dc2908690613478565b60405180910390a3505050565b600081604051602001611de2919061348c565b604051602081830303815290604052805190602001209050919050565b6000806000611e0e8585612094565b91509150611e1b816120d9565b509392505050565b81611e41576040516330f4936760e21b81526004016103fe906134ed565b60008281526008602052604090205415611e6e576040516330f4936760e21b81526004016103fe90613528565b8051600003611e90576040516330f4936760e21b81526004016103fe90613565565b6000611e9a61218b565b905060005b8251811015611f015781838281518110611ebb57611ebb612f8f565b602002602001015116838281518110611ed657611ed6612f8f565b6001600160c01b03199092166020928302919091019091015280611ef98161308f565b915050611e9f565b5060008381526008602090815260409091208351611f21928501906122ae565b50827f1c28460e7353d1f76d93ce571bb7bf39c569b19a4c9b2a4c1d7f2c9c95f4c0da83604051611f5291906128d7565b60405180910390a2505050565b600260035403611f815760405162461bcd60e51b81526004016103fe906135a9565b6002600355565b6000611f9261218b565b6001600160a01b0384166000908152600760205260409020549281169290915060c01b6001600160c01b03191661202857600554604051631194768960e31b81526001600160a01b0390911690638ca3b44890611ff590309087906004016135b9565b600060405180830381600087803b15801561200f57600080fd5b505af1158015612023573d6000803e3d6000fd5b505050505b6001600160a01b03831660009081526007602052604090819020805467ffffffffffffffff191660c085901c179055517f5569a0408084fc944688ca5c80f2e2bdd9ff575f048fee482aadafa3d36705ac9061208790859085906135d4565b60405180910390a1505050565b60008082516041036120ca5760208301516040840151606085015160001a6120be878285856121ac565b945094505050506120d2565b506000905060025b9250929050565b60008160048111156120ed576120ed6135ef565b036120f55750565b6001816004811115612109576121096135ef565b036121265760405162461bcd60e51b81526004016103fe90613639565b600281600481111561213a5761213a6135ef565b036121575760405162461bcd60e51b81526004016103fe9061367d565b600381600481111561216b5761216b6135ef565b036121885760405162461bcd60e51b81526004016103fe906136cc565b50565b60065460009061219c906040612d36565b6001600160c01b0319901c919050565b6000807f7fffffffffffffffffffffffffffffff5d576e7357a4501ddfe92f46681b20a08311156121e3575060009050600361225a565b60006001878787876040516000815260200160405260405161220894939291906136e5565b6020604051602081039080840390855afa15801561222a573d6000803e3d6000fd5b5050604051601f1901519150506001600160a01b0381166122535760006001925092505061225a565b9150600090505b94509492505050565b82805482825590600052602060002090810192821561229e579160200282015b8281111561229e578235825591602001919060010190612283565b506122aa929150612357565b5090565b8280548282559060005260206000209060030160049004810192821561229e5791602002820160005b8382111561231b57835183826101000a8154816001600160401b03021916908360c01c021790555092602001926008016020816007010492830192600103026122d7565b801561234e5782816101000a8154906001600160401b03021916905560080160208160070104928301926001030261231b565b50506122aa9291505b5b808211156122aa5760008155600101612358565b60006001600160a01b03821661156a565b6123868161236c565b811461218857600080fd5b803561156a8161237d565b6001600160e01b03198116612386565b803561156a8161239c565b80612386565b803561156a816123b7565b6000608082840312156123dd576123dd600080fd5b50919050565b600080600080608085870312156123fc576123fc600080fd5b60006124088787612391565b9450506020612419878288016123ac565b935050604061242a878288016123bd565b92505060608501356001600160401b0381111561244957612449600080fd5b612455878288016123c8565b91505092959194509250565b60006020828403121561247657612476600080fd5b81356001600160401b0381111561248f5761248f600080fd5b61249b848285016123c8565b949350505050565b805b82525050565b6020810161156a82846124a3565b60008083601f8401126124ce576124ce600080fd5b5081356001600160401b038111156124e8576124e8600080fd5b6020830191508360018202830111156120d2576120d2600080fd5b801515612386565b803561156a81612503565b600080600080600080600060c0888a03121561253457612534600080fd5b87356001600160401b0381111561254d5761254d600080fd5b6125598a828b016123c8565b975050602061256a8a828b01612391565b965050604061257b8a828b01612391565b955050606061258c8a828b016123ac565b94505060808801356001600160401b038111156125ab576125ab600080fd5b6125b78a828b016124b9565b935093505060a06125ca8a828b0161250b565b91505092959891949750929550565b6124a58161236c565b60006125ee83836125d9565b505060200190565b6000612600825190565b80845260209384019383018060005b8381101561263457815161262388826125e2565b97506020830192505060010161260f565b509495945050505050565b6020808252810161265081846125f6565b9392505050565b60008083601f84011261266c5761266c600080fd5b5081356001600160401b0381111561268657612686600080fd5b6020830191508360208202830111156120d2576120d2600080fd5b600080600080606085870312156126ba576126ba600080fd5b60006126c687876123bd565b94505060208501356001600160401b038111156126e5576126e5600080fd5b6126f187828801612657565b935093505060408501356001600160401b0381111561244957612449600080fd5b60008060006040848603121561272a5761272a600080fd5b83356001600160401b0381111561274357612743600080fd5b61274f86828701612657565b935093505060208401356001600160401b0381111561277057612770600080fd5b61277c868287016123c8565b9150509250925092565b60008060006060848603121561279e5761279e600080fd5b60006127aa8686612391565b93505060206127bb868287016123bd565b92505060408401356001600160401b0381111561277057612770600080fd5b8015156124a5565b6020810161156a82846127da565b6001600160c01b03198116612386565b803561156a816127f0565b60008060006060848603121561282357612823600080fd5b600061282f8686612391565b93505060206127bb86828701612800565b6000806040838503121561285657612856600080fd5b60006128628585612391565b9250506020612873858286016123ac565b9150509250929050565b6001600160c01b031981166124a5565b60006125ee838361287d565b60006128a3825190565b80845260209384019383018060005b838110156126345781516128c6888261288d565b9750602083019250506001016128b2565b602080825281016126508184612899565b6000602082840312156128fd576128fd600080fd5b600061249b8484612391565b6020810161156a828461287d565b60006125ee83836124a3565b600061292d825190565b80845260209384019383018060005b838110156126345781516129508882612917565b97506020830192505060010161293c565b602080825281016126508184612923565b60006020828403121561298757612987600080fd5b600061249b84846123bd565b600061156a8261236c565b61238681612993565b803561156a8161299e565b60008083601f8401126129c7576129c7600080fd5b5081356001600160401b038111156129e1576129e1600080fd5b6020830191508360408202830111156120d2576120d2600080fd5b60008060008060008060006080888a031215612a1a57612a1a600080fd5b6000612a268a8a6129a7565b97505060208801356001600160401b03811115612a4557612a45600080fd5b612a518a828b01612657565b965096505060408801356001600160401b03811115612a7257612a72600080fd5b612a7e8a828b016129b2565b945094505060608801356001600160401b03811115612a9f57612a9f600080fd5b612aab8a828b01612657565b925092505092959891949750929550565b805161156a81612503565b600060208284031215612adc57612adc600080fd5b600061249b8484612abc565b6014815260006020820173151a194814da1a595b19081a5cc81c185d5cd95960621b815291505b5060200190565b6020808252810161156a81612ae8565b60006126506020840184612391565b6000808335601e1936859003018112612b5057612b50600080fd5b8381016020810193503591506001600160401b03821115612b7357612b73600080fd5b36829003831315612b8657612b86600080fd5b509250929050565b82818337506000910152565b8183526000602084019350612bb0838584612b8e565b5050601f01601f19160190565b600061265060208401846123bd565b6000808335601e1936859003018112612be757612be7600080fd5b8381016020810193503591506001600160401b03821115612c0a57612c0a600080fd5b602082023603831315612b8657612b86600080fd5b600061249b848484612b9a565b818352600060208401935083602084028101838060005b87811015612c7e578484038952612c5a8284612b35565b612c65868284612c1f565b95506020840160209b909b019a93505050600101612c43565b5091979650505050505050565b600060808301612c9b8380612b26565b612ca585826125d9565b50612cb36020840184612b35565b8583036020870152612cc6838284612b9a565b92505050612cd76040840184612bbd565b612ce460408601826124a3565b50612cf26060840184612bcc565b8583036060870152612d05838284612c2c565b9695505050505050565b602080825281016126508184612c8b565b634e487b7160e01b600052601160045260246000fd5b8181038181111561156a5761156a612d20565b60008085851115612d5c57612d5c600080fd5b83861115612d6c57612d6c600080fd5b5050820193919092039150565b6001600160e01b031981166124a5565b60c08082528101612d9a818a612c8b565b9050612da960208301896125d9565b612db660408301886125d9565b612dc36060830187612d79565b8181036080830152612dd6818587612b9a565b9050612de560a08301846127da565b98975050505050505050565b634e487b7160e01b600052604160045260246000fd5b601f19601f83011681018181106001600160401b0382111715612e2c57612e2c612df1565b6040525050565b6000612e3e60405190565b9050612e4a8282612e07565b919050565b60006001600160401b03821115612e6857612e68612df1565b5060209081020190565b805161156a8161237d565b6000612e90612e8b84612e4f565b612e33565b83815290506020808201908402830185811115612eaf57612eaf600080fd5b835b81811015612ed35780612ec48882612e72565b84525060209283019201612eb1565b5050509392505050565b600082601f830112612ef157612ef1600080fd5b815161249b848260208601612e7d565b600060208284031215612f1657612f16600080fd5b81516001600160401b03811115612f2f57612f2f600080fd5b61249b84828501612edd565b6000808335601e1936859003018112612f5657612f56600080fd5b8084019250823591506001600160401b03821115612f7657612f76600080fd5b60209283019282023603831315612b8657612b86600080fd5b634e487b7160e01b600052603260045260246000fd5b6000808335601e1936859003018112612fc057612fc0600080fd5b8084019250823591506001600160401b03821115612fe057612fe0600080fd5b602083019250600182023603831315612b8657612b86600080fd5b6000613008838584612b8e565b50500190565b600061249b828486612ffb565b6060810161302982876125d9565b818103602083015261303c818587612b9a565b905061304b60408301846124a3565b95945050505050565b80356001600160e01b03191682826004821015613087576130826001600160e01b0319836004036008021b90565b831692505b505092915050565b600060001982036130a2576130a2612d20565b5060010190565b6011815260006020820170086dedce8e4c2c6e840dad2e6dac2e8c6d607b1b81529150612b0f565b6020808252810161156a816130a9565b601181526000602082017008ceadcc6e8d2dedc40dad2e6dac2e8c6d607b1b81529150612b0f565b6020808252810161156a816130e1565b601981526000602082017f417070726f76616c732063616e6e6f7420626520656d7074790000000000000081529150612b0f565b6020808252810161156a81613119565b601d81526000602082017f496e636f7272656374206e756d626572206f6620617070726f76616c7300000081529150612b0f565b6020808252810161156a8161315d565b602281526000602082017f43726564656e7469616c732068617665206265656e207573656420616c726561815261647960f01b602082015291505b5060400190565b6020808252810161156a816131a1565b6020808252810161249b818486612b9a565b601081526000602082016f2837b634b1bc903b34b7b630ba34b7b760811b81529150612b0f565b6020808252810161156a81613205565b602481526000602082017f546865206f776e6572206d75737420626520746865206669727374206170707281526337bb32b960e11b602082015291506131dc565b6020808252810161156a8161323c565b601e81526000602082017f53616d6520616464726573732063616e6e6f74207369676e207477696365000081529150612b0f565b6020808252810161156a8161328d565b8082018082111561156a5761156a612d20565b602981526000602082017f54686520536869656c642063616e6e6f742068617665206d6f7265207468616e81526820363420726f6c657360b81b602082015291506131dc565b6020808252810161156a816132e4565b82818337505050565b81835260006020840193506001600160fb1b0383111561336557613365600080fd5b60208302925061300883858461333a565b6020808252810161249b818486613343565b60008161156a565b602e81526000602082017f496e697469616c697a61626c653a20636f6e747261637420697320616c72656181526d191e481a5b9a5d1a585b1a5e995960921b602082015291506131dc565b6020808252810161156a81613390565b60006040828403121561340057613400600080fd5b61340a6040612e33565b905060006134188484612391565b825250602061342984848301612800565b60208301525092915050565b60006040828403121561344a5761344a600080fd5b600061249b84846133eb565b600060ff821661156a565b6124a581613456565b6020810161156a8284613461565b6020810161156a8284612d79565b806124a5565b7f19457468657265756d205369676e6564204d6573736167653a0a3332000000008152601c0160006134be8284613486565b50602001919050565b600f81526000602082016e155b9919599a5b9959081b1858995b608a1b81529150612b0f565b6020808252810161156a816134c7565b60148152600060208201734c6162656c20616c72656164792065786973747360601b81529150612b0f565b6020808252810161156a816134fd565b6016815260006020820175506f6c6963792063616e6e6f7420626520656d70747960501b81529150612b0f565b6020808252810161156a81613538565b601f81526000602082017f5265656e7472616e637947756172643a207265656e7472616e742063616c6c0081529150612b0f565b6020808252810161156a81613575565b604081016135c782856125d9565b61265060208301846125d9565b604081016135e282856125d9565b612650602083018461287d565b634e487b7160e01b600052602160045260246000fd5b601881526000602082017f45434453413a20696e76616c6964207369676e6174757265000000000000000081529150612b0f565b6020808252810161156a81613605565b601f81526000602082017f45434453413a20696e76616c6964207369676e6174757265206c656e6774680081529150612b0f565b6020808252810161156a81613649565b602281526000602082017f45434453413a20696e76616c6964207369676e6174757265202773272076616c815261756560f01b602082015291506131dc565b6020808252810161156a8161368d565b60ff81166124a5565b608081016136f382876124a3565b61370060208301866136dc565b61370d60408301856124a3565b61304b60608301846124a356fea2646970667358221220f16eeb6b7531dc117ea1298ee72efad2bc4f64868200e5ae26a4662bbc51593564736f6c63430008110033",
    "linkReferences": {},
    "deployedLinkReferences": {}
}