{
  "_format": "hh-sol-artifact-1",
  "contractName": "Shield",
  "sourceName": "contracts/Shield.sol",
  "abi": [
    {
      "inputs": [],
      "stateMutability": "payable",
      "type": "constructor"
    },
    {
      "inputs": [
        {
          "internalType": "string",
          "name": "reason",
          "type": "string"
        }
      ],
      "name": "InvalidCredentials",
      "type": "error"
    },
    {
      "inputs": [
        {
          "internalType": "string",
          "name": "reason",
          "type": "string"
        }
      ],
      "name": "ShieldError",
      "type": "error"
    },
    {
      "anonymous": false,
      "inputs": [
        {
          "indexed": true,
          "internalType": "bytes32",
          "name": "label",
          "type": "bytes32"
        },
        {
          "indexed": false,
          "internalType": "bytes8[]",
          "name": "policy",
          "type": "bytes8[]"
        }
      ],
      "name": "AddPolicy",
      "type": "event"
    },
    {
      "anonymous": false,
      "inputs": [
        {
          "indexed": false,
          "internalType": "bytes32[]",
          "name": "roles",
          "type": "bytes32[]"
        }
      ],
      "name": "AddRoles",
      "type": "event"
    },
    {
      "anonymous": false,
      "inputs": [
        {
          "indexed": true,
          "internalType": "address",
          "name": "to",
          "type": "address"
        },
        {
          "indexed": false,
          "internalType": "bytes4",
          "name": "sig",
          "type": "bytes4"
        },
        {
          "indexed": true,
          "internalType": "bytes32",
          "name": "label",
          "type": "bytes32"
        }
      ],
      "name": "AssignPolicy",
      "type": "event"
    },
    {
      "anonymous": false,
      "inputs": [
        {
          "indexed": false,
          "internalType": "uint8",
          "name": "version",
          "type": "uint8"
        }
      ],
      "name": "Initialized",
      "type": "event"
    },
    {
      "anonymous": false,
      "inputs": [
        {
          "indexed": false,
          "internalType": "address",
          "name": "c",
          "type": "address"
        }
      ],
      "name": "IsShieldable",
      "type": "event"
    },
    {
      "anonymous": false,
      "inputs": [],
      "name": "Paused",
      "type": "event"
    },
    {
      "anonymous": false,
      "inputs": [
        {
          "indexed": true,
          "internalType": "address",
          "name": "addr",
          "type": "address"
        },
        {
          "indexed": false,
          "internalType": "bytes8",
          "name": "roles",
          "type": "bytes8"
        }
      ],
      "name": "SetUser",
      "type": "event"
    },
    {
      "anonymous": false,
      "inputs": [],
      "name": "Unpaused",
      "type": "event"
    },
    {
      "inputs": [
        {
          "internalType": "bytes32",
          "name": "label",
          "type": "bytes32"
        },
        {
          "internalType": "bytes8[]",
          "name": "policy",
          "type": "bytes8[]"
        },
        {
          "components": [
            {
              "internalType": "address",
              "name": "to",
              "type": "address"
            },
            {
              "internalType": "bytes",
              "name": "call",
              "type": "bytes"
            },
            {
              "internalType": "uint256",
              "name": "timestamp",
              "type": "uint256"
            },
            {
              "internalType": "bytes[]",
              "name": "approvals",
              "type": "bytes[]"
            }
          ],
          "internalType": "struct Credentials",
          "name": "credentials",
          "type": "tuple"
        }
      ],
      "name": "addPolicy",
      "outputs": [],
      "stateMutability": "nonpayable",
      "type": "function"
    },
    {
      "inputs": [
        {
          "internalType": "bytes32[]",
          "name": "_roles",
          "type": "bytes32[]"
        },
        {
          "components": [
            {
              "internalType": "address",
              "name": "to",
              "type": "address"
            },
            {
              "internalType": "bytes",
              "name": "call",
              "type": "bytes"
            },
            {
              "internalType": "uint256",
              "name": "timestamp",
              "type": "uint256"
            },
            {
              "internalType": "bytes[]",
              "name": "approvals",
              "type": "bytes[]"
            }
          ],
          "internalType": "struct Credentials",
          "name": "credentials",
          "type": "tuple"
        }
      ],
      "name": "addRoles",
      "outputs": [],
      "stateMutability": "nonpayable",
      "type": "function"
    },
    {
      "inputs": [
        {
          "internalType": "address",
          "name": "to",
          "type": "address"
        },
        {
          "internalType": "bytes4",
          "name": "sig",
          "type": "bytes4"
        },
        {
          "internalType": "bytes32",
          "name": "label",
          "type": "bytes32"
        },
        {
          "components": [
            {
              "internalType": "address",
              "name": "to",
              "type": "address"
            },
            {
              "internalType": "bytes",
              "name": "call",
              "type": "bytes"
            },
            {
              "internalType": "uint256",
              "name": "timestamp",
              "type": "uint256"
            },
            {
              "internalType": "bytes[]",
              "name": "approvals",
              "type": "bytes[]"
            }
          ],
          "internalType": "struct Credentials",
          "name": "credentials",
          "type": "tuple"
        }
      ],
      "name": "assignPolicy",
      "outputs": [],
      "stateMutability": "nonpayable",
      "type": "function"
    },
    {
      "inputs": [
        {
          "components": [
            {
              "internalType": "address",
              "name": "to",
              "type": "address"
            },
            {
              "internalType": "bytes",
              "name": "call",
              "type": "bytes"
            },
            {
              "internalType": "uint256",
              "name": "timestamp",
              "type": "uint256"
            },
            {
              "internalType": "bytes[]",
              "name": "approvals",
              "type": "bytes[]"
            }
          ],
          "internalType": "struct Credentials",
          "name": "credentials",
          "type": "tuple"
        }
      ],
      "name": "burnCredentials",
      "outputs": [],
      "stateMutability": "nonpayable",
      "type": "function"
    },
    {
      "inputs": [
        {
          "internalType": "address",
          "name": "to",
          "type": "address"
        },
        {
          "internalType": "bytes4",
          "name": "sig",
          "type": "bytes4"
        }
      ],
      "name": "getAssignedPolicy",
      "outputs": [
        {
          "internalType": "bytes8[]",
          "name": "",
          "type": "bytes8[]"
        }
      ],
      "stateMutability": "view",
      "type": "function"
    },
    {
      "inputs": [
        {
          "internalType": "bytes32",
          "name": "label",
          "type": "bytes32"
        }
      ],
      "name": "getPolicy",
      "outputs": [
        {
          "internalType": "bytes8[]",
          "name": "",
          "type": "bytes8[]"
        }
      ],
      "stateMutability": "view",
      "type": "function"
    },
    {
      "inputs": [],
      "name": "getRoles",
      "outputs": [
        {
          "internalType": "bytes32[]",
          "name": "",
          "type": "bytes32[]"
        }
      ],
      "stateMutability": "view",
      "type": "function"
    },
    {
      "inputs": [
        {
          "internalType": "address",
          "name": "user",
          "type": "address"
        }
      ],
      "name": "getUser",
      "outputs": [
        {
          "internalType": "bytes8",
          "name": "",
          "type": "bytes8"
        }
      ],
      "stateMutability": "view",
      "type": "function"
    },
    {
      "inputs": [
        {
          "internalType": "bytes32[]",
          "name": "_roles",
          "type": "bytes32[]"
        },
        {
          "components": [
            {
              "internalType": "address",
              "name": "addr",
              "type": "address"
            },
            {
              "internalType": "bytes8",
              "name": "roles",
              "type": "bytes8"
            }
          ],
          "internalType": "struct User[]",
          "name": "_users",
          "type": "tuple[]"
        },
        {
          "internalType": "bytes8[]",
          "name": "policy",
          "type": "bytes8[]"
        }
      ],
      "name": "initialize",
      "outputs": [],
      "stateMutability": "nonpayable",
      "type": "function"
    },
    {
      "inputs": [
        {
          "components": [
            {
              "internalType": "address",
              "name": "to",
              "type": "address"
            },
            {
              "internalType": "bytes",
              "name": "call",
              "type": "bytes"
            },
            {
              "internalType": "uint256",
              "name": "timestamp",
              "type": "uint256"
            },
            {
              "internalType": "bytes[]",
              "name": "approvals",
              "type": "bytes[]"
            }
          ],
          "internalType": "struct Credentials",
          "name": "credentials",
          "type": "tuple"
        },
        {
          "internalType": "address",
          "name": "sender",
          "type": "address"
        },
        {
          "internalType": "address",
          "name": "to",
          "type": "address"
        },
        {
          "internalType": "bytes4",
          "name": "f",
          "type": "bytes4"
        },
        {
          "internalType": "bytes",
          "name": "call",
          "type": "bytes"
        }
      ],
      "name": "partialValidateCredentials",
      "outputs": [
        {
          "internalType": "address[]",
          "name": "",
          "type": "address[]"
        }
      ],
      "stateMutability": "view",
      "type": "function"
    },
    {
      "inputs": [
        {
          "components": [
            {
              "internalType": "address",
              "name": "to",
              "type": "address"
            },
            {
              "internalType": "bytes",
              "name": "call",
              "type": "bytes"
            },
            {
              "internalType": "uint256",
              "name": "timestamp",
              "type": "uint256"
            },
            {
              "internalType": "bytes[]",
              "name": "approvals",
              "type": "bytes[]"
            }
          ],
          "internalType": "struct Credentials",
          "name": "credentials",
          "type": "tuple"
        }
      ],
      "name": "pause",
      "outputs": [],
      "stateMutability": "nonpayable",
      "type": "function"
    },
    {
      "inputs": [],
      "name": "paused",
      "outputs": [
        {
          "internalType": "bool",
          "name": "",
          "type": "bool"
        }
      ],
      "stateMutability": "view",
      "type": "function"
    },
    {
      "inputs": [
        {
          "internalType": "address",
          "name": "addr",
          "type": "address"
        },
        {
          "internalType": "bytes8",
          "name": "_roles",
          "type": "bytes8"
        },
        {
          "components": [
            {
              "internalType": "address",
              "name": "to",
              "type": "address"
            },
            {
              "internalType": "bytes",
              "name": "call",
              "type": "bytes"
            },
            {
              "internalType": "uint256",
              "name": "timestamp",
              "type": "uint256"
            },
            {
              "internalType": "bytes[]",
              "name": "approvals",
              "type": "bytes[]"
            }
          ],
          "internalType": "struct Credentials",
          "name": "credentials",
          "type": "tuple"
        }
      ],
      "name": "setUser",
      "outputs": [],
      "stateMutability": "nonpayable",
      "type": "function"
    },
    {
      "inputs": [
        {
          "internalType": "address payable",
          "name": "_to",
          "type": "address"
        },
        {
          "internalType": "uint256",
          "name": "amount",
          "type": "uint256"
        },
        {
          "components": [
            {
              "internalType": "address",
              "name": "to",
              "type": "address"
            },
            {
              "internalType": "bytes",
              "name": "call",
              "type": "bytes"
            },
            {
              "internalType": "uint256",
              "name": "timestamp",
              "type": "uint256"
            },
            {
              "internalType": "bytes[]",
              "name": "approvals",
              "type": "bytes[]"
            }
          ],
          "internalType": "struct Credentials",
          "name": "credentials",
          "type": "tuple"
        }
      ],
      "name": "transfer",
      "outputs": [],
      "stateMutability": "payable",
      "type": "function"
    },
    {
      "inputs": [
        {
          "components": [
            {
              "internalType": "address",
              "name": "to",
              "type": "address"
            },
            {
              "internalType": "bytes",
              "name": "call",
              "type": "bytes"
            },
            {
              "internalType": "uint256",
              "name": "timestamp",
              "type": "uint256"
            },
            {
              "internalType": "bytes[]",
              "name": "approvals",
              "type": "bytes[]"
            }
          ],
          "internalType": "struct Credentials",
          "name": "credentials",
          "type": "tuple"
        }
      ],
      "name": "unpause",
      "outputs": [],
      "stateMutability": "nonpayable",
      "type": "function"
    },
    {
      "inputs": [
        {
          "components": [
            {
              "internalType": "address",
              "name": "to",
              "type": "address"
            },
            {
              "internalType": "bytes",
              "name": "call",
              "type": "bytes"
            },
            {
              "internalType": "uint256",
              "name": "timestamp",
              "type": "uint256"
            },
            {
              "internalType": "bytes[]",
              "name": "approvals",
              "type": "bytes[]"
            }
          ],
          "internalType": "struct Credentials",
          "name": "credentials",
          "type": "tuple"
        },
        {
          "internalType": "address",
          "name": "sender",
          "type": "address"
        },
        {
          "internalType": "address",
          "name": "to",
          "type": "address"
        },
        {
          "internalType": "bytes4",
          "name": "f",
          "type": "bytes4"
        },
        {
          "internalType": "bytes",
          "name": "call",
          "type": "bytes"
        }
      ],
      "name": "validateCredentials",
      "outputs": [
        {
          "internalType": "address[]",
          "name": "",
          "type": "address[]"
        }
      ],
      "stateMutability": "view",
      "type": "function"
    }
  ],
  "bytecode": "0x60806040819052600080546001600160a01b03191630908117909155907f63e9224e63cb34d86b43ad704e00293889c168d42800490986f06bbd4809b065906200004b9083906200011b565b60405180910390a15060016003556200006362000069565b62000191565b600254610100900460ff16156200009d5760405162461bcd60e51b815260040162000094906200012b565b60405180910390fd5b60025460ff9081161015620000f5576002805460ff191660ff9081179091556040517f7f26b83ff96e1f2b6a682f133852f6798a09c465da95921460cefb384740249891620000ec9162000181565b60405180910390a15b565b60006001600160a01b0382165b92915050565b6200011581620000f7565b82525050565b602081016200010482846200010a565b602080825281016200010481602781527f496e697469616c697a61626c653a20636f6e747261637420697320696e697469602082015266616c697a696e6760c81b604082015260600190565b60ff811662000115565b6020810162000104828462000177565b6135ff80620001a16000396000f3fe6080604052600436106100f35760003560e01c80635ebbc32a1161008a578063a3f685f911610059578063a3f685f9146102bf578063da1f874d146102df578063dd4f120e146102ff578063e1b7351f1461031f57600080fd5b80635ebbc32a1461020a5780636bc498711461022a5780636f77926b14610257578063710613981461029d57600080fd5b80634aece76e116100c65780634aece76e146101905780634c485a22146101b057806350542f2a146101d05780635c975abb146101e357600080fd5b806302eba6ce146100f857806303289bfb1461011a5780631df0be841461013a5780632f82f58a1461015a575b600080fd5b34801561010457600080fd5b5061011861011336600461240a565b61033f565b005b34801561012657600080fd5b506101186101353660046124a3565b610534565b34801561014657600080fd5b5061011861015536600461256d565b61076c565b34801561016657600080fd5b5061017a6101753660046125f1565b610956565b6040516101879190612708565b60405180910390f35b34801561019c57600080fd5b506101186101ab366004612795565b6109a6565b3480156101bc57600080fd5b5061017a6101cb3660046125f1565b610c3e565b6101186101de366004612805565b610c5b565b3480156101ef57600080fd5b506004546101fd9060ff1681565b6040516101879190612842565b34801561021657600080fd5b50610118610225366004612850565b610eb7565b34801561023657600080fd5b5061024a610245366004612885565b61104a565b6040516101879190612912565b34801561026357600080fd5b50610290610272366004612923565b6001600160a01b031660009081526006602052604090205460c01b90565b6040516101879190612944565b3480156102a957600080fd5b506102b2611103565b60405161018791906129a2565b3480156102cb57600080fd5b5061024a6102da3660046129b3565b61115b565b3480156102eb57600080fd5b506101186102fa3660046129d4565b6111ea565b34801561030b57600080fd5b5061011861031a366004612acf565b6113fb565b34801561032b57600080fd5b5061011861033a3660046129d4565b61168f565b60005460408051635c975abb60e01b8152905183926001600160a01b031691635c975abb9160048083019260209291908290030181865afa158015610388573d6000803e3d6000fd5b505050506040513d601f19601f820116820180604052508101906103ac9190612b75565b15610403576000546001600160a01b0316301480156103dd575063da1f874d60e01b6001600160e01b031960003516145b61040357604051632022058360e01b81526004016103fa90612bc4565b60405180910390fd5b6000816040516020016104169190612cf7565b60408051601f19818403018152919052516104319036612d1e565b600080549192506001600160a01b0390911690632f82f58a908490339030906001600160e01b03198135169061046a9088903681612d31565b6040518763ffffffff1660e01b815260040161048b96959493929190612d94565b600060405180830381865afa1580156104a8573d6000803e3d6000fd5b505050506040513d6000823e601f3d908101601f191682016040526104d09190810190612e6d565b506104dc86868661186a565b600180600084606001516000815181106104f8576104f8612ea7565b602002602001015180519060200120815260200190815260200160002060006101000a81548160ff021916908315150217905550505050505050565b60006105436020830183612923565b6105506020840184612ebd565b84604001356040516020016105689493929190612f1b565b60408051601f198184030181529190528051602090910120905060006105fd6105946060850185612f4b565b60008181106105a5576105a5612ea7565b90506020028101906105b79190612ebd565b8080601f0160208091040260200160405190810160405280939291908181526020018383808284376000920191909152506105f792508691506118da9050565b9061190a565b905060006106366106116020860186612923565b61061e6020870187612ebd565b61062d91600491600091612d31565b61024591612f9f565b9050600061069d61064686612fda565b846106546020890189612923565b61066160208a018a612ebd565b8080601f01602080910402602001604051908101604052809392919081815260200183838082843760009201919091525089925061192e915050565b905060005b815181101561076457336001600160a01b03168282815181106106c7576106c7612ea7565b60200260200101516001600160a01b0316036107525760018060006106ef60608a018a612f4b565b600081811061070057610700612ea7565b90506020028101906107129190612ebd565b604051610720929190612ff9565b6040518091039020815260200190815260200160002060006101000a81548160ff021916908315150217905550610764565b8061075c81613006565b9150506106a2565b505050505050565b60005460408051635c975abb60e01b8152905183926001600160a01b031691635c975abb9160048083019260209291908290030181865afa1580156107b5573d6000803e3d6000fd5b505050506040513d601f19601f820116820180604052508101906107d99190612b75565b15610827576000546001600160a01b03163014801561080a575063da1f874d60e01b6001600160e01b031960003516145b61082757604051632022058360e01b81526004016103fa90612bc4565b60008160405160200161083a9190612cf7565b60408051601f19818403018152919052516108559036612d1e565b600080549192506001600160a01b0390911690632f82f58a908490339030906001600160e01b03198135169061088e9088903681612d31565b6040518763ffffffff1660e01b81526004016108af96959493929190612d94565b600060405180830381865afa1580156108cc573d6000803e3d6000fd5b505050506040513d6000823e601f3d908101601f191682016040526108f49190810190612e6d565b506108ff8585611ca3565b6001806000846060015160008151811061091b5761091b612ea7565b602002602001015180519060200120815260200190815260200160002060006101000a81548160ff0219169083151502179055505050505050565b60606000610964858561104a565b905080518760600151511461098c57604051632022058360e01b81526004016103fa90613054565b610999878787868561192e565b9150505b95945050505050565b60005460408051635c975abb60e01b8152905183926001600160a01b031691635c975abb9160048083019260209291908290030181865afa1580156109ef573d6000803e3d6000fd5b505050506040513d601f19601f82011682018060405250810190610a139190612b75565b15610a61576000546001600160a01b031630148015610a44575063da1f874d60e01b6001600160e01b031960003516145b610a6157604051632022058360e01b81526004016103fa90612bc4565b600081604051602001610a749190612cf7565b60408051601f1981840301815291905251610a8f9036612d1e565b600080549192506001600160a01b0390911690632f82f58a908490339030906001600160e01b031981351690610ac89088903681612d31565b6040518763ffffffff1660e01b8152600401610ae996959493929190612d94565b600060405180830381865afa158015610b06573d6000803e3d6000fd5b505050506040513d6000823e601f3d908101601f19168201604052610b2e9190810190612e6d565b508351600554604091610b4091613064565b1115610b5f576040516330f4936760e21b81526004016103fa906130c0565b60005b8451811015610bb0576005858281518110610b7f57610b7f612ea7565b6020908102919091018101518254600181018455600093845291909220015580610ba881613006565b915050610b62565b507f544546aff9600397e6304978c08ffb59b1b0fd446d1a4abf65aecf26b76ae86184604051610be091906129a2565b60405180910390a160018060008460600151600081518110610c0457610c04612ea7565b602002602001015180519060200120815260200190815260200160002060006101000a81548160ff02191690831515021790555050505050565b60606000610c4c858561104a565b9050610999878787868561192e565b610c63611ddf565b60005460408051635c975abb60e01b8152905183926001600160a01b031691635c975abb9160048083019260209291908290030181865afa158015610cac573d6000803e3d6000fd5b505050506040513d601f19601f82011682018060405250810190610cd09190612b75565b15610d1e576000546001600160a01b031630148015610d01575063da1f874d60e01b6001600160e01b031960003516145b610d1e57604051632022058360e01b81526004016103fa90612bc4565b600081604051602001610d319190612cf7565b60408051601f1981840301815291905251610d4c9036612d1e565b600080549192506001600160a01b0390911690632f82f58a908490339030906001600160e01b031981351690610d859088903681612d31565b6040518763ffffffff1660e01b8152600401610da696959493929190612d94565b600060405180830381865afa158015610dc3573d6000803e3d6000fd5b505050506040513d6000823e601f3d908101601f19168201604052610deb9190810190612e6d565b506000856001600160a01b031685604051610e05906130d0565b60006040518083038185875af1925050503d8060008114610e42576040519150601f19603f3d011682016040523d82523d6000602084013e610e47565b606091505b5050905080610e5557600080fd5b5060018060008460600151600081518110610e7257610e72612ea7565b602002602001015180519060200120815260200190815260200160002060006101000a81548160ff0219169083151502179055505050610eb26001600355565b505050565b60005460408051635c975abb60e01b8152905183926001600160a01b031691635c975abb9160048083019260209291908290030181865afa158015610f00573d6000803e3d6000fd5b505050506040513d601f19601f82011682018060405250810190610f249190612b75565b15610f72576000546001600160a01b031630148015610f55575063da1f874d60e01b6001600160e01b031960003516145b610f7257604051632022058360e01b81526004016103fa90612bc4565b600081604051602001610f859190612cf7565b60408051601f1981840301815291905251610fa09036612d1e565b600080549192506001600160a01b0390911690632f82f58a908490339030906001600160e01b031981351690610fd99088903681612d31565b6040518763ffffffff1660e01b8152600401610ffa96959493929190612d94565b600060405180830381865afa158015611017573d6000803e3d6000fd5b505050506040513d6000823e601f3d908101601f1916820160405261103f9190810190612e6d565b506108ff8585611e08565b6001600160a01b03821660009081526008602090815260408083206001600160e01b03198516845282528083205480845260078352928190208054825181850281018501909352808352606094938301828280156110f457602002820191906000526020600020906000905b82829054906101000a900460c01b6001600160c01b031916815260200190600801906020826007010492830192600103820291508084116110b65790505b50505050509150505b92915050565b6060600580548060200260200160405190810160405280929190818152602001828054801561115157602002820191906000526020600020905b81548152602001906001019080831161113d575b5050505050905090565b6000818152600760209081526040918290208054835181840281018401909452808452606093928301828280156111de57602002820191906000526020600020906000905b82829054906101000a900460c01b6001600160c01b031916815260200190600801906020826007010492830192600103820291508084116111a05790505b50505050509050919050565b60005460408051635c975abb60e01b8152905183926001600160a01b031691635c975abb9160048083019260209291908290030181865afa158015611233573d6000803e3d6000fd5b505050506040513d601f19601f820116820180604052508101906112579190612b75565b156112a5576000546001600160a01b031630148015611288575063da1f874d60e01b6001600160e01b031960003516145b6112a557604051632022058360e01b81526004016103fa90612bc4565b6000816040516020016112b89190612cf7565b60408051601f19818403018152919052516112d39036612d1e565b600080549192506001600160a01b0390911690632f82f58a908490339030906001600160e01b03198135169061130c9088903681612d31565b6040518763ffffffff1660e01b815260040161132d96959493929190612d94565b600060405180830381865afa15801561134a573d6000803e3d6000fd5b505050506040513d6000823e601f3d908101601f191682016040526113729190810190612e6d565b506004805460ff191690556040517fa45f47fdea8a1efdd9029a5691c7f759c32b7c698632b563573e155625d1693390600090a1600180600084606001516000815181106113c2576113c2612ea7565b602002602001015180519060200120815260200190815260200160002060006101000a81548160ff021916908315150217905550505050565b600254610100900460ff161580801561141b5750600254600160ff909116105b806114355750303b158015611435575060025460ff166001145b6114515760405162461bcd60e51b81526004016103fa90613123565b6002805460ff191660011790558015611474576002805461ff0019166101001790555b600080546001600160a01b031916301790556004805460ff191690558351604010156114b3576040516330f4936760e21b81526004016103fa906130c0565b83516114c6906005906020870190612048565b507f544546aff9600397e6304978c08ffb59b1b0fd446d1a4abf65aecf26b76ae861846040516114f691906129a2565b60405180910390a160005b835181101561154d57600084828151811061151e5761151e612ea7565b6020026020010151905061153a81600001518260200151611e08565b508061154581613006565b915050611501565b506115656961646d696e2d72756c6560b01b83611ca3565b6115843063257673b760e11b6961646d696e2d72756c6560b01b61186a565b6115a330632f5de19560e11b6961646d696e2d72756c6560b01b61186a565b6115c23063077c2fa160e21b6961646d696e2d72756c6560b01b61186a565b6115e130630175d36760e11b6961646d696e2d72756c6560b01b61186a565b6116003063e1b7351f60e01b6961646d696e2d72756c6560b01b61186a565b61161f3063da1f874d60e01b6961646d696e2d72756c6560b01b61186a565b61163e3063282a179560e11b6961646d696e2d72756c6560b01b61186a565b8015611689576002805461ff00191690556040517f7f26b83ff96e1f2b6a682f133852f6798a09c465da95921460cefb38474024989061168090600190613147565b60405180910390a15b50505050565b60005460408051635c975abb60e01b8152905183926001600160a01b031691635c975abb9160048083019260209291908290030181865afa1580156116d8573d6000803e3d6000fd5b505050506040513d601f19601f820116820180604052508101906116fc9190612b75565b1561174a576000546001600160a01b03163014801561172d575063da1f874d60e01b6001600160e01b031960003516145b61174a57604051632022058360e01b81526004016103fa90612bc4565b60008160405160200161175d9190612cf7565b60408051601f19818403018152919052516117789036612d1e565b600080549192506001600160a01b0390911690632f82f58a908490339030906001600160e01b0319813516906117b19088903681612d31565b6040518763ffffffff1660e01b81526004016117d296959493929190612d94565b600060405180830381865afa1580156117ef573d6000803e3d6000fd5b505050506040513d6000823e601f3d908101601f191682016040526118179190810190612e6d565b506004805460ff191660011790556040517f9e87fac88ff661f02d44f95383c817fece4bce600a3dab7a54406878b965e75290600090a1600180600084606001516000815181106113c2576113c2612ea7565b6001600160a01b03831660008181526008602090815260408083206001600160e01b03198716845290915290819020839055518291907fb95d268dea281d3c04b7bfc67a18329d597c04f2c4a339d9507f286135bf8166906118cd908690613155565b60405180910390a3505050565b6000816040516020016118ed9190613163565b604051602081830303815290604052805190602001209050919050565b60008060006119198585611e79565b9150915061192681611ebe565b509392505050565b606060016000876060015160008151811061194b5761194b612ea7565b60209081029190910181015180519082012082528101919091526040016000205460ff161561198d57604051632022058360e01b81526004016103fa906131dc565b836001600160a01b031686600001516001600160a01b0316146119c357604051632022058360e01b81526004016103fa90613214565b8560200151805190602001208380519060200120146119f557604051632022058360e01b81526004016103fa9061324c565b856060015151600003611a1b57604051632022058360e01b81526004016103fa90613290565b60008660600151516001600160401b03811115611a3a57611a3a6121ad565b604051908082528060200260200182016040528015611a63578160200160208202803683370190505b50905060005b876060015151811015611c9857600088606001518281518110611a8e57611a8e612ea7565b60200260200101519050600082600003611ada5789516020808c01516040808e01519051611abd9493016132a0565b604051602081830303815290604052805190602001209050611b2b565b60608a0151611aea600185612d1e565b81518110611afa57611afa612ea7565b6020026020010151604051602001611b1291906132cf565b6040516020818303038152906040528051906020012090505b6000611b3a836105f7846118da565b90506000878581518110611b5057611b50612ea7565b6020026020010151611b7a836001600160a01b031660009081526006602052604090205460c01b90565b166001600160c01b031916905080611ba557604051632022058360e01b81526004016103fa90613307565b84600003611be4578a6001600160a01b0316826001600160a01b031614611bdf57604051632022058360e01b81526004016103fa90613358565b611c4e565b60005b85811015611c4c57826001600160a01b0316878281518110611c0b57611c0b612ea7565b60200260200101516001600160a01b031603611c3a57604051632022058360e01b81526004016103fa9061339c565b80611c4481613006565b915050611be7565b505b81868681518110611c6157611c61612ea7565b60200260200101906001600160a01b031690816001600160a01b031681525050505050508080611c9090613006565b915050611a69565b509695505050505050565b81611cc1576040516330f4936760e21b81526004016103fa906133d2565b60008281526007602052604090205415611cee576040516330f4936760e21b81526004016103fa9061340d565b8051600003611d10576040516330f4936760e21b81526004016103fa9061344a565b6000611d1a611f70565b905060005b8251811015611d815781838281518110611d3b57611d3b612ea7565b602002602001015116838281518110611d5657611d56612ea7565b6001600160c01b03199092166020928302919091019091015280611d7981613006565b915050611d1f565b5060008381526007602090815260409091208351611da192850190612093565b50827ff92ed10a3a76164320f8908b68fbaa7925655941e20b9aa3d8e283f5826571c083604051611dd29190612912565b60405180910390a2505050565b600260035403611e015760405162461bcd60e51b81526004016103fa9061348e565b6002600355565b6000611e12611f70565b6001600160a01b03841660008181526006602052604090819020805467ffffffffffffffff191695841660c081901c96909617905551919250907f90ec3f76a8fc645fd9c626ef88dbeb60faff67f6a505e97861bb77558abf028f90611dd2908590612944565b6000808251604103611eaf5760208301516040840151606085015160001a611ea387828585611f91565b94509450505050611eb7565b506000905060025b9250929050565b6000816004811115611ed257611ed261349e565b03611eda5750565b6001816004811115611eee57611eee61349e565b03611f0b5760405162461bcd60e51b81526004016103fa906134e8565b6002816004811115611f1f57611f1f61349e565b03611f3c5760405162461bcd60e51b81526004016103fa9061352c565b6003816004811115611f5057611f5061349e565b03611f6d5760405162461bcd60e51b81526004016103fa9061357b565b50565b600554600090611f81906040612d1e565b6001600160c01b0319901c919050565b6000807f7fffffffffffffffffffffffffffffff5d576e7357a4501ddfe92f46681b20a0831115611fc8575060009050600361203f565b600060018787878760405160008152602001604052604051611fed9493929190613594565b6020604051602081039080840390855afa15801561200f573d6000803e3d6000fd5b5050604051601f1901519150506001600160a01b0381166120385760006001925092505061203f565b9150600090505b94509492505050565b828054828255906000526020600020908101928215612083579160200282015b82811115612083578251825591602001919060010190612068565b5061208f92915061213c565b5090565b828054828255906000526020600020906003016004900481019282156120835791602002820160005b8382111561210057835183826101000a8154816001600160401b03021916908360c01c021790555092602001926008016020816007010492830192600103026120bc565b80156121335782816101000a8154906001600160401b030219169055600801602081600701049283019260010302612100565b505061208f9291505b5b8082111561208f576000815560010161213d565b60006001600160a01b0382166110fd565b61216b81612151565b8114611f6d57600080fd5b80356110fd81612162565b6001600160e01b0319811661216b565b80356110fd81612181565b8061216b565b80356110fd8161219c565b634e487b7160e01b600052604160045260246000fd5b601f19601f83011681018181106001600160401b03821117156121e8576121e86121ad565b6040525050565b60006121fa60405190565b905061220682826121c3565b919050565b60006001600160401b03821115612224576122246121ad565b601f19601f83011660200192915050565b82818337506000910152565b600061225461224f8461220b565b6121ef565b90508281526020810184848401111561226f5761226f600080fd5b611926848285612235565b600082601f83011261228e5761228e600080fd5b813561229e848260208601612241565b949350505050565b60006001600160401b038211156122bf576122bf6121ad565b5060209081020190565b60006122d761224f846122a6565b838152905060208082019084028301858111156122f6576122f6600080fd5b835b818110156123365780356001600160401b0381111561231957612319600080fd5b808601612326898261227a565b85525050602092830192016122f8565b5050509392505050565b600082601f83011261235457612354600080fd5b813561229e8482602086016122c9565b60006080828403121561237957612379600080fd5b61238360806121ef565b905060006123918484612176565b82525060208201356001600160401b038111156123b0576123b0600080fd5b6123bc8482850161227a565b60208301525060406123d0848285016121a2565b60408301525060608201356001600160401b038111156123f2576123f2600080fd5b6123fe84828501612340565b60608301525092915050565b6000806000806080858703121561242357612423600080fd5b600061242f8787612176565b945050602061244087828801612191565b9350506040612451878288016121a2565b92505060608501356001600160401b0381111561247057612470600080fd5b61247c87828801612364565b91505092959194509250565b60006080828403121561249d5761249d600080fd5b50919050565b6000602082840312156124b8576124b8600080fd5b81356001600160401b038111156124d1576124d1600080fd5b61229e84828501612488565b6001600160c01b0319811661216b565b80356110fd816124dd565b600061250661224f846122a6565b8381529050602080820190840283018581111561252557612525600080fd5b835b81811015612336578061253a88826124ed565b84525060209283019201612527565b600082601f83011261255d5761255d600080fd5b813561229e8482602086016124f8565b60008060006060848603121561258557612585600080fd5b600061259186866121a2565b93505060208401356001600160401b038111156125b0576125b0600080fd5b6125bc86828701612549565b92505060408401356001600160401b038111156125db576125db600080fd5b6125e786828701612364565b9150509250925092565b600080600080600060a0868803121561260c5761260c600080fd5b85356001600160401b0381111561262557612625600080fd5b61263188828901612364565b955050602061264288828901612176565b945050604061265388828901612176565b935050606061266488828901612191565b92505060808601356001600160401b0381111561268357612683600080fd5b61268f8882890161227a565b9150509295509295909350565b6126a581612151565b82525050565b60006126b7838361269c565b505060200190565b60006126c9825190565b80845260209384019383018060005b838110156126fd5781516126ec88826126ab565b9750602083019250506001016126d8565b509495945050505050565b6020808252810161271981846126bf565b9392505050565b600061272e61224f846122a6565b8381529050602080820190840283018581111561274d5761274d600080fd5b835b81811015612336578061276288826121a2565b8452506020928301920161274f565b600082601f83011261278557612785600080fd5b813561229e848260208601612720565b600080604083850312156127ab576127ab600080fd5b82356001600160401b038111156127c4576127c4600080fd5b6127d085828601612771565b92505060208301356001600160401b038111156127ef576127ef600080fd5b6127fb85828601612364565b9150509250929050565b60008060006060848603121561281d5761281d600080fd5b60006128298686612176565b93505060206125bc868287016121a2565b8015156126a5565b602081016110fd828461283a565b60008060006060848603121561286857612868600080fd5b60006128748686612176565b93505060206125bc868287016124ed565b6000806040838503121561289b5761289b600080fd5b60006128a78585612176565b92505060206127fb85828601612191565b6001600160c01b031981166126a5565b60006126b783836128b8565b60006128de825190565b80845260209384019383018060005b838110156126fd57815161290188826128c8565b9750602083019250506001016128ed565b6020808252810161271981846128d4565b60006020828403121561293857612938600080fd5b600061229e8484612176565b602081016110fd82846128b8565b806126a5565b60006126b78383612952565b600061296e825190565b80845260209384019383018060005b838110156126fd5781516129918882612958565b97506020830192505060010161297d565b602080825281016127198184612964565b6000602082840312156129c8576129c8600080fd5b600061229e84846121a2565b6000602082840312156129e9576129e9600080fd5b81356001600160401b03811115612a0257612a02600080fd5b61229e84828501612364565b600060408284031215612a2357612a23600080fd5b612a2d60406121ef565b90506000612a3b8484612176565b8252506020612a4c848483016124ed565b60208301525092915050565b6000612a6661224f846122a6565b83815290506020810160408402830185811115612a8557612a85600080fd5b835b818110156123365780612a9a8882612a0e565b845250602090920191604001612a87565b600082601f830112612abf57612abf600080fd5b813561229e848260208601612a58565b600080600060608486031215612ae757612ae7600080fd5b83356001600160401b03811115612b0057612b00600080fd5b612b0c86828701612771565b93505060208401356001600160401b03811115612b2b57612b2b600080fd5b612b3786828701612aab565b92505060408401356001600160401b03811115612b5657612b56600080fd5b6125e786828701612549565b80151561216b565b80516110fd81612b62565b600060208284031215612b8a57612b8a600080fd5b600061229e8484612b6a565b6014815260006020820173151a194814da1a595b19081a5cc81c185d5cd95960621b815291505b5060200190565b602080825281016110fd81612b96565b60005b83811015612bef578181015183820152602001612bd7565b50506000910152565b6000612c02825190565b808452602084019350612c19818560208601612bd4565b601f19601f8201165b9093019392505050565b60006127198383612bf8565b6000612c42825190565b80845260208401935083602082028501612c5c8560200190565b8060005b85811015612c915784840389528151612c798582612c2c565b94506020830160209a909a0199925050600101612c60565b5091979650505050505050565b80516000906080840190612cb2858261269c565b5060208301518482036020860152612cca8282612bf8565b9150506040830151612cdf6040860182612952565b506060830151848203606086015261099d8282612c38565b602080825281016127198184612c9e565b634e487b7160e01b600052601160045260246000fd5b818103818111156110fd576110fd612d08565b60008085851115612d4457612d44600080fd5b83861115612d5457612d54600080fd5b5050820193919092039150565b6001600160e01b031981166126a5565b8183526000602084019350612d87838584612235565b601f19601f840116612c22565b60a08082528101612da58189612c9e565b9050612db4602083018861269c565b612dc1604083018761269c565b612dce6060830186612d61565b8181036080830152612de1818486612d71565b98975050505050505050565b80516110fd81612162565b6000612e0661224f846122a6565b83815290506020808201908402830185811115612e2557612e25600080fd5b835b818110156123365780612e3a8882612ded565b84525060209283019201612e27565b600082601f830112612e5d57612e5d600080fd5b815161229e848260208601612df8565b600060208284031215612e8257612e82600080fd5b81516001600160401b03811115612e9b57612e9b600080fd5b61229e84828501612e49565b634e487b7160e01b600052603260045260246000fd5b6000808335601e1936859003018112612ed857612ed8600080fd5b8084019250823591506001600160401b03821115612ef857612ef8600080fd5b602083019250600182023603831315612f1357612f13600080fd5b509250929050565b60608101612f29828761269c565b8181036020830152612f3c818587612d71565b905061099d6040830184612952565b6000808335601e1936859003018112612f6657612f66600080fd5b8084019250823591506001600160401b03821115612f8657612f86600080fd5b60209283019282023603831315612f1357612f13600080fd5b80356001600160e01b03191682826004821015612fd257612fcd6001600160e01b0319836004036008021b90565b831692505b505092915050565b60006110fd3683612364565b6000612ff3838584612235565b50500190565b600061229e828486612fe6565b6000600019820361301957613019612d08565b5060010190565b601d81526000602082017f496e636f7272656374206e756d626572206f6620617070726f76616c7300000081529150612bbd565b602080825281016110fd81613020565b808201808211156110fd576110fd612d08565b602981526000602082017f54686520536869656c642063616e6e6f742068617665206d6f7265207468616e81526820363420726f6c657360b81b602082015291505b5060400190565b602080825281016110fd81613077565b6000816110fd565b602e81526000602082017f496e697469616c697a61626c653a20636f6e747261637420697320616c72656181526d191e481a5b9a5d1a585b1a5e995960921b602082015291506130b9565b602080825281016110fd816130d8565b600060ff82166110fd565b6126a581613133565b602081016110fd828461313e565b602081016110fd8284612d61565b7f19457468657265756d205369676e6564204d6573736167653a0a3332000000008152601c0160006131958284612952565b50602001919050565b602181526000602082017f43726564656e7469616c7320686173206265656e207573656420616c726561648152607960f81b602082015291506130b9565b602080825281016110fd8161319e565b6011815260006020820170086dedce8e4c2c6e840dad2e6dac2e8c6d607b1b81529150612bbd565b602080825281016110fd816131ec565b601181526000602082017008ceadcc6e8d2dedc40dad2e6dac2e8c6d607b1b81529150612bbd565b602080825281016110fd81613224565b601981526000602082017f417070726f76616c732063616e6e6f7420626520656d7074790000000000000081529150612bbd565b602080825281016110fd8161325c565b606081016132ae828661269c565b81810360208301526132c08185612bf8565b905061229e6040830184612952565b602080825281016127198184612bf8565b601081526000602082016f2837b634b1bc903b34b7b630ba34b7b760811b81529150612bbd565b602080825281016110fd816132e0565b602481526000602082017f546865206f776e6572206d75737420626520746865206669727374206170707281526337bb32b960e11b602082015291506130b9565b602080825281016110fd81613317565b601e81526000602082017f53616d6520616464726573732063616e6e6f74207369676e207477696365000081529150612bbd565b602080825281016110fd81613368565b600f81526000602082016e155b9919599a5b9959081b1858995b608a1b81529150612bbd565b602080825281016110fd816133ac565b60148152600060208201734c6162656c20616c72656164792065786973747360601b81529150612bbd565b602080825281016110fd816133e2565b6016815260006020820175506f6c6963792063616e6e6f7420626520656d70747960501b81529150612bbd565b602080825281016110fd8161341d565b601f81526000602082017f5265656e7472616e637947756172643a207265656e7472616e742063616c6c0081529150612bbd565b602080825281016110fd8161345a565b634e487b7160e01b600052602160045260246000fd5b601881526000602082017f45434453413a20696e76616c6964207369676e6174757265000000000000000081529150612bbd565b602080825281016110fd816134b4565b601f81526000602082017f45434453413a20696e76616c6964207369676e6174757265206c656e6774680081529150612bbd565b602080825281016110fd816134f8565b602281526000602082017f45434453413a20696e76616c6964207369676e6174757265202773272076616c815261756560f01b602082015291506130b9565b602080825281016110fd8161353c565b60ff81166126a5565b608081016135a28287612952565b6135af602083018661358b565b6135bc6040830185612952565b61099d606083018461295256fea2646970667358221220a0652ac0aba61710ae0383726248337c3f9aed59a272a77987af679b2b43151064736f6c63430008110033",
  "linkReferences": {},
  "deployedLinkReferences": {}
}