{
  "_format": "hh-sol-artifact-1",
  "contractName": "WalletExampleWithShield",
  "sourceName": "contracts/WalletExampleWithShield.sol",
  "abi": [
    {
      "inputs": [
        {
          "internalType": "contract Shield",
          "name": "shield",
          "type": "address"
        }
      ],
      "stateMutability": "payable",
      "type": "constructor"
    },
    {
      "inputs": [
        {
          "internalType": "string",
          "name": "reason",
          "type": "string"
        }
      ],
      "name": "InvalidCredentials",
      "type": "error"
    },
    {
      "anonymous": false,
      "inputs": [
        {
          "indexed": false,
          "internalType": "address",
          "name": "shieldable",
          "type": "address"
        },
        {
          "indexed": false,
          "internalType": "address",
          "name": "shield",
          "type": "address"
        }
      ],
      "name": "ShieldableDeployed",
      "type": "event"
    },
    {
      "inputs": [
        {
          "internalType": "bytes32",
          "name": "",
          "type": "bytes32"
        }
      ],
      "name": "canceled",
      "outputs": [
        {
          "internalType": "bool",
          "name": "",
          "type": "bool"
        }
      ],
      "stateMutability": "view",
      "type": "function"
    },
    {
      "inputs": [
        {
          "internalType": "bytes32",
          "name": "",
          "type": "bytes32"
        }
      ],
      "name": "executed",
      "outputs": [
        {
          "internalType": "bool",
          "name": "",
          "type": "bool"
        }
      ],
      "stateMutability": "view",
      "type": "function"
    },
    {
      "inputs": [
        {
          "internalType": "uint256",
          "name": "amount",
          "type": "uint256"
        },
        {
          "components": [
            {
              "internalType": "uint256",
              "name": "timestamp",
              "type": "uint256"
            },
            {
              "internalType": "uint256",
              "name": "chainid",
              "type": "uint256"
            },
            {
              "internalType": "address",
              "name": "to",
              "type": "address"
            },
            {
              "internalType": "bytes",
              "name": "call",
              "type": "bytes"
            },
            {
              "internalType": "bytes[]",
              "name": "approvals",
              "type": "bytes[]"
            }
          ],
          "internalType": "struct Credentials",
          "name": "credentials",
          "type": "tuple"
        }
      ],
      "name": "withdraw",
      "outputs": [],
      "stateMutability": "nonpayable",
      "type": "function"
    }
  ],
  "bytecode": "0x608060405260405162000c0938038062000c09833981016040819052610024916100c3565b600080546001600160a01b0319166001600160a01b03831690811790915560405182917f7325cede0f4927e0139385df8b1c5e5fbb3e2de5851b8c784ea8e75e2576d1b7916100749130916100fb565b60405180910390a1505061011d565b60006001600160a01b0382165b92915050565b600061009082610083565b6100aa81610096565b81146100b557600080fd5b50565b8051610090816100a1565b6000602082840312156100d8576100d8600080fd5b60006100e484846100b8565b949350505050565b6100f581610083565b82525050565b6040810161010982856100ec565b61011660208301846100ec565b9392505050565b610adc806200012d6000396000f3fe608060405234801561001057600080fd5b50600436106100415760003560e01c806301d6034b146100465780631c4392661461005b578063a9fcfb3314610094575b600080fd5b6100596100543660046103f0565b6100b7565b005b61007e610069366004610448565b60026020526000908152604090205460ff1681565b60405161008b919061047b565b60405180910390f35b61007e6100a2366004610448565b60016020526000908152604090205460ff1681565b60005460408051635c975abb60e01b8152905183926001600160a01b031691635c975abb9160048083019260209291908290030181865afa158015610100573d6000803e3d6000fd5b505050506040513d601f19601f82011682018060405250810190610124919061049c565b1561017b576000546001600160a01b0316301480156101555750633a3f16cb60e21b6001600160e01b031960003516145b61017b57604051632022058360e01b8152600401610172906104bd565b60405180910390fd5b60008160405160200161018e9190610730565b60408051601f19818403018152919052516101a99036610757565b6101b490602061076a565b600080549192506001600160a01b039091169063fd835426908490339030906001600160e01b0319813516906101ed908890368161077d565b60016040518863ffffffff1660e01b815260040161021197969594939291906107bd565b600060405180830381865afa15801561022e573d6000803e3d6000fd5b505050506040513d6000823e601f3d908101601f191682016040526102569190810190610937565b50600160006102686080850185610972565b6000818110610279576102796109c7565b905060200281019061028b91906109dd565b604051610299929190610a47565b604080519182900390912082526020820192909252016000205460ff16156102d457604051632022058360e01b815260040161017290610a54565b6000336001600160a01b0316856040516102ed90610a9e565b60006040518083038185875af1925050503d806000811461032a576040519150601f19603f3d011682016040523d82523d6000602084013e61032f565b606091505b505090508061033d57600080fd5b5060018060006103506080860186610972565b6000818110610361576103616109c7565b905060200281019061037391906109dd565b604051610381929190610a47565b6040518091039020815260200190815260200160002060006101000a81548160ff02191690831515021790555050505050565b805b81146103c157600080fd5b50565b80356103cf816103b4565b92915050565b600060a082840312156103ea576103ea600080fd5b50919050565b6000806040838503121561040657610406600080fd5b600061041285856103c4565b925050602083013567ffffffffffffffff81111561043257610432600080fd5b61043e858286016103d5565b9150509250929050565b60006020828403121561045d5761045d600080fd5b600061046984846103c4565b949350505050565b8015155b82525050565b602081016103cf8284610471565b8015156103b6565b80516103cf81610489565b6000602082840312156104b1576104b1600080fd5b60006104698484610491565b602080825281016103cf816014815273151a194814da1a595b19081a5cc81c185d5cd95960621b602082015260400190565b60006104fe60208401846103c4565b9392505050565b80610475565b60006001600160a01b0382166103cf565b6103b68161050b565b80356103cf8161051c565b60006104fe6020840184610525565b6104758161050b565b6000808335601e193685900301811261056357610563600080fd5b83810160208101935035915067ffffffffffffffff82111561058757610587600080fd5b3682900383131561059a5761059a600080fd5b509250929050565b82818337506000910152565b81835260006020840193506105c48385846105a2565b5050601f01601f19160190565b6000808335601e19368590030181126105ec576105ec600080fd5b83810160208101935035915067ffffffffffffffff82111561061057610610600080fd5b60208202360383131561059a5761059a600080fd5b60006104698484846105ae565b818352600060208401935083602084028101838060005b878110156106845784840389526106608284610548565b61066b868284610625565b95506020840160209b909b019a93505050600101610649565b5091979650505050505050565b600060a083016106a183806104ef565b6106ab8582610505565b506106b960208401846104ef565b6106c66020860182610505565b506106d46040840184610530565b6106e1604086018261053f565b506106ef6060840184610548565b85830360608701526107028382846105ae565b9250505061071360808401846105d1565b8583036080870152610726838284610632565b9695505050505050565b602080825281016104fe8184610691565b634e487b7160e01b600052601160045260246000fd5b818103818111156103cf576103cf610741565b808201808211156103cf576103cf610741565b6000808585111561079057610790600080fd5b838611156107a0576107a0600080fd5b5050820193919092039150565b6001600160e01b03198116610475565b60c080825281016107ce818a610691565b90506107dd602083018961053f565b6107ea604083018861053f565b6107f760608301876107ad565b818103608083015261080a8185876105ae565b905061081960a0830184610471565b98975050505050505050565b634e487b7160e01b600052604160045260246000fd5b601f19601f830116810181811067ffffffffffffffff8211171561086157610861610825565b6040525050565b600061087360405190565b905061087f828261083b565b919050565b600067ffffffffffffffff82111561089e5761089e610825565b5060209081020190565b80516103cf8161051c565b60006108c66108c184610884565b610868565b838152905060208082019084028301858111156108e5576108e5600080fd5b835b8181101561090957806108fa88826108a8565b845250602092830192016108e7565b5050509392505050565b600082601f83011261092757610927600080fd5b81516104698482602086016108b3565b60006020828403121561094c5761094c600080fd5b815167ffffffffffffffff81111561096657610966600080fd5b61046984828501610913565b6000808335601e193685900301811261098d5761098d600080fd5b80840192508235915067ffffffffffffffff8211156109ae576109ae600080fd5b6020928301928202360383131561059a5761059a600080fd5b634e487b7160e01b600052603260045260246000fd5b6000808335601e19368590030181126109f8576109f8600080fd5b80840192508235915067ffffffffffffffff821115610a1957610a19600080fd5b60208301925060018202360383131561059a5761059a600080fd5b6000610a418385846105a2565b50500190565b6000610469828486610a34565b602080825281016103cf81602681527f43726564656e7469616c732068617665206265656e20657865637574656420616020820152656c726561647960d01b604082015260600190565b6000816103cf56fea2646970667358221220a6b266637cbc7495f051a799f05d1bbf483b2c7141cb01af61581faa297569f464736f6c63430008110033",
  "linkReferences": {},
  "deployedLinkReferences": {}
}