{
  "_format": "hh-sol-artifact-1",
  "contractName": "WalletExampleWithShield",
  "sourceName": "contracts/WalletExampleWithShield.sol",
  "abi": [
    {
      "inputs": [
        {
          "internalType": "contract Shield",
          "name": "shield",
          "type": "address"
        }
      ],
      "stateMutability": "payable",
      "type": "constructor"
    },
    {
      "inputs": [
        {
          "internalType": "string",
          "name": "reason",
          "type": "string"
        }
      ],
      "name": "InvalidCredentials",
      "type": "error"
    },
    {
      "anonymous": false,
      "inputs": [
        {
          "indexed": false,
          "internalType": "address",
          "name": "c",
          "type": "address"
        }
      ],
      "name": "IsShieldable",
      "type": "event"
    },
    {
      "inputs": [
        {
          "internalType": "uint256",
          "name": "amount",
          "type": "uint256"
        },
        {
          "components": [
            {
              "internalType": "address",
              "name": "to",
              "type": "address"
            },
            {
              "internalType": "bytes",
              "name": "call",
              "type": "bytes"
            },
            {
              "internalType": "uint256",
              "name": "timestamp",
              "type": "uint256"
            },
            {
              "internalType": "bytes[]",
              "name": "approvals",
              "type": "bytes[]"
            }
          ],
          "internalType": "struct Credentials",
          "name": "credentials",
          "type": "tuple"
        }
      ],
      "name": "withdraw",
      "outputs": [],
      "stateMutability": "nonpayable",
      "type": "function"
    }
  ],
  "bytecode": "0x60806040526040516200120c3803806200120c8339818101604052810190620000299190620001bb565b806200004667f8552da6393ff77160c01b6200013760201b60201c565b6200006267c368cbcd336fc69660c01b6200013760201b60201c565b806000806101000a81548173ffffffffffffffffffffffffffffffffffffffff021916908373ffffffffffffffffffffffffffffffffffffffff160217905550620000be67d54baa6ed183527260c01b6200013760201b60201c565b620000da6767d6380dbc345a7160c01b6200013760201b60201c565b7f63e9224e63cb34d86b43ad704e00293889c168d42800490986f06bbd4809b065306040516200010b919062000212565b60405180910390a1506200013067ef6f6d2e2957348360c01b6200013a60201b60201c565b506200022f565b50565b50565b600080fd5b600073ffffffffffffffffffffffffffffffffffffffff82169050919050565b60006200016f8262000142565b9050919050565b6000620001838262000162565b9050919050565b620001958162000176565b8114620001a157600080fd5b50565b600081519050620001b5816200018a565b92915050565b600060208284031215620001d457620001d36200013d565b5b6000620001e484828501620001a4565b91505092915050565b6000620001fa8262000142565b9050919050565b6200020c81620001ed565b82525050565b600060208201905062000229600083018462000201565b92915050565b610fcd806200023f6000396000f3fe608060405234801561001057600080fd5b506004361061002b5760003560e01c8063b372d53d14610030575b600080fd5b61004a6004803603810190610045919061063a565b61004c565b005b61006067dee67ddc93057e8660c01b6105c6565b806100756733fd69fd2e1b27ab60c01b6105c9565b610089670491372879f9441360c01b6105c9565b61009d67787c9793bc133c1060c01b6105c9565b60008054906101000a900473ffffffffffffffffffffffffffffffffffffffff1673ffffffffffffffffffffffffffffffffffffffff16635c975abb6040518163ffffffff1660e01b8152600401602060405180830381865afa158015610108573d6000803e3d6000fd5b505050506040513d601f19601f8201168201806040525081019061012c91906106ce565b156102915761014567d887c0bc9ea4803560c01b6105c9565b610159672fa92d157a82c20560c01b6105c9565b61016d67161317a95f32faf060c01b6105c9565b60008054906101000a900473ffffffffffffffffffffffffffffffffffffffff1673ffffffffffffffffffffffffffffffffffffffff163073ffffffffffffffffffffffffffffffffffffffff16148015610211575063da1f874d60e01b6000357fffffffff00000000000000000000000000000000000000000000000000000000167bffffffffffffffffffffffffffffffffffffffffffffffffffffffff1916145b6102785761022967706819e127f1c0cc60c01b6105c9565b61023d67fa2a1d0c41028e6060c01b6105c9565b6040517f2022058300000000000000000000000000000000000000000000000000000000815260040161026f90610758565b60405180910390fd5b61028c67f8a9a4ac1202b7ce60c01b6105c9565b6102a6565b6102a5676f0c80aa3a6c233e60c01b6105c9565b5b6102ba679821629509884a9d60c01b6105c9565b6102ce67f3f5c689d9ff9e6860c01b6105c9565b6000816040516020016102e19190610a97565b6040516020818303038152906040525160003690506103009190610ae8565b905061031667c40954ddc421499360c01b6105c9565b61032a670956ed88dffa896c60c01b6105c9565b60008054906101000a900473ffffffffffffffffffffffffffffffffffffffff1673ffffffffffffffffffffffffffffffffffffffff1663157432e48333306000357fffffffff000000000000000000000000000000000000000000000000000000001660003660009089926103a293929190610b26565b60016040518863ffffffff1660e01b81526004016103c69796959493929190610bf8565b600060405180830381865afa1580156103e3573d6000803e3d6000fd5b505050506040513d6000823e3d601f19601f8201168201806040525081019061040c9190610dc6565b5061042167809d7fa40dde659c60c01b6105c9565b610435674072fbca3cc710b460c01b6105c6565b6104496719175b1c2b9b0abe60c01b6105c6565b61045d6744ee0abc8d4674f260c01b6105c6565b61047167a27a34d758d7cb9e60c01b6105c6565b60003373ffffffffffffffffffffffffffffffffffffffff168560405161049790610e40565b60006040518083038185875af1925050503d80600081146104d4576040519150601f19603f3d011682016040523d82523d6000602084013e6104d9565b606091505b505090506104f167b517a897f7b26db060c01b6105c6565b61050567db61c011faf2843360c01b6105c6565b61051967116dd0bf4d9ddcbd60c01b6105c6565b8061052357600080fd5b610537673561a2439549056260c01b6105c6565b5061054c673b04e6918293d40860c01b6105c9565b60018060008480606001906105619190610e64565b600081811061057357610572610ec7565b5b90506020028101906105859190610ef6565b604051610593929190610f7e565b6040518091039020815260200190815260200160002060006101000a81548160ff02191690831515021790555050505050565b50565b50565b6000604051905090565b600080fd5b600080fd5b6000819050919050565b6105f3816105e0565b81146105fe57600080fd5b50565b600081359050610610816105ea565b92915050565b600080fd5b60006080828403121561063157610630610616565b5b81905092915050565b60008060408385031215610651576106506105d6565b5b600061065f85828601610601565b925050602083013567ffffffffffffffff8111156106805761067f6105db565b5b61068c8582860161061b565b9150509250929050565b60008115159050919050565b6106ab81610696565b81146106b657600080fd5b50565b6000815190506106c8816106a2565b92915050565b6000602082840312156106e4576106e36105d6565b5b60006106f2848285016106b9565b91505092915050565b600082825260208201905092915050565b7f54686520536869656c6420697320706175736564000000000000000000000000600082015250565b60006107426014836106fb565b915061074d8261070c565b602082019050919050565b6000602082019050818103600083015261077181610735565b9050919050565b600073ffffffffffffffffffffffffffffffffffffffff82169050919050565b60006107a382610778565b9050919050565b6107b381610798565b81146107be57600080fd5b50565b6000813590506107d0816107aa565b92915050565b60006107e560208401846107c1565b905092915050565b6107f681610798565b82525050565b600080fd5b600080fd5b600080fd5b6000808335600160200384360303811261082857610827610806565b5b83810192508235915060208301925067ffffffffffffffff8211156108505761084f6107fc565b5b60018202360383131561086657610865610801565b5b509250929050565b600082825260208201905092915050565b82818337600083830152505050565b6000601f19601f8301169050919050565b60006108ab838561086e565b93506108b883858461087f565b6108c18361088e565b840190509392505050565b60006108db6020840184610601565b905092915050565b6108ec816105e0565b82525050565b6000808335600160200384360303811261090f5761090e610806565b5b83810192508235915060208301925067ffffffffffffffff821115610937576109366107fc565b5b60208202360383131561094d5761094c610801565b5b509250929050565b600082825260208201905092915050565b6000819050919050565b600061097d84848461089f565b90509392505050565b6000602082019050919050565b600061099f8385610955565b9350836020840285016109b184610966565b8060005b878110156109f75784840389526109cc828461080b565b6109d7868284610970565b95506109e284610986565b935060208b019a5050506001810190506109b5565b50829750879450505050509392505050565b600060808301610a1c60008401846107d6565b610a2960008601826107ed565b50610a37602084018461080b565b8583036020870152610a4a83828461089f565b92505050610a5b60408401846108cc565b610a6860408601826108e3565b50610a7660608401846108f2565b8583036060870152610a89838284610993565b925050508091505092915050565b60006020820190508181036000830152610ab18184610a09565b905092915050565b7f4e487b7100000000000000000000000000000000000000000000000000000000600052601160045260246000fd5b6000610af3826105e0565b9150610afe836105e0565b9250828203905081811115610b1657610b15610ab9565b5b92915050565b600080fd5b600080fd5b60008085851115610b3a57610b39610b1c565b5b83861115610b4b57610b4a610b21565b5b6001850283019150848603905094509492505050565b610b6a81610798565b82525050565b60007fffffffff0000000000000000000000000000000000000000000000000000000082169050919050565b610ba581610b70565b82525050565b600082825260208201905092915050565b6000610bc88385610bab565b9350610bd583858461087f565b610bde8361088e565b840190509392505050565b610bf281610696565b82525050565b600060c0820190508181036000830152610c12818a610a09565b9050610c216020830189610b61565b610c2e6040830188610b61565b610c3b6060830187610b9c565b8181036080830152610c4e818587610bbc565b9050610c5d60a0830184610be9565b98975050505050505050565b600080fd5b7f4e487b7100000000000000000000000000000000000000000000000000000000600052604160045260246000fd5b610ca68261088e565b810181811067ffffffffffffffff82111715610cc557610cc4610c6e565b5b80604052505050565b6000610cd86105cc565b9050610ce48282610c9d565b919050565b600067ffffffffffffffff821115610d0457610d03610c6e565b5b602082029050602081019050919050565b600080fd5b600081519050610d29816107aa565b92915050565b6000610d42610d3d84610ce9565b610cce565b90508083825260208201905060208402830185811115610d6557610d64610d15565b5b835b81811015610d8e5780610d7a8882610d1a565b845260208401935050602081019050610d67565b5050509392505050565b600082601f830112610dad57610dac610c69565b5b8151610dbd848260208601610d2f565b91505092915050565b600060208284031215610ddc57610ddb6105d6565b5b600082015167ffffffffffffffff811115610dfa57610df96105db565b5b610e0684828501610d98565b91505092915050565b600081905092915050565b50565b6000610e2a600083610e0f565b9150610e3582610e1a565b600082019050919050565b6000610e4b82610e1d565b9150819050919050565b600080fd5b600080fd5b600080fd5b60008083356001602003843603038112610e8157610e80610e55565b5b80840192508235915067ffffffffffffffff821115610ea357610ea2610e5a565b5b602083019250602082023603831315610ebf57610ebe610e5f565b5b509250929050565b7f4e487b7100000000000000000000000000000000000000000000000000000000600052603260045260246000fd5b60008083356001602003843603038112610f1357610f12610e55565b5b80840192508235915067ffffffffffffffff821115610f3557610f34610e5a565b5b602083019250600182023603831315610f5157610f50610e5f565b5b509250929050565b6000610f658385610e0f565b9350610f7283858461087f565b82840190509392505050565b6000610f8b828486610f59565b9150819050939250505056fea26469706673582212202f6bbab6463d1d9089d2678f739f6d42b17b6335aa19db2510d33b61605d0d1764736f6c63430008110033",
  "linkReferences": {},
  "deployedLinkReferences": {}
}