{
  "_format": "hh-sol-artifact-1",
  "contractName": "WalletExampleWithShield",
  "sourceName": "contracts/WalletExampleWithShield.sol",
  "abi": [
    {
      "inputs": [
        {
          "internalType": "contract Shield",
          "name": "shield",
          "type": "address"
        }
      ],
      "stateMutability": "payable",
      "type": "constructor"
    },
    {
      "inputs": [
        {
          "internalType": "string",
          "name": "reason",
          "type": "string"
        }
      ],
      "name": "InvalidCredentials",
      "type": "error"
    },
    {
      "anonymous": false,
      "inputs": [
        {
          "indexed": false,
          "internalType": "address",
          "name": "shieldable",
          "type": "address"
        },
        {
          "indexed": false,
          "internalType": "address",
          "name": "shield",
          "type": "address"
        }
      ],
      "name": "ShieldableDeployed",
      "type": "event"
    },
    {
      "inputs": [
        {
          "internalType": "bytes32",
          "name": "",
          "type": "bytes32"
        }
      ],
      "name": "burns",
      "outputs": [
        {
          "internalType": "bool",
          "name": "",
          "type": "bool"
        }
      ],
      "stateMutability": "view",
      "type": "function"
    },
    {
      "inputs": [
        {
          "internalType": "uint256",
          "name": "amount",
          "type": "uint256"
        },
        {
          "components": [
            {
              "internalType": "uint256",
              "name": "timestamp",
              "type": "uint256"
            },
            {
              "internalType": "uint256",
              "name": "chainid",
              "type": "uint256"
            },
            {
              "internalType": "address",
              "name": "to",
              "type": "address"
            },
            {
              "internalType": "bytes",
              "name": "call",
              "type": "bytes"
            },
            {
              "internalType": "bytes[]",
              "name": "approvals",
              "type": "bytes[]"
            }
          ],
          "internalType": "struct Credentials",
          "name": "credentials",
          "type": "tuple"
        }
      ],
      "name": "withdraw",
      "outputs": [],
      "stateMutability": "nonpayable",
      "type": "function"
    }
  ],
  "bytecode": "0x6080604052604051610b11380380610b11833981016040819052610022916100c1565b600080546001600160a01b0319166001600160a01b03831690811790915560405182917f7325cede0f4927e0139385df8b1c5e5fbb3e2de5851b8c784ea8e75e2576d1b7916100729130916100f9565b60405180910390a1505061011b565b60006001600160a01b0382165b92915050565b600061008e82610081565b6100a881610094565b81146100b357600080fd5b50565b805161008e8161009f565b6000602082840312156100d6576100d6600080fd5b60006100e284846100b6565b949350505050565b6100f381610081565b82525050565b6040810161010782856100ea565b61011460208301846100ea565b9392505050565b6109e78061012a6000396000f3fe608060405234801561001057600080fd5b50600436106100365760003560e01c806301d6034b1461003b578063f1973dcb14610050575b600080fd5b61004e610049366004610345565b610089565b005b61007361005e36600461039d565b60016020526000908152604090205460ff1681565b60405161008091906103d0565b60405180910390f35b60005460408051635c975abb60e01b8152905183926001600160a01b031691635c975abb9160048083019260209291908290030181865afa1580156100d2573d6000803e3d6000fd5b505050506040513d601f19601f820116820180604052508101906100f691906103f1565b1561014d576000546001600160a01b0316301480156101275750633a3f16cb60e21b6001600160e01b031960003516145b61014d57604051632022058360e01b815260040161014490610412565b60405180910390fd5b6000816040516020016101609190610685565b60408051601f198184030181529190525161017b90366106ac565b6101869060206106bf565b600080549192506001600160a01b039091169063fd835426908490339030906001600160e01b0319813516906101bf90889036816106d2565b60016040518863ffffffff1660e01b81526004016101e39796959493929190610712565b600060405180830381865afa158015610200573d6000803e3d6000fd5b505050506040513d6000823e601f3d908101601f19168201604052610228919081019061088c565b506000336001600160a01b031685604051610242906108c7565b60006040518083038185875af1925050503d806000811461027f576040519150601f19603f3d011682016040523d82523d6000602084013e610284565b606091505b505090508061029257600080fd5b5060018060006102a560808601866108cf565b60008181106102b6576102b6610924565b90506020028101906102c8919061093a565b6040516102d69291906109a4565b6040518091039020815260200190815260200160002060006101000a81548160ff02191690831515021790555050505050565b805b811461031657600080fd5b50565b803561032481610309565b92915050565b600060a0828403121561033f5761033f600080fd5b50919050565b6000806040838503121561035b5761035b600080fd5b60006103678585610319565b925050602083013567ffffffffffffffff81111561038757610387600080fd5b6103938582860161032a565b9150509250929050565b6000602082840312156103b2576103b2600080fd5b60006103be8484610319565b949350505050565b8015155b82525050565b6020810161032482846103c6565b80151561030b565b8051610324816103de565b60006020828403121561040657610406600080fd5b60006103be84846103e6565b60208082528101610324816014815273151a194814da1a595b19081a5cc81c185d5cd95960621b602082015260400190565b60006104536020840184610319565b9392505050565b806103ca565b60006001600160a01b038216610324565b61030b81610460565b803561032481610471565b6000610453602084018461047a565b6103ca81610460565b6000808335601e19368590030181126104b8576104b8600080fd5b83810160208101935035915067ffffffffffffffff8211156104dc576104dc600080fd5b368290038313156104ef576104ef600080fd5b509250929050565b82818337506000910152565b81835260006020840193506105198385846104f7565b5050601f01601f19160190565b6000808335601e193685900301811261054157610541600080fd5b83810160208101935035915067ffffffffffffffff82111561056557610565600080fd5b6020820236038313156104ef576104ef600080fd5b60006103be848484610503565b818352600060208401935083602084028101838060005b878110156105d95784840389526105b5828461049d565b6105c086828461057a565b95506020840160209b909b019a9350505060010161059e565b5091979650505050505050565b600060a083016105f68380610444565b610600858261045a565b5061060e6020840184610444565b61061b602086018261045a565b506106296040840184610485565b6106366040860182610494565b50610644606084018461049d565b8583036060870152610657838284610503565b925050506106686080840184610526565b858303608087015261067b838284610587565b9695505050505050565b6020808252810161045381846105e6565b634e487b7160e01b600052601160045260246000fd5b8181038181111561032457610324610696565b8082018082111561032457610324610696565b600080858511156106e5576106e5600080fd5b838611156106f5576106f5600080fd5b5050820193919092039150565b6001600160e01b031981166103ca565b60c08082528101610723818a6105e6565b90506107326020830189610494565b61073f6040830188610494565b61074c6060830187610702565b818103608083015261075f818587610503565b905061076e60a08301846103c6565b98975050505050505050565b634e487b7160e01b600052604160045260246000fd5b601f19601f830116810181811067ffffffffffffffff821117156107b6576107b661077a565b6040525050565b60006107c860405190565b90506107d48282610790565b919050565b600067ffffffffffffffff8211156107f3576107f361077a565b5060209081020190565b805161032481610471565b600061081b610816846107d9565b6107bd565b8381529050602080820190840283018581111561083a5761083a600080fd5b835b8181101561085e578061084f88826107fd565b8452506020928301920161083c565b5050509392505050565b600082601f83011261087c5761087c600080fd5b81516103be848260208601610808565b6000602082840312156108a1576108a1600080fd5b815167ffffffffffffffff8111156108bb576108bb600080fd5b6103be84828501610868565b600081610324565b6000808335601e19368590030181126108ea576108ea600080fd5b80840192508235915067ffffffffffffffff82111561090b5761090b600080fd5b602092830192820236038313156104ef576104ef600080fd5b634e487b7160e01b600052603260045260246000fd5b6000808335601e193685900301811261095557610955600080fd5b80840192508235915067ffffffffffffffff82111561097657610976600080fd5b6020830192506001820236038313156104ef576104ef600080fd5b600061099e8385846104f7565b50500190565b60006103be82848661099156fea2646970667358221220a0778dfa4ae4f2ca798b1023eb0c851d85dadbc033182856dcca15cd986f649a64736f6c63430008110033",
  "linkReferences": {},
  "deployedLinkReferences": {}
}