{
  "_format": "hh-sol-artifact-1",
  "contractName": "WalletExampleWithShield",
  "sourceName": "contracts/WalletExampleWithShield.sol",
  "abi": [
    {
      "inputs": [
        {
          "internalType": "contract Shield",
          "name": "shield",
          "type": "address"
        }
      ],
      "stateMutability": "payable",
      "type": "constructor"
    },
    {
      "inputs": [
        {
          "internalType": "string",
          "name": "reason",
          "type": "string"
        }
      ],
      "name": "InvalidCredentials",
      "type": "error"
    },
    {
      "inputs": [
        {
          "internalType": "bytes32",
          "name": "",
          "type": "bytes32"
        }
      ],
      "name": "canceled",
      "outputs": [
        {
          "internalType": "bool",
          "name": "",
          "type": "bool"
        }
      ],
      "stateMutability": "view",
      "type": "function"
    },
    {
      "inputs": [
        {
          "internalType": "bytes32",
          "name": "",
          "type": "bytes32"
        }
      ],
      "name": "executed",
      "outputs": [
        {
          "internalType": "bool",
          "name": "",
          "type": "bool"
        }
      ],
      "stateMutability": "view",
      "type": "function"
    },
    {
      "inputs": [
        {
          "internalType": "uint256",
          "name": "amount",
          "type": "uint256"
        },
        {
          "components": [
            {
              "internalType": "uint256",
              "name": "timestamp",
              "type": "uint256"
            },
            {
              "internalType": "uint256",
              "name": "chainid",
              "type": "uint256"
            },
            {
              "internalType": "address",
              "name": "to",
              "type": "address"
            },
            {
              "internalType": "bytes",
              "name": "call",
              "type": "bytes"
            },
            {
              "internalType": "bytes[]",
              "name": "approvals",
              "type": "bytes[]"
            }
          ],
          "internalType": "struct Credentials",
          "name": "credentials",
          "type": "tuple"
        }
      ],
      "name": "withdraw",
      "outputs": [],
      "stateMutability": "nonpayable",
      "type": "function"
    }
  ],
  "bytecode": "0x6080604052604051610b5c380380610b5c833981016040819052610022916100f2565b600080546001600160a01b0319166001600160a01b038316908117909155819030146100ab5760005460405163346010bb60e21b81526001600160a01b039091169063d18042ec9061007890309060040161012a565b600060405180830381600087803b15801561009257600080fd5b505af11580156100a6573d6000803e3d6000fd5b505050505b5050610138565b60006001600160a01b0382165b92915050565b60006100bf826100b2565b6100d9816100c5565b81146100e457600080fd5b50565b80516100bf816100d0565b60006020828403121561010757610107600080fd5b600061011384846100e7565b949350505050565b610124816100b2565b82525050565b602081016100bf828461011b565b610a15806101476000396000f3fe608060405234801561001057600080fd5b50600436106100415760003560e01c806301d6034b146100465780631c4392661461005b578063a9fcfb3314610094575b600080fd5b610059610054366004610373565b6100b7565b005b61007e6100693660046103cb565b60026020526000908152604090205460ff1681565b60405161008b91906103fe565b60405180910390f35b61007e6100a23660046103cb565b60016020526000908152604090205460ff1681565b60005460408051635c975abb60e01b8152905183926001600160a01b031691635c975abb9160048083019260209291908290030181865afa158015610100573d6000803e3d6000fd5b505050506040513d601f19601f82011682018060405250810190610124919061041f565b1561017b576000546001600160a01b0316301480156101555750633a3f16cb60e21b6001600160e01b031960003516145b61017b57604051632022058360e01b815260040161017290610440565b60405180910390fd5b60008160405160200161018e91906106b3565b60408051601f19818403018152919052516101a990366106da565b6101b49060206106ed565b600080549192506001600160a01b039091169063fd835426908490339030906001600160e01b0319813516906101ed9088903681610700565b60016040518863ffffffff1660e01b81526004016102119796959493929190610740565b600060405180830381865afa15801561022e573d6000803e3d6000fd5b505050506040513d6000823e601f3d908101601f1916820160405261025691908101906108ba565b506000336001600160a01b031685604051610270906108f5565b60006040518083038185875af1925050503d80600081146102ad576040519150601f19603f3d011682016040523d82523d6000602084013e6102b2565b606091505b50509050806102c057600080fd5b5060018060006102d360808601866108fd565b60008181106102e4576102e4610952565b90506020028101906102f69190610968565b6040516103049291906109d2565b6040518091039020815260200190815260200160002060006101000a81548160ff02191690831515021790555050505050565b805b811461034457600080fd5b50565b803561035281610337565b92915050565b600060a0828403121561036d5761036d600080fd5b50919050565b6000806040838503121561038957610389600080fd5b60006103958585610347565b925050602083013567ffffffffffffffff8111156103b5576103b5600080fd5b6103c185828601610358565b9150509250929050565b6000602082840312156103e0576103e0600080fd5b60006103ec8484610347565b949350505050565b8015155b82525050565b6020810161035282846103f4565b801515610339565b80516103528161040c565b60006020828403121561043457610434600080fd5b60006103ec8484610414565b60208082528101610352816014815273151a194814da1a595b19081a5cc81c185d5cd95960621b602082015260400190565b60006104816020840184610347565b9392505050565b806103f8565b60006001600160a01b038216610352565b6103398161048e565b80356103528161049f565b600061048160208401846104a8565b6103f88161048e565b6000808335601e19368590030181126104e6576104e6600080fd5b83810160208101935035915067ffffffffffffffff82111561050a5761050a600080fd5b3682900383131561051d5761051d600080fd5b509250929050565b82818337506000910152565b8183526000602084019350610547838584610525565b5050601f01601f19160190565b6000808335601e193685900301811261056f5761056f600080fd5b83810160208101935035915067ffffffffffffffff82111561059357610593600080fd5b60208202360383131561051d5761051d600080fd5b60006103ec848484610531565b818352600060208401935083602084028101838060005b878110156106075784840389526105e382846104cb565b6105ee8682846105a8565b95506020840160209b909b019a935050506001016105cc565b5091979650505050505050565b600060a083016106248380610472565b61062e8582610488565b5061063c6020840184610472565b6106496020860182610488565b5061065760408401846104b3565b61066460408601826104c2565b5061067260608401846104cb565b8583036060870152610685838284610531565b925050506106966080840184610554565b85830360808701526106a98382846105b5565b9695505050505050565b602080825281016104818184610614565b634e487b7160e01b600052601160045260246000fd5b81810381811115610352576103526106c4565b80820180821115610352576103526106c4565b6000808585111561071357610713600080fd5b8386111561072357610723600080fd5b5050820193919092039150565b6001600160e01b031981166103f8565b60c08082528101610751818a610614565b905061076060208301896104c2565b61076d60408301886104c2565b61077a6060830187610730565b818103608083015261078d818587610531565b905061079c60a08301846103f4565b98975050505050505050565b634e487b7160e01b600052604160045260246000fd5b601f19601f830116810181811067ffffffffffffffff821117156107e4576107e46107a8565b6040525050565b60006107f660405190565b905061080282826107be565b919050565b600067ffffffffffffffff821115610821576108216107a8565b5060209081020190565b80516103528161049f565b600061084961084484610807565b6107eb565b8381529050602080820190840283018581111561086857610868600080fd5b835b8181101561088c578061087d888261082b565b8452506020928301920161086a565b5050509392505050565b600082601f8301126108aa576108aa600080fd5b81516103ec848260208601610836565b6000602082840312156108cf576108cf600080fd5b815167ffffffffffffffff8111156108e9576108e9600080fd5b6103ec84828501610896565b600081610352565b6000808335601e193685900301811261091857610918600080fd5b80840192508235915067ffffffffffffffff82111561093957610939600080fd5b6020928301928202360383131561051d5761051d600080fd5b634e487b7160e01b600052603260045260246000fd5b6000808335601e193685900301811261098357610983600080fd5b80840192508235915067ffffffffffffffff8211156109a4576109a4600080fd5b60208301925060018202360383131561051d5761051d600080fd5b60006109cc838584610525565b50500190565b60006103ec8284866109bf56fea26469706673582212204ee02f200cfa369113d1f50d6521bb9066bb452e531356ac9076fc5689461c7f64736f6c63430008110033",
  "linkReferences": {},
  "deployedLinkReferences": {}
}