{
  "_format": "hh-sol-artifact-1",
  "contractName": "WalletExampleWithShield",
  "sourceName": "contracts/WalletExampleWithShield.sol",
  "abi": [
    {
      "inputs": [
        {
          "internalType": "contract Shield",
          "name": "shield",
          "type": "address"
        }
      ],
      "stateMutability": "payable",
      "type": "constructor"
    },
    {
      "inputs": [
        {
          "internalType": "string",
          "name": "reason",
          "type": "string"
        }
      ],
      "name": "InvalidCredentials",
      "type": "error"
    },
    {
      "anonymous": false,
      "inputs": [
        {
          "indexed": false,
          "internalType": "address",
          "name": "c",
          "type": "address"
        }
      ],
      "name": "IsShieldable",
      "type": "event"
    },
    {
      "inputs": [
        {
          "internalType": "uint256",
          "name": "amount",
          "type": "uint256"
        },
        {
          "components": [
            {
              "internalType": "address",
              "name": "to",
              "type": "address"
            },
            {
              "internalType": "bytes",
              "name": "call",
              "type": "bytes"
            },
            {
              "internalType": "uint256",
              "name": "timestamp",
              "type": "uint256"
            },
            {
              "internalType": "bytes[]",
              "name": "approvals",
              "type": "bytes[]"
            }
          ],
          "internalType": "struct Credentials",
          "name": "credentials",
          "type": "tuple"
        }
      ],
      "name": "withdraw",
      "outputs": [],
      "stateMutability": "nonpayable",
      "type": "function"
    }
  ],
  "bytecode": "0x6080604052604051610a66380380610a66833981016040819052610022916100be565b600080546001600160a01b0319166001600160a01b03831617905560405181907f63e9224e63cb34d86b43ad704e00293889c168d42800490986f06bbd4809b0659061006f9030906100f6565b60405180910390a15050610104565b60006001600160a01b0382165b92915050565b600061008b8261007e565b6100a581610091565b81146100b057600080fd5b50565b805161008b8161009c565b6000602082840312156100d3576100d3600080fd5b60006100df84846100b3565b949350505050565b6100f08161007e565b82525050565b6020810161008b82846100e7565b610953806101136000396000f3fe608060405234801561001057600080fd5b506004361061002b5760003560e01c8063b372d53d14610030575b600080fd5b61004361003e366004610548565b610045565b005b60005460408051635c975abb60e01b8152905183926001600160a01b031691635c975abb9160048083019260209291908290030181865afa15801561008e573d6000803e3d6000fd5b505050506040513d601f19601f820116820180604052508101906100b291906105b3565b15610109576000546001600160a01b0316301480156100e3575063da1f874d60e01b6001600160e01b031960003516145b61010957604051632022058360e01b8152600401610100906105d4565b60405180910390fd5b60008160405160200161011c919061074e565b60408051601f19818403018152919052516101379036610775565b600080549192506001600160a01b0390911690632f82f58a908490339030906001600160e01b0319813516906101709088903681610788565b6040518763ffffffff1660e01b8152600401610191969594939291906107eb565b600060405180830381865afa1580156101ae573d6000803e3d6000fd5b505050506040513d6000823e601f3d908101601f191682016040526101d691908101906108c4565b506000336001600160a01b0316856040516101f0906108ff565b60006040518083038185875af1925050503d806000811461022d576040519150601f19603f3d011682016040523d82523d6000602084013e610232565b606091505b505090508061024057600080fd5b506001806000846060015160008151811061025d5761025d610907565b602002602001015180519060200120815260200190815260200160002060006101000a81548160ff02191690831515021790555050505050565b805b81146102a457600080fd5b50565b80356102b281610297565b92915050565b634e487b7160e01b600052604160045260246000fd5b601f19601f830116810181811067ffffffffffffffff821117156102f4576102f46102b8565b6040525050565b600061030660405190565b905061031282826102ce565b919050565b60006001600160a01b0382166102b2565b61029981610317565b80356102b281610328565b600067ffffffffffffffff821115610356576103566102b8565b601f19601f83011660200192915050565b82818337506000910152565b60006103866103818461033c565b6102fb565b9050828152602081018484840111156103a1576103a1600080fd5b6103ac848285610367565b509392505050565b600082601f8301126103c8576103c8600080fd5b81356103d8848260208601610373565b949350505050565b600067ffffffffffffffff8211156103fa576103fa6102b8565b5060209081020190565b6000610412610381846103e0565b8381529050602080820190840283018581111561043157610431600080fd5b835b8181101561047257803567ffffffffffffffff81111561045557610455600080fd5b80860161046289826103b4565b8552505060209283019201610433565b5050509392505050565b600082601f83011261049057610490600080fd5b81356103d8848260208601610404565b6000608082840312156104b5576104b5600080fd5b6104bf60806102fb565b905060006104cd8484610331565b825250602082013567ffffffffffffffff8111156104ed576104ed600080fd5b6104f9848285016103b4565b602083015250604061050d848285016102a7565b604083015250606082013567ffffffffffffffff81111561053057610530600080fd5b61053c8482850161047c565b60608301525092915050565b6000806040838503121561055e5761055e600080fd5b600061056a85856102a7565b925050602083013567ffffffffffffffff81111561058a5761058a600080fd5b610596858286016104a0565b9150509250929050565b801515610299565b80516102b2816105a0565b6000602082840312156105c8576105c8600080fd5b60006103d884846105a8565b602080825281016102b2816014815273151a194814da1a595b19081a5cc81c185d5cd95960621b602082015260400190565b61060f81610317565b82525050565b60005b83811015610630578181015183820152602001610618565b50506000910152565b6000610643825190565b80845260208401935061065a818560208601610615565b601f19601f8201165b9093019392505050565b8061060f565b600061067f8383610639565b9392505050565b6000610690825190565b808452602084019350836020820285016106aa8560200190565b8060005b858110156106df57848403895281516106c78582610673565b94506020830160209a909a01999250506001016106ae565b5091979650505050505050565b805160009060808401906107008582610606565b50602083015184820360208601526107188282610639565b915050604083015161072d604086018261066d565b50606083015184820360608601526107458282610686565b95945050505050565b6020808252810161067f81846106ec565b634e487b7160e01b600052601160045260246000fd5b818103818111156102b2576102b261075f565b6000808585111561079b5761079b600080fd5b838611156107ab576107ab600080fd5b5050820193919092039150565b6001600160e01b0319811661060f565b81835260006020840193506107de838584610367565b601f19601f840116610663565b60a080825281016107fc81896106ec565b905061080b6020830188610606565b6108186040830187610606565b61082560608301866107b8565b81810360808301526108388184866107c8565b98975050505050505050565b80516102b281610328565b600061085d610381846103e0565b8381529050602080820190840283018581111561087c5761087c600080fd5b835b8181101561047257806108918882610844565b8452506020928301920161087e565b600082601f8301126108b4576108b4600080fd5b81516103d884826020860161084f565b6000602082840312156108d9576108d9600080fd5b815167ffffffffffffffff8111156108f3576108f3600080fd5b6103d8848285016108a0565b6000816102b2565b634e487b7160e01b600052603260045260246000fdfea26469706673582212207faf5161bd7728124ed6f97b8d9a5ebf4f762df0029e683b93efba6d7100395964736f6c63430008110033",
  "linkReferences": {},
  "deployedLinkReferences": {}
}