{
  "_format": "hh-sol-artifact-1",
  "contractName": "ShieldFactory",
  "sourceName": "contracts/ShieldFactory.sol",
  "abi": [
    {
      "inputs": [],
      "stateMutability": "nonpayable",
      "type": "constructor"
    },
    {
      "anonymous": false,
      "inputs": [
        {
          "indexed": false,
          "internalType": "address",
          "name": "creator",
          "type": "address"
        },
        {
          "indexed": true,
          "internalType": "address",
          "name": "shield",
          "type": "address"
        },
        {
          "indexed": false,
          "internalType": "bytes32",
          "name": "name",
          "type": "bytes32"
        }
      ],
      "name": "ShieldCreated",
      "type": "event"
    },
    {
      "inputs": [
        {
          "internalType": "bytes32",
          "name": "name",
          "type": "bytes32"
        },
        {
          "internalType": "bytes32[]",
          "name": "roles",
          "type": "bytes32[]"
        },
        {
          "components": [
            {
              "internalType": "address",
              "name": "addr",
              "type": "address"
            },
            {
              "internalType": "bytes8",
              "name": "roles",
              "type": "bytes8"
            }
          ],
          "internalType": "struct User[]",
          "name": "users",
          "type": "tuple[]"
        },
        {
          "internalType": "bytes8[]",
          "name": "policy",
          "type": "bytes8[]"
        }
      ],
      "name": "createShield",
      "outputs": [],
      "stateMutability": "nonpayable",
      "type": "function"
    }
  ],
  "bytecode": "0x60a060405234801561001057600080fd5b5060405161001d9061004b565b604051809103906000f080158015610039573d6000803e3d6000fd5b506001600160a01b0316608052610058565b613f1e8061077383390190565b6080516107016100726000396000604c01526107016000f3fe608060405234801561001057600080fd5b506004361061002b5760003560e01c8063b6fb226c14610030575b600080fd5b61004361003e36600461043a565b610045565b005b60006100707f000000000000000000000000000000000000000000000000000000000000000061011f565b604051636ea7890760e11b81529091506001600160a01b0382169063dd4f120e906100a390879087908790600401610633565b600060405180830381600087803b1580156100bd57600080fd5b505af11580156100d1573d6000803e3d6000fd5b50505050806001600160a01b03167f98308db6c3dfd8cbce8dff0d54265d889f2c68e542d515a90c6b6113da9907ee3387604051610110929190610675565b60405180910390a25050505050565b6000763d602d80600a3d3981f3363d3d373d3d3d363d730000008260601b60e81c176000526e5af43d82803e903d91602b57fd5bf38260781b17602052603760096000f090506001600160a01b0381166101945760405162461bcd60e51b815260040161018b90610697565b60405180910390fd5b919050565b805b81146101a657600080fd5b50565b80356101b481610199565b92915050565b634e487b7160e01b600052604160045260246000fd5b601f19601f830116810181811067ffffffffffffffff821117156101f6576101f66101ba565b6040525050565b600061020860405190565b905061019482826101d0565b600067ffffffffffffffff82111561022e5761022e6101ba565b5060209081020190565b600061024b61024684610214565b6101fd565b8381529050602080820190840283018581111561026a5761026a600080fd5b835b8181101561028e578061027f88826101a9565b8452506020928301920161026c565b5050509392505050565b600082601f8301126102ac576102ac600080fd5b81356102bc848260208601610238565b949350505050565b60006001600160a01b0382166101b4565b61019b816102c4565b80356101b4816102d5565b6001600160c01b0319811661019b565b80356101b4816102e9565b60006040828403121561031957610319600080fd5b61032360406101fd565b9050600061033184846102de565b8252506020610342848483016102f9565b60208301525092915050565b600061035c61024684610214565b8381529050602081016040840283018581111561037b5761037b600080fd5b835b8181101561028e57806103908882610304565b84525060209092019160400161037d565b600082601f8301126103b5576103b5600080fd5b81356102bc84826020860161034e565b60006103d361024684610214565b838152905060208082019084028301858111156103f2576103f2600080fd5b835b8181101561028e578061040788826102f9565b845250602092830192016103f4565b600082601f83011261042a5761042a600080fd5b81356102bc8482602086016103c5565b6000806000806080858703121561045357610453600080fd5b600061045f87876101a9565b945050602085013567ffffffffffffffff81111561047f5761047f600080fd5b61048b87828801610298565b935050604085013567ffffffffffffffff8111156104ab576104ab600080fd5b6104b7878288016103a1565b925050606085013567ffffffffffffffff8111156104d7576104d7600080fd5b6104e387828801610416565b91505092959194509250565b805b82525050565b600061050383836104ef565b505060200190565b6000610515825190565b80845260209384019383018060005b8381101561054957815161053888826104f7565b975060208301925050600101610524565b509495945050505050565b6104f1816102c4565b6001600160c01b031981166104f1565b8051604083019061057e8482610554565b506020820151610591602085018261055d565b50505050565b60006105a3838361056d565b505060400190565b60006105b5825190565b80845260209384019383018060005b838110156105495781516105d88882610597565b9750602083019250506001016105c4565b6000610503838361055d565b60006105ff825190565b80845260209384019383018060005b8381101561054957815161062288826105e9565b97506020830192505060010161060e565b60608082528101610644818661050b565b9050818103602083015261065881856105ab565b9050818103604083015261066c81846105f5565b95945050505050565b604081016106838285610554565b61069060208301846104ef565b9392505050565b602080825281016101b4816016815275115490cc4c4d8dce8818dc99585d194819985a5b195960521b60208201526040019056fea2646970667358221220dd53199f96c6018e6ad7f73b123f39cf682b3354034c76ead8a88695749af74564736f6c6343000811003360806040523480156200001157600080fd5b50600080546001600160a01b031916309081179091556040517f7325cede0f4927e0139385df8b1c5e5fbb3e2de5851b8c784ea8e75e2576d1b7906200005b90839081906200012b565b60405180910390a15060016004556200007362000079565b620001b7565b600354610100900460ff1615620000ad5760405162461bcd60e51b8152600401620000a49062000151565b60405180910390fd5b60035460ff908116101562000105576003805460ff191660ff9081179091556040517f7f26b83ff96e1f2b6a682f133852f6798a09c465da95921460cefb384740249891620000fc91620001a7565b60405180910390a15b565b60006001600160a01b0382165b92915050565b620001258162000107565b82525050565b604081016200013b82856200011a565b6200014a60208301846200011a565b9392505050565b602080825281016200011481602781527f496e697469616c697a61626c653a20636f6e747261637420697320696e697469602082015266616c697a696e6760c81b604082015260600190565b60ff811662000125565b602081016200011482846200019d565b613d5780620001c76000396000f3fe6080604052600436106101015760003560e01c806373c629051161008f578063a3f685f911610061578063a3f685f9146102f2578063a9fcfb3314610312578063dd4f120e14610342578063e8fc5b2c14610362578063fd8354261461038257005b806373c629051461027f5780638441e0af146102925780638b2c0edd146102b257806391525691146102d257005b80635784091e116100d35780635784091e146101b05780635c975abb146101d05780636bc49871146101ea5780636f77926b14610217578063710613981461025d57005b806311d5776e1461010a5780631c4392661461012a57806324877e58146101705780633ff8ca591461019057005b3661010857005b005b34801561011657600080fd5b50610108610125366004612842565b6103af565b34801561013657600080fd5b5061015a6101453660046128ce565b60026020526000908152604090205460ff1681565b6040516101679190612901565b60405180910390f35b34801561017c57600080fd5b5061010861018b36600461294f565b610700565b34801561019c57600080fd5b5061015a6101ab3660046129e8565b610997565b3480156101bc57600080fd5b506101086101cb366004612a25565b6109d4565b3480156101dc57600080fd5b5060055461015a9060ff1681565b3480156101f657600080fd5b5061020a610205366004612a5f565b610bc4565b6040516101679190612aff565b34801561022357600080fd5b50610250610232366004612b17565b6001600160a01b031660009081526007602052604090205460c01b90565b6040516101679190612b38565b34801561026957600080fd5b50610272610c7c565b6040516101679190612b96565b61010861028d366004612ba7565b610cd4565b34801561029e57600080fd5b506101086102ad366004612a25565b610fdb565b3480156102be57600080fd5b506101086102cd366004612d4c565b61129a565b3480156102de57600080fd5b506101086102ed366004612db2565b61152d565b3480156102fe57600080fd5b5061020a61030d3660046128ce565b61177e565b34801561031e57600080fd5b5061015a61032d3660046128ce565b60016020526000908152604090205460ff1681565b34801561034e57600080fd5b5061010861035d366004612e6d565b61180d565b34801561036e57600080fd5b5061010861037d366004612a25565b611ae2565b34801561038e57600080fd5b506103a261039d366004612f74565b611d3b565b604051610167919061308a565b60005460408051635c975abb60e01b8152905183926001600160a01b031691635c975abb9160048083019260209291908290030181865afa1580156103f8573d6000803e3d6000fd5b505050506040513d601f19601f8201168201806040525081019061041c91906130a6565b15610473576000546001600160a01b03163014801561044d5750633a3f16cb60e21b6001600160e01b031960003516145b61047357604051632022058360e01b815260040161046a906130f5565b60405180910390fd5b6000816040516020016104869190613309565b60408051601f19818403018152919052516104a19036613330565b6104ac906020613343565b600080549192506001600160a01b039091169063fd835426908490339030906001600160e01b0319813516906104e59088903681613356565b60016040518863ffffffff1660e01b81526004016105099796959493929190613396565b600060405180830381865afa158015610526573d6000803e3d6000fd5b505050506040513d6000823e601f3d908101601f1916820160405261054e919081019061347e565b506001600061056060808501856134b8565b60008181106105715761057161350c565b90506020028101906105839190613522565b60405161059192919061358b565b604080519182900390912082526020820192909252016000205460ff16156105cc57604051632022058360e01b815260040161046a906135de565b6006546040906105dd908690613343565b11156105fc576040516330f4936760e21b815260040161046a90613634565b60005b8481101561064f57600686868381811061061b5761061b61350c565b835460018101855560009485526020948590209190940292909201359190920155508061064781613644565b9150506105ff565b507fdc3627b8a50594a2c055615b1dd1ef69f5dc80de35b405d1550f8bc7276e71ee858560405161068192919061369a565b60405180910390a1600180600061069b60808601866134b8565b60008181106106ac576106ac61350c565b90506020028101906106be9190613522565b6040516106cc92919061358b565b6040518091039020815260200190815260200160002060006101000a81548160ff0219169083151502179055505050505050565b60005460408051635c975abb60e01b8152905183926001600160a01b031691635c975abb9160048083019260209291908290030181865afa158015610749573d6000803e3d6000fd5b505050506040513d601f19601f8201168201806040525081019061076d91906130a6565b156107bb576000546001600160a01b03163014801561079e5750633a3f16cb60e21b6001600160e01b031960003516145b6107bb57604051632022058360e01b815260040161046a906130f5565b6000816040516020016107ce9190613309565b60408051601f19818403018152919052516107e99036613330565b6107f4906020613343565b600080549192506001600160a01b039091169063fd835426908490339030906001600160e01b03198135169061082d9088903681613356565b60016040518863ffffffff1660e01b81526004016108519796959493929190613396565b600060405180830381865afa15801561086e573d6000803e3d6000fd5b505050506040513d6000823e601f3d908101601f19168201604052610896919081019061347e565b50600160006108a860808501856134b8565b60008181106108b9576108b961350c565b90506020028101906108cb9190613522565b6040516108d992919061358b565b604080519182900390912082526020820192909252016000205460ff161561091457604051632022058360e01b815260040161046a906135de565b61091f86868661220d565b600180600061093160808601866134b8565b60008181106109425761094261350c565b90506020028101906109549190613522565b60405161096292919061358b565b6040518091039020815260200190815260200160002060006101000a81548160ff021916908315150217905550505050505050565b600080826109bd856001600160a01b031660009081526007602052604090205460c01b90565b166001600160c01b03191615159150505b92915050565b6000813560208301356109ed6060850160408601612b17565b6109fa6060860186613522565b604051602001610a0e9594939291906136ac565b60408051601f19818403018152919052805160209091012090506000610aa3610a3a60808501856134b8565b6000818110610a4b57610a4b61350c565b9050602002810190610a5d9190613522565b8080601f016020809104026020016040519081016040528093929190818152602001838380828437600092019190915250610a9d925086915061227d9050565b906122ad565b90506000610af58483610abc6060830160408401612b17565b610ac96060890189613522565b610ad891600491600091613356565b610ae1916136f2565b610aee60608a018a613522565b6000611d3b565b905060005b8151811015610bbd57336001600160a01b0316828281518110610b1f57610b1f61350c565b60200260200101516001600160a01b031603610bab57600160026000610b4860808901896134b8565b6000818110610b5957610b5961350c565b9050602002810190610b6b9190613522565b604051610b7992919061358b565b6040518091039020815260200190815260200160002060006101000a81548160ff021916908315150217905550610bbd565b80610bb581613644565b915050610afa565b5050505050565b6001600160a01b03821660009081526009602090815260408083206001600160e01b0319851684528252808320548084526008835292819020805482518185028101850190935280835260609493830182828015610c6e57602002820191906000526020600020906000905b82829054906101000a900460c01b6001600160c01b03191681526020019060080190602082600701049283019260010382029150808411610c305790505b505050505091505092915050565b60606006805480602002602001604051908101604052809291908181526020018280548015610cca57602002820191906000526020600020905b815481526020019060010190808311610cb6575b5050505050905090565b610cdc6122d1565b60005460408051635c975abb60e01b8152905183926001600160a01b031691635c975abb9160048083019260209291908290030181865afa158015610d25573d6000803e3d6000fd5b505050506040513d601f19601f82011682018060405250810190610d4991906130a6565b15610d97576000546001600160a01b031630148015610d7a5750633a3f16cb60e21b6001600160e01b031960003516145b610d9757604051632022058360e01b815260040161046a906130f5565b600081604051602001610daa9190613309565b60408051601f1981840301815291905251610dc59036613330565b610dd0906020613343565b600080549192506001600160a01b039091169063fd835426908490339030906001600160e01b031981351690610e099088903681613356565b60016040518863ffffffff1660e01b8152600401610e2d9796959493929190613396565b600060405180830381865afa158015610e4a573d6000803e3d6000fd5b505050506040513d6000823e601f3d908101601f19168201604052610e72919081019061347e565b5060016000610e8460808501856134b8565b6000818110610e9557610e9561350c565b9050602002810190610ea79190613522565b604051610eb592919061358b565b604080519182900390912082526020820192909252016000205460ff1615610ef057604051632022058360e01b815260040161046a906135de565b6000856001600160a01b031685604051610f099061372d565b60006040518083038185875af1925050503d8060008114610f46576040519150601f19603f3d011682016040523d82523d6000602084013e610f4b565b606091505b5050905080610f5957600080fd5b506001806000610f6c60808601866134b8565b6000818110610f7d57610f7d61350c565b9050602002810190610f8f9190613522565b604051610f9d92919061358b565b6040518091039020815260200190815260200160002060006101000a81548160ff0219169083151502179055505050610fd66001600455565b505050565b60005460408051635c975abb60e01b8152905183926001600160a01b031691635c975abb9160048083019260209291908290030181865afa158015611024573d6000803e3d6000fd5b505050506040513d601f19601f8201168201806040525081019061104891906130a6565b15611096576000546001600160a01b0316301480156110795750633a3f16cb60e21b6001600160e01b031960003516145b61109657604051632022058360e01b815260040161046a906130f5565b6000816040516020016110a99190613309565b60408051601f19818403018152919052516110c49036613330565b6110cf906020613343565b600080549192506001600160a01b039091169063fd835426908490339030906001600160e01b0319813516906111089088903681613356565b60016040518863ffffffff1660e01b815260040161112c9796959493929190613396565b600060405180830381865afa158015611149573d6000803e3d6000fd5b505050506040513d6000823e601f3d908101601f19168201604052611171919081019061347e565b506001600061118360808501856134b8565b60008181106111945761119461350c565b90506020028101906111a69190613522565b6040516111b492919061358b565b604080519182900390912082526020820192909252016000205460ff16156111ef57604051632022058360e01b815260040161046a906135de565b6005805460ff191660011790556040517f9e87fac88ff661f02d44f95383c817fece4bce600a3dab7a54406878b965e75290600090a1600180600061123760808601866134b8565b60008181106112485761124861350c565b905060200281019061125a9190613522565b60405161126892919061358b565b6040518091039020815260200190815260200160002060006101000a81548160ff021916908315150217905550505050565b60005460408051635c975abb60e01b8152905183926001600160a01b031691635c975abb9160048083019260209291908290030181865afa1580156112e3573d6000803e3d6000fd5b505050506040513d601f19601f8201168201806040525081019061130791906130a6565b15611355576000546001600160a01b0316301480156113385750633a3f16cb60e21b6001600160e01b031960003516145b61135557604051632022058360e01b815260040161046a906130f5565b6000816040516020016113689190613309565b60408051601f19818403018152919052516113839036613330565b61138e906020613343565b600080549192506001600160a01b039091169063fd835426908490339030906001600160e01b0319813516906113c79088903681613356565b60016040518863ffffffff1660e01b81526004016113eb9796959493929190613396565b600060405180830381865afa158015611408573d6000803e3d6000fd5b505050506040513d6000823e601f3d908101601f19168201604052611430919081019061347e565b506001600061144260808501856134b8565b60008181106114535761145361350c565b90506020028101906114659190613522565b60405161147392919061358b565b604080519182900390912082526020820192909252016000205460ff16156114ae57604051632022058360e01b815260040161046a906135de565b6114b7846122fa565b60018060006114c960808601866134b8565b60008181106114da576114da61350c565b90506020028101906114ec9190613522565b6040516114fa92919061358b565b6040518091039020815260200190815260200160002060006101000a81548160ff02191690831515021790555050505050565b60005460408051635c975abb60e01b8152905183926001600160a01b031691635c975abb9160048083019260209291908290030181865afa158015611576573d6000803e3d6000fd5b505050506040513d601f19601f8201168201806040525081019061159a91906130a6565b156115e8576000546001600160a01b0316301480156115cb5750633a3f16cb60e21b6001600160e01b031960003516145b6115e857604051632022058360e01b815260040161046a906130f5565b6000816040516020016115fb9190613309565b60408051601f19818403018152919052516116169036613330565b611621906020613343565b600080549192506001600160a01b039091169063fd835426908490339030906001600160e01b03198135169061165a9088903681613356565b60016040518863ffffffff1660e01b815260040161167e9796959493929190613396565b600060405180830381865afa15801561169b573d6000803e3d6000fd5b505050506040513d6000823e601f3d908101601f191682016040526116c3919081019061347e565b50600160006116d560808501856134b8565b60008181106116e6576116e661350c565b90506020028101906116f89190613522565b60405161170692919061358b565b604080519182900390912082526020820192909252016000205460ff161561174157604051632022058360e01b815260040161046a906135de565b61091f868686808060200260200160405190810160405280939291908181526020018383602002808284376000920191909152506123c992505050565b60008181526008602090815260409182902080548351818402810184019094528084526060939283018282801561180157602002820191906000526020600020906000905b82829054906101000a900460c01b6001600160c01b031916815260200190600801906020826007010492830192600103820291508084116117c35790505b50505050509050919050565b600354610100900460ff161580801561182d5750600354600160ff909116105b806118475750303b158015611847575060035460ff166001145b6118635760405162461bcd60e51b815260040161046a90613780565b6003805460ff191660011790558015611886576003805461ff0019166101001790555b600080546001600160a01b0319163017905560408611156118ba576040516330f4936760e21b815260040161046a90613634565b6118c6600688886126d4565b507fdc3627b8a50594a2c055615b1dd1ef69f5dc80de35b405d1550f8bc7276e71ee87876040516118f892919061369a565b60405180910390a161195b8585808060200260200160405190810160405280939291908181526020016000905b828210156119515761194260408302860136819003810190613790565b81526020019060010190611925565b50505050506122fa565b6119a76b61646d696e2d706f6c69637960a01b8484808060200260200160405190810160405280939291908181526020018383602002808284376000920191909152506123c992505050565b6119c8306308eabbb760e11b6b61646d696e2d706f6c69637960a01b61220d565b6119e930638b2c0edd60e01b6b61646d696e2d706f6c69637960a01b61220d565b611a0a30639152569160e01b6b61646d696e2d706f6c69637960a01b61220d565b611a2b30630490efcb60e31b6b61646d696e2d706f6c69637960a01b61220d565b611a4c30638441e0af60e01b6b61646d696e2d706f6c69637960a01b61220d565b611a6d30633a3f16cb60e21b6b61646d696e2d706f6c69637960a01b61220d565b611a8e306373c6290560e01b6b61646d696e2d706f6c69637960a01b61220d565b8015611ad9576003805461ff00191690556040517f7f26b83ff96e1f2b6a682f133852f6798a09c465da95921460cefb384740249890611ad0906001906137c5565b60405180910390a15b50505050505050565b60005460408051635c975abb60e01b8152905183926001600160a01b031691635c975abb9160048083019260209291908290030181865afa158015611b2b573d6000803e3d6000fd5b505050506040513d601f19601f82011682018060405250810190611b4f91906130a6565b15611b9d576000546001600160a01b031630148015611b805750633a3f16cb60e21b6001600160e01b031960003516145b611b9d57604051632022058360e01b815260040161046a906130f5565b600081604051602001611bb09190613309565b60408051601f1981840301815291905251611bcb9036613330565b611bd6906020613343565b600080549192506001600160a01b039091169063fd835426908490339030906001600160e01b031981351690611c0f9088903681613356565b60016040518863ffffffff1660e01b8152600401611c339796959493929190613396565b600060405180830381865afa158015611c50573d6000803e3d6000fd5b505050506040513d6000823e601f3d908101601f19168201604052611c78919081019061347e565b5060016000611c8a60808501856134b8565b6000818110611c9b57611c9b61350c565b9050602002810190611cad9190613522565b604051611cbb92919061358b565b604080519182900390912082526020820192909252016000205460ff1615611cf657604051632022058360e01b815260040161046a906135de565b6005805460ff191690556040517fa45f47fdea8a1efdd9029a5691c7f759c32b7c698632b563573e155625d1693390600090a1600180600061123760808601866134b8565b606046886020013514611d6157604051632022058360e01b815260040161046a906137fb565b6001600160a01b038616611d7b60608a0160408b01612b17565b6001600160a01b031614611da257604051632022058360e01b815260040161046a90613833565b611daf6060890189613522565b604051611dbd92919061358b565b60405180910390208484604051611dd592919061358b565b604051809103902014611dfb57604051632022058360e01b815260040161046a9061386b565b611e0860808901896134b8565b9050600003611e2a57604051632022058360e01b815260040161046a906138af565b60026000611e3b60808b018b6134b8565b6000818110611e4c57611e4c61350c565b9050602002810190611e5e9190613522565b604051611e6c92919061358b565b604080519182900390912082526020820192909252016000205460ff1615611ea757604051632022058360e01b815260040161046a906138f3565b6000611eb38787610bc4565b90508215611eef578051611eca60808b018b6134b8565b905014611eea57604051632022058360e01b815260040161046a90613937565b611f1f565b8051611efe60808b018b6134b8565b90501115611f1f57604051632022058360e01b815260040161046a90613937565b6000611f2e60808b018b6134b8565b90506001600160401b03811115611f4757611f47612bfb565b604051908082528060200260200182016040528015611f70578160200160208202803683370190505b50905060005b611f8360808c018c6134b8565b90508110156121ff576000611f9b60808d018d6134b8565b83818110611fab57611fab61350c565b9050602002810190611fbd9190613522565b8080601f016020809104026020016040519081016040528093929190818152602001838380828437600092018290525093945050508382039050612059578c600001358d602001358e60400160208101906120189190612b17565b8f80606001906120289190613522565b60405160200161203c9594939291906136ac565b6040516020818303038152906040528051906020012090506120bc565b61206660808e018e6134b8565b612071600186613330565b8181106120805761208061350c565b90506020028101906120929190613522565b6040516020016120a3929190613947565b6040516020818303038152906040528051906020012090505b60006120cb83610a9d8461227d565b90506120f0818786815181106120e3576120e361350c565b6020026020010151610997565b61210d57604051632022058360e01b815260040161046a90613980565b8360000361214c578c6001600160a01b0316816001600160a01b03161461214757604051632022058360e01b815260040161046a906139d1565b6121b6565b60005b848110156121b457816001600160a01b03168682815181106121735761217361350c565b60200260200101516001600160a01b0316036121a257604051632022058360e01b815260040161046a90613a15565b806121ac81613644565b91505061214f565b505b808585815181106121c9576121c961350c565b60200260200101906001600160a01b031690816001600160a01b03168152505050505080806121f790613644565b915050611f76565b509998505050505050505050565b6001600160a01b03831660008181526009602090815260408083206001600160e01b03198716845290915290819020839055518291907fba1ec2dff55a4b0931cf9207c31d493bd27e678b2e15d806c497b820c4dcaeeb90612270908690613a25565b60405180910390a3505050565b6000816040516020016122909190613a33565b604051602081830303815290604052805190602001209050919050565b60008060006122bc8585612505565b915091506122c98161254a565b509392505050565b6002600454036122f35760405162461bcd60e51b815260040161046a90613aa2565b6002600455565b60006123046125fc565b905060005b825181101561238d5760008382815181106123265761232661350c565b602090810291909101810151808201805186166001600160c01b0319811690915290516001600160a01b0316600090815260079092526040909120805467ffffffffffffffff191660c09290921c919091179055508061238581613644565b915050612309565b507f12a11ba4a0395b9f775a0cdac6c1a44182322f4a2892f95922fdc1479cfc02c8826040516123bd9190613b2e565b60405180910390a15050565b816123e7576040516330f4936760e21b815260040161046a90613b65565b60008281526008602052604090205415612414576040516330f4936760e21b815260040161046a90613ba0565b8051600003612436576040516330f4936760e21b815260040161046a90613bdd565b60006124406125fc565b905060005b82518110156124a757818382815181106124615761246161350c565b60200260200101511683828151811061247c5761247c61350c565b6001600160c01b0319909216602092830291909101909101528061249f81613644565b915050612445565b50600083815260086020908152604090912083516124c79285019061271f565b50827f1c28460e7353d1f76d93ce571bb7bf39c569b19a4c9b2a4c1d7f2c9c95f4c0da836040516124f89190612aff565b60405180910390a2505050565b600080825160410361253b5760208301516040840151606085015160001a61252f8782858561261d565b94509450505050612543565b506000905060025b9250929050565b600081600481111561255e5761255e613bed565b036125665750565b600181600481111561257a5761257a613bed565b036125975760405162461bcd60e51b815260040161046a90613c37565b60028160048111156125ab576125ab613bed565b036125c85760405162461bcd60e51b815260040161046a90613c7b565b60038160048111156125dc576125dc613bed565b036125f95760405162461bcd60e51b815260040161046a90613cca565b50565b60065460009061260d906040613330565b6001600160c01b0319901c919050565b6000807f7fffffffffffffffffffffffffffffff5d576e7357a4501ddfe92f46681b20a083111561265457506000905060036126cb565b6000600187878787604051600081526020016040526040516126799493929190613ce3565b6020604051602081039080840390855afa15801561269b573d6000803e3d6000fd5b5050604051601f1901519150506001600160a01b0381166126c4576000600192509250506126cb565b9150600090505b94509492505050565b82805482825590600052602060002090810192821561270f579160200282015b8281111561270f5782358255916020019190600101906126f4565b5061271b9291506127c8565b5090565b8280548282559060005260206000209060030160049004810192821561270f5791602002820160005b8382111561278c57835183826101000a8154816001600160401b03021916908360c01c02179055509260200192600801602081600701049283019260010302612748565b80156127bf5782816101000a8154906001600160401b03021916905560080160208160070104928301926001030261278c565b505061271b9291505b5b8082111561271b57600081556001016127c9565b60008083601f8401126127f2576127f2600080fd5b5081356001600160401b0381111561280c5761280c600080fd5b60208301915083602082028301111561254357612543600080fd5b600060a0828403121561283c5761283c600080fd5b50919050565b60008060006040848603121561285a5761285a600080fd5b83356001600160401b0381111561287357612873600080fd5b61287f868287016127dd565b935093505060208401356001600160401b038111156128a0576128a0600080fd5b6128ac86828701612827565b9150509250925092565b805b81146125f957600080fd5b80356109ce816128b6565b6000602082840312156128e3576128e3600080fd5b60006128ef84846128c3565b949350505050565b8015155b82525050565b602081016109ce82846128f7565b60006001600160a01b0382166109ce565b6128b88161290f565b80356109ce81612920565b6001600160e01b031981166128b8565b80356109ce81612934565b6000806000806080858703121561296857612968600080fd5b60006129748787612929565b945050602061298587828801612944565b9350506040612996878288016128c3565b92505060608501356001600160401b038111156129b5576129b5600080fd5b6129c187828801612827565b91505092959194509250565b6001600160c01b031981166128b8565b80356109ce816129cd565b600080604083850312156129fe576129fe600080fd5b6000612a0a8585612929565b9250506020612a1b858286016129dd565b9150509250929050565b600060208284031215612a3a57612a3a600080fd5b81356001600160401b03811115612a5357612a53600080fd5b6128ef84828501612827565b60008060408385031215612a7557612a75600080fd5b6000612a818585612929565b9250506020612a1b85828601612944565b6001600160c01b031981166128fb565b6000612aae8383612a92565b505060200190565b6000612ac0825190565b80845260209384019383018060005b83811015612af4578151612ae38882612aa2565b975060208301925050600101612acf565b509495945050505050565b60208082528101612b108184612ab6565b9392505050565b600060208284031215612b2c57612b2c600080fd5b60006128ef8484612929565b602081016109ce8284612a92565b806128fb565b6000612aae8383612b46565b6000612b62825190565b80845260209384019383018060005b83811015612af4578151612b858882612b4c565b975060208301925050600101612b71565b60208082528101612b108184612b58565b600080600060608486031215612bbf57612bbf600080fd5b6000612bcb8686612929565b9350506020612bdc868287016128c3565b92505060408401356001600160401b038111156128a0576128a0600080fd5b634e487b7160e01b600052604160045260246000fd5b601f19601f83011681018181106001600160401b0382111715612c3657612c36612bfb565b6040525050565b6000612c4860405190565b9050612c548282612c11565b919050565b60006001600160401b03821115612c7257612c72612bfb565b5060209081020190565b600060408284031215612c9157612c91600080fd5b612c9b6040612c3d565b90506000612ca98484612929565b8252506020612cba848483016129dd565b60208301525092915050565b6000612cd9612cd484612c59565b612c3d565b83815290506020810160408402830185811115612cf857612cf8600080fd5b835b81811015612d1e5780612d0d8882612c7c565b845250602090920191604001612cfa565b5050509392505050565b600082601f830112612d3c57612d3c600080fd5b81356128ef848260208601612cc6565b60008060408385031215612d6257612d62600080fd5b82356001600160401b03811115612d7b57612d7b600080fd5b612d8785828601612d28565b92505060208301356001600160401b03811115612da657612da6600080fd5b612a1b85828601612827565b60008060008060608587031215612dcb57612dcb600080fd5b6000612dd787876128c3565b94505060208501356001600160401b03811115612df657612df6600080fd5b612e02878288016127dd565b935093505060408501356001600160401b038111156129b5576129b5600080fd5b60008083601f840112612e3857612e38600080fd5b5081356001600160401b03811115612e5257612e52600080fd5b60208301915083604082028301111561254357612543600080fd5b60008060008060008060608789031215612e8957612e89600080fd5b86356001600160401b03811115612ea257612ea2600080fd5b612eae89828a016127dd565b965096505060208701356001600160401b03811115612ecf57612ecf600080fd5b612edb89828a01612e23565b945094505060408701356001600160401b03811115612efc57612efc600080fd5b612f0889828a016127dd565b92509250509295509295509295565b60008083601f840112612f2c57612f2c600080fd5b5081356001600160401b03811115612f4657612f46600080fd5b60208301915083600182028301111561254357612543600080fd5b8015156128b8565b80356109ce81612f61565b600080600080600080600060c0888a031215612f9257612f92600080fd5b87356001600160401b03811115612fab57612fab600080fd5b612fb78a828b01612827565b9750506020612fc88a828b01612929565b9650506040612fd98a828b01612929565b9550506060612fea8a828b01612944565b94505060808801356001600160401b0381111561300957613009600080fd5b6130158a828b01612f17565b935093505060a06130288a828b01612f69565b91505092959891949750929550565b6128fb8161290f565b6000612aae8383613037565b6000613056825190565b80845260209384019383018060005b83811015612af45781516130798882613040565b975060208301925050600101613065565b60208082528101612b10818461304c565b80516109ce81612f61565b6000602082840312156130bb576130bb600080fd5b60006128ef848461309b565b6014815260006020820173151a194814da1a595b19081a5cc81c185d5cd95960621b815291505b5060200190565b602080825281016109ce816130c7565b6000612b1060208401846128c3565b6000612b106020840184612929565b6000808335601e193685900301811261313e5761313e600080fd5b8381016020810193503591506001600160401b0382111561316157613161600080fd5b3682900383131561317457613174600080fd5b509250929050565b82818337506000910152565b818352600060208401935061319e83858461317c565b5050601f01601f19160190565b6000808335601e19368590030181126131c6576131c6600080fd5b8381016020810193503591506001600160401b038211156131e9576131e9600080fd5b60208202360383131561317457613174600080fd5b60006128ef848484613188565b818352600060208401935083602084028101838060005b8781101561325d5784840389526132398284613123565b6132448682846131fe565b95506020840160209b909b019a93505050600101613222565b5091979650505050505050565b600060a0830161327a8380613105565b6132848582612b46565b506132926020840184613105565b61329f6020860182612b46565b506132ad6040840184613114565b6132ba6040860182613037565b506132c86060840184613123565b85830360608701526132db838284613188565b925050506132ec60808401846131ab565b85830360808701526132ff83828461320b565b9695505050505050565b60208082528101612b10818461326a565b634e487b7160e01b600052601160045260246000fd5b818103818111156109ce576109ce61331a565b808201808211156109ce576109ce61331a565b6000808585111561336957613369600080fd5b8386111561337957613379600080fd5b5050820193919092039150565b6001600160e01b031981166128fb565b60c080825281016133a7818a61326a565b90506133b66020830189613037565b6133c36040830188613037565b6133d06060830187613386565b81810360808301526133e3818587613188565b90506133f260a08301846128f7565b98975050505050505050565b80516109ce81612920565b6000613417612cd484612c59565b8381529050602080820190840283018581111561343657613436600080fd5b835b81811015612d1e578061344b88826133fe565b84525060209283019201613438565b600082601f83011261346e5761346e600080fd5b81516128ef848260208601613409565b60006020828403121561349357613493600080fd5b81516001600160401b038111156134ac576134ac600080fd5b6128ef8482850161345a565b6000808335601e19368590030181126134d3576134d3600080fd5b8084019250823591506001600160401b038211156134f3576134f3600080fd5b6020928301928202360383131561317457613174600080fd5b634e487b7160e01b600052603260045260246000fd5b6000808335601e193685900301811261353d5761353d600080fd5b8084019250823591506001600160401b0382111561355d5761355d600080fd5b60208301925060018202360383131561317457613174600080fd5b600061358583858461317c565b50500190565b60006128ef828486613578565b602681526000602082017f43726564656e7469616c732068617665206265656e20657865637574656420618152656c726561647960d01b602082015291505b5060400190565b602080825281016109ce81613598565b602981526000602082017f54686520536869656c642063616e6e6f742068617665206d6f7265207468616e81526820363420726f6c657360b81b602082015291506135d7565b602080825281016109ce816135ee565b600060001982036136575761365761331a565b5060010190565b82818337505050565b81835260006020840193506001600160fb1b0383111561368957613689600080fd5b60208302925061358583858461365e565b602080825281016128ef818486613667565b608081016136ba8288612b46565b6136c76020830187612b46565b6136d46040830186613037565b81810360608301526136e7818486613188565b979650505050505050565b80356001600160e01b03191682826004821015613725576137206001600160e01b0319836004036008021b90565b831692505b505092915050565b6000816109ce565b602e81526000602082017f496e697469616c697a61626c653a20636f6e747261637420697320616c72656181526d191e481a5b9a5d1a585b1a5e995960921b602082015291506135d7565b602080825281016109ce81613735565b6000604082840312156137a5576137a5600080fd5b60006128ef8484612c7c565b600060ff82166109ce565b6128fb816137b1565b602081016109ce82846137bc565b6011815260006020820170086d0c2d2dc40928840dad2e6dac2e8c6d607b1b815291506130ee565b602080825281016109ce816137d3565b6011815260006020820170086dedce8e4c2c6e840dad2e6dac2e8c6d607b1b815291506130ee565b602080825281016109ce8161380b565b601181526000602082017008ceadcc6e8d2dedc40dad2e6dac2e8c6d607b1b815291506130ee565b602080825281016109ce81613843565b601981526000602082017f417070726f76616c732063616e6e6f7420626520656d70747900000000000000815291506130ee565b602080825281016109ce8161387b565b601e81526000602082017f43726564656e7469616c732068617665206265656e2063616e63656c65640000815291506130ee565b602080825281016109ce816138bf565b601d81526000602082017f496e636f7272656374206e756d626572206f6620617070726f76616c73000000815291506130ee565b602080825281016109ce81613903565b602080825281016128ef818486613188565b601081526000602082016f2837b634b1bc903b34b7b630ba34b7b760811b815291506130ee565b602080825281016109ce81613959565b602481526000602082017f546865206f776e6572206d75737420626520746865206669727374206170707281526337bb32b960e11b602082015291506135d7565b602080825281016109ce81613990565b601e81526000602082017f53616d6520616464726573732063616e6e6f74207369676e2074776963650000815291506130ee565b602080825281016109ce816139e1565b602081016109ce8284613386565b7f19457468657265756d205369676e6564204d6573736167653a0a3332000000008152601c016000613a658284612b46565b50602001919050565b601f81526000602082017f5265656e7472616e637947756172643a207265656e7472616e742063616c6c00815291506130ee565b602080825281016109ce81613a6e565b80516040830190613ac38482613037565b506020820151613ad66020850182612a92565b50505050565b6000613ae88383613ab2565b505060400190565b6000613afa825190565b80845260209384019383018060005b83811015612af4578151613b1d8882613adc565b975060208301925050600101613b09565b60208082528101612b108184613af0565b600f81526000602082016e155b9919599a5b9959081b1858995b608a1b815291506130ee565b602080825281016109ce81613b3f565b60148152600060208201734c6162656c20616c72656164792065786973747360601b815291506130ee565b602080825281016109ce81613b75565b6016815260006020820175506f6c6963792063616e6e6f7420626520656d70747960501b815291506130ee565b602080825281016109ce81613bb0565b634e487b7160e01b600052602160045260246000fd5b601881526000602082017f45434453413a20696e76616c6964207369676e61747572650000000000000000815291506130ee565b602080825281016109ce81613c03565b601f81526000602082017f45434453413a20696e76616c6964207369676e6174757265206c656e67746800815291506130ee565b602080825281016109ce81613c47565b602281526000602082017f45434453413a20696e76616c6964207369676e6174757265202773272076616c815261756560f01b602082015291506135d7565b602080825281016109ce81613c8b565b60ff81166128fb565b60808101613cf18287612b46565b613cfe6020830186613cda565b613d0b6040830185612b46565b613d186060830184612b46565b9594505050505056fea2646970667358221220731353de56d44c7a507fa64c7a301a62a3290a5db3ed5c6d9058066a75185f1764736f6c63430008110033",
  "linkReferences": {},
  "deployedLinkReferences": {}
}