{
  "_format": "hh-sol-artifact-1",
  "contractName": "ShieldFactory",
  "sourceName": "contracts/ShieldFactory.sol",
  "abi": [
    {
      "inputs": [],
      "stateMutability": "nonpayable",
      "type": "constructor"
    },
    {
      "anonymous": false,
      "inputs": [
        {
          "indexed": false,
          "internalType": "address",
          "name": "creator",
          "type": "address"
        },
        {
          "indexed": true,
          "internalType": "address",
          "name": "shield",
          "type": "address"
        },
        {
          "indexed": false,
          "internalType": "bytes32",
          "name": "name",
          "type": "bytes32"
        },
        {
          "indexed": false,
          "internalType": "bytes32[]",
          "name": "roles",
          "type": "bytes32[]"
        },
        {
          "components": [
            {
              "internalType": "address",
              "name": "addr",
              "type": "address"
            },
            {
              "internalType": "bytes8",
              "name": "roles",
              "type": "bytes8"
            }
          ],
          "indexed": false,
          "internalType": "struct User[]",
          "name": "users",
          "type": "tuple[]"
        }
      ],
      "name": "ShieldCreated",
      "type": "event"
    },
    {
      "inputs": [
        {
          "internalType": "bytes32",
          "name": "name",
          "type": "bytes32"
        },
        {
          "internalType": "bytes32[]",
          "name": "roles",
          "type": "bytes32[]"
        },
        {
          "components": [
            {
              "internalType": "address",
              "name": "addr",
              "type": "address"
            },
            {
              "internalType": "bytes8",
              "name": "roles",
              "type": "bytes8"
            }
          ],
          "internalType": "struct User[]",
          "name": "users",
          "type": "tuple[]"
        },
        {
          "internalType": "bytes8[]",
          "name": "policy",
          "type": "bytes8[]"
        }
      ],
      "name": "createShield",
      "outputs": [],
      "stateMutability": "nonpayable",
      "type": "function"
    }
  ],
  "bytecode": "0x60a060405234801561001057600080fd5b5061002b67fad88f4011a9275a60c01b6100a660201b60201c565b6100456725f176630c34e5f360c01b6100a660201b60201c565b604051610051906100a9565b604051809103906000f08015801561006d573d6000803e3d6000fd5b5073ffffffffffffffffffffffffffffffffffffffff1660808173ffffffffffffffffffffffffffffffffffffffff16815250506100b6565b50565b61720e80610c2483390190565b608051610b546100d06000396000608f0152610b546000f3fe608060405234801561001057600080fd5b506004361061002b5760003560e01c8063b6fb226c14610030575b600080fd5b61004a600480360381019061004591906106c0565b61004c565b005b610060676ef87517f6fbf28760c01b6101cf565b6100746775e853dd500d6c2e60c01b6101cf565b6100886741a2952fe921e3c460c01b6101cf565b60006100b37f00000000000000000000000000000000000000000000000000000000000000006101d2565b90506100c9675d74123dcfb860c260c01b6101cf565b6100dd671735ef79e15a87a560c01b6101cf565b8073ffffffffffffffffffffffffffffffffffffffff1663dd4f120e8585856040518463ffffffff1660e01b815260040161011a939291906109e4565b600060405180830381600087803b15801561013457600080fd5b505af1158015610148573d6000803e3d6000fd5b5050505061016067c127512de80e282d60c01b6101cf565b61017467b10c3a303c71e83960c01b6101cf565b8073ffffffffffffffffffffffffffffffffffffffff167fe879533d0ff5082cf9a840178f203f98210d14b70d587228107827b73198b54a338787876040516101c09493929190610a4e565b60405180910390a25050505050565b50565b6000763d602d80600a3d3981f3363d3d373d3d3d363d730000008260601b60e81c176000526e5af43d82803e903d91602b57fd5bf38260781b17602052603760096000f09050600073ffffffffffffffffffffffffffffffffffffffff168173ffffffffffffffffffffffffffffffffffffffff1603610287576040517f08c379a000000000000000000000000000000000000000000000000000000000815260040161027e90610afe565b60405180910390fd5b919050565b6000604051905090565b600080fd5b600080fd5b6000819050919050565b6102b3816102a0565b81146102be57600080fd5b50565b6000813590506102d0816102aa565b92915050565b600080fd5b6000601f19601f8301169050919050565b7f4e487b7100000000000000000000000000000000000000000000000000000000600052604160045260246000fd5b610324826102db565b810181811067ffffffffffffffff82111715610343576103426102ec565b5b80604052505050565b600061035661028c565b9050610362828261031b565b919050565b600067ffffffffffffffff821115610382576103816102ec565b5b602082029050602081019050919050565b600080fd5b60006103ab6103a684610367565b61034c565b905080838252602082019050602084028301858111156103ce576103cd610393565b5b835b818110156103f757806103e388826102c1565b8452602084019350506020810190506103d0565b5050509392505050565b600082601f830112610416576104156102d6565b5b8135610426848260208601610398565b91505092915050565b600067ffffffffffffffff82111561044a576104496102ec565b5b602082029050602081019050919050565b600080fd5b600073ffffffffffffffffffffffffffffffffffffffff82169050919050565b600061048b82610460565b9050919050565b61049b81610480565b81146104a657600080fd5b50565b6000813590506104b881610492565b92915050565b60007fffffffffffffffff00000000000000000000000000000000000000000000000082169050919050565b6104f3816104be565b81146104fe57600080fd5b50565b600081359050610510816104ea565b92915050565b60006040828403121561052c5761052b61045b565b5b610536604061034c565b90506000610546848285016104a9565b600083015250602061055a84828501610501565b60208301525092915050565b60006105796105748461042f565b61034c565b9050808382526020820190506040840283018581111561059c5761059b610393565b5b835b818110156105c557806105b18882610516565b84526020840193505060408101905061059e565b5050509392505050565b600082601f8301126105e4576105e36102d6565b5b81356105f4848260208601610566565b91505092915050565b600067ffffffffffffffff821115610618576106176102ec565b5b602082029050602081019050919050565b600061063c610637846105fd565b61034c565b9050808382526020820190506020840283018581111561065f5761065e610393565b5b835b8181101561068857806106748882610501565b845260208401935050602081019050610661565b5050509392505050565b600082601f8301126106a7576106a66102d6565b5b81356106b7848260208601610629565b91505092915050565b600080600080608085870312156106da576106d9610296565b5b60006106e8878288016102c1565b945050602085013567ffffffffffffffff8111156107095761070861029b565b5b61071587828801610401565b935050604085013567ffffffffffffffff8111156107365761073561029b565b5b610742878288016105cf565b925050606085013567ffffffffffffffff8111156107635761076261029b565b5b61076f87828801610692565b91505092959194509250565b600081519050919050565b600082825260208201905092915050565b6000819050602082019050919050565b6107b0816102a0565b82525050565b60006107c283836107a7565b60208301905092915050565b6000602082019050919050565b60006107e68261077b565b6107f08185610786565b93506107fb83610797565b8060005b8381101561082c57815161081388826107b6565b975061081e836107ce565b9250506001810190506107ff565b5085935050505092915050565b600081519050919050565b600082825260208201905092915050565b6000819050602082019050919050565b61086e81610480565b82525050565b61087d816104be565b82525050565b6040820160008201516108996000850182610865565b5060208201516108ac6020850182610874565b50505050565b60006108be8383610883565b60408301905092915050565b6000602082019050919050565b60006108e282610839565b6108ec8185610844565b93506108f783610855565b8060005b8381101561092857815161090f88826108b2565b975061091a836108ca565b9250506001810190506108fb565b5085935050505092915050565b600081519050919050565b600082825260208201905092915050565b6000819050602082019050919050565b600061096d8383610874565b60208301905092915050565b6000602082019050919050565b600061099182610935565b61099b8185610940565b93506109a683610951565b8060005b838110156109d75781516109be8882610961565b97506109c983610979565b9250506001810190506109aa565b5085935050505092915050565b600060608201905081810360008301526109fe81866107db565b90508181036020830152610a1281856108d7565b90508181036040830152610a268184610986565b9050949350505050565b610a3981610480565b82525050565b610a48816102a0565b82525050565b6000608082019050610a636000830187610a30565b610a706020830186610a3f565b8181036040830152610a8281856107db565b90508181036060830152610a9681846108d7565b905095945050505050565b600082825260208201905092915050565b7f455243313136373a20637265617465206661696c656400000000000000000000600082015250565b6000610ae8601683610aa1565b9150610af382610ab2565b602082019050919050565b60006020820190508181036000830152610b1781610adb565b905091905056fea26469706673582212204aee166f9030a233b4645b40d9fe25c81a1242b6bbbf8f93c636cd2b1f35262364736f6c6343000811003360806040523480156200001157600080fd5b50306200002f67f8552da6393ff77160c01b6200016f60201b60201c565b6200004b67c368cbcd336fc69660c01b6200016f60201b60201c565b806000806101000a81548173ffffffffffffffffffffffffffffffffffffffff021916908373ffffffffffffffffffffffffffffffffffffffff160217905550620000a767d54baa6ed183527260c01b6200016f60201b60201c565b620000c36767d6380dbc345a7160c01b6200016f60201b60201c565b7f63e9224e63cb34d86b43ad704e00293889c168d42800490986f06bbd4809b06530604051620000f4919062000284565b60405180910390a15060016003819055506200012167d98caa40a621630460c01b6200017260201b60201c565b6200013d67085636ad8323b35d60c01b6200017260201b60201c565b62000159670c11a6c74ed51b0d60c01b6200017260201b60201c565b620001696200017560201b60201c565b62000385565b50565b50565b600260019054906101000a900460ff1615620001c8576040517f08c379a0000000000000000000000000000000000000000000000000000000008152600401620001bf9062000328565b60405180910390fd5b60ff8016600260009054906101000a900460ff1660ff1610156200023d5760ff600260006101000a81548160ff021916908360ff1602179055507f7f26b83ff96e1f2b6a682f133852f6798a09c465da95921460cefb384740249860ff60405162000234919062000368565b60405180910390a15b565b600073ffffffffffffffffffffffffffffffffffffffff82169050919050565b60006200026c826200023f565b9050919050565b6200027e816200025f565b82525050565b60006020820190506200029b600083018462000273565b92915050565b600082825260208201905092915050565b7f496e697469616c697a61626c653a20636f6e747261637420697320696e69746960008201527f616c697a696e6700000000000000000000000000000000000000000000000000602082015250565b600062000310602783620002a1565b91506200031d82620002b2565b604082019050919050565b60006020820190508181036000830152620003438162000301565b9050919050565b600060ff82169050919050565b62000362816200034a565b82525050565b60006020820190506200037f600083018462000357565b92915050565b616e7980620003956000396000f3fe6080604052600436106100ec5760003560e01c80635ebbc32a1161008a578063a3f685f911610059578063a3f685f9146102ff578063da1f874d1461033c578063dd4f120e14610365578063e1b7351f1461038e576100f3565b80635ebbc32a146102315780636bc498711461025a5780636f77926b1461029757806371061398146102d4576100f3565b80631df0be84116100c65780631df0be84146101985780634aece76e146101c157806350542f2a146101ea5780635c975abb14610206576100f3565b806302eba6ce1461010957806303289bfb14610132578063157432e41461015b576100f3565b366100f357005b61010767e87059de2456272960c01b6103b7565b005b34801561011557600080fd5b50610130600480360381019061012b9190614fd1565b6103ba565b005b34801561013e57600080fd5b5061015960048036038101906101549190615054565b61087a565b005b34801561016757600080fd5b50610182600480360381019061017d919061513a565b610bdc565b60405161018f91906152c3565b60405180910390f35b3480156101a457600080fd5b506101bf60048036038101906101ba919061533b565b6118c8565b005b3480156101cd57600080fd5b506101e860048036038101906101e39190615421565b611dc8565b005b61020460048036038101906101ff9190615511565b612410565b005b34801561021257600080fd5b5061021b6129c3565b604051610228919061558f565b60405180910390f35b34801561023d57600080fd5b5061025860048036038101906102539190615602565b6129d6565b005b34801561026657600080fd5b50610281600480360381019061027c9190615671565b612e94565b60405161028e919061576f565b60405180910390f35b3480156102a357600080fd5b506102be60048036038101906102b99190615791565b613036565b6040516102cb91906157cd565b60405180910390f35b3480156102e057600080fd5b506102e96130c8565b6040516102f691906158a6565b60405180910390f35b34801561030b57600080fd5b50610326600480360381019061032191906158c8565b61315c565b604051610333919061576f565b60405180910390f35b34801561034857600080fd5b50610363600480360381019061035e9190615054565b613241565b005b34801561037157600080fd5b5061038c6004803603810190610387919061594b565b61374e565b005b34801561039a57600080fd5b506103b560048036038101906103b09190615054565b613e65565b005b50565b6103ce67dacf5d49a4ba240b60c01b6103b7565b806103e36733fd69fd2e1b27ab60c01b614372565b6103f7670491372879f9441360c01b614372565b61040b67787c9793bc133c1060c01b614372565b60008054906101000a900473ffffffffffffffffffffffffffffffffffffffff1673ffffffffffffffffffffffffffffffffffffffff16635c975abb6040518163ffffffff1660e01b8152600401602060405180830381865afa158015610476573d6000803e3d6000fd5b505050506040513d601f19601f8201168201806040525081019061049a9190615a14565b156105ff576104b367d887c0bc9ea4803560c01b614372565b6104c7672fa92d157a82c20560c01b614372565b6104db67161317a95f32faf060c01b614372565b60008054906101000a900473ffffffffffffffffffffffffffffffffffffffff1673ffffffffffffffffffffffffffffffffffffffff163073ffffffffffffffffffffffffffffffffffffffff1614801561057f575063da1f874d60e01b6000357fffffffff00000000000000000000000000000000000000000000000000000000167bffffffffffffffffffffffffffffffffffffffffffffffffffffffff1916145b6105e65761059767706819e127f1c0cc60c01b614372565b6105ab67fa2a1d0c41028e6060c01b614372565b6040517f202205830000000000000000000000000000000000000000000000000000000081526004016105dd90615a9e565b60405180910390fd5b6105fa67f8a9a4ac1202b7ce60c01b614372565b610614565b610613676f0c80aa3a6c233e60c01b614372565b5b610628679821629509884a9d60c01b614372565b61063c67f3f5c689d9ff9e6860c01b614372565b60008160405160200161064f9190615d70565b60405160208183030381529060405251600036905061066e9190615dc1565b905061068467c40954ddc421499360c01b614372565b610698670956ed88dffa896c60c01b614372565b60008054906101000a900473ffffffffffffffffffffffffffffffffffffffff1673ffffffffffffffffffffffffffffffffffffffff1663157432e48333306000357fffffffff0000000000000000000000000000000000000000000000000000000016600036600090899261071093929190615dff565b60016040518863ffffffff1660e01b81526004016107349796959493929190615e96565b600060405180830381865afa158015610751573d6000803e3d6000fd5b505050506040513d6000823e3d601f19601f8201168201806040525081019061077a919061605a565b5061078f67809d7fa40dde659c60c01b614372565b6107a3675122a612f83aa97f60c01b6103b7565b6107b76787f7fbb481e019e860c01b6103b7565b6107cb67d34587424dd9ee8660c01b6103b7565b6107df67504a1e3b28e68b5860c01b6103b7565b6107ea868686614375565b6107fe673b04e6918293d40860c01b614372565b600180600084806060019061081391906160b2565b600081811061082557610824616115565b5b90506020028101906108379190616144565b6040516108459291906161d7565b6040518091039020815260200190815260200160002060006101000a81548160ff021916908315150217905550505050505050565b61088e6729a9e9a3d2aef91860c01b6103b7565b6108a267de20115f27bf541460c01b6103b7565b6108b66770de22cace5054a460c01b6103b7565b60008160000160208101906108cb9190615791565b8280602001906108db9190616144565b84604001356040516020016108f394939291906161ff565b60405160208183030381529060405280519060200120905061091f6730e81da21d79c48e60c01b6103b7565b6109336777fd40ac1756145e60c01b6103b7565b60006109c683806060019061094891906160b2565b600081811061095a57610959616115565b5b905060200281019061096c9190616144565b8080601f016020809104026020016040519081016040528093929190818152602001838380828437600081840152601f19601f820116905080830192505050505050506109b8846144ac565b6144dc90919063ffffffff16565b90506109dc674802adea4d9dc29e60c01b6103b7565b6109f067da26859a54a2ead560c01b6103b7565b6000610a4e8483866000016020810190610a0a9190615791565b878060200190610a1a9190616144565b600090600492610a2c93929190615dff565b90610a379190616257565b888060200190610a479190616144565b6000610bdc565b9050610a646769d90f161d1bd44260c01b6103b7565b610a786707678aab29eaec9e60c01b6103b7565b60005b8151811015610bd557610a9867a28e79865759678a60c01b6103b7565b610aac67a8b407c491edce7d60c01b6103b7565b3373ffffffffffffffffffffffffffffffffffffffff16828281518110610ad657610ad5616115565b5b602002602001015173ffffffffffffffffffffffffffffffffffffffff1603610bae57610b0d6728718ec7e6e37f3f60c01b6103b7565b610b2167d79a304f5a57177860c01b6103b7565b6001806000878060600190610b3691906160b2565b6000818110610b4857610b47616115565b5b9050602002810190610b5a9190616144565b604051610b689291906161d7565b6040518091039020815260200190815260200160002060006101000a81548160ff021916908315150217905550610ba967ed73209068c00d4660c01b6103b7565b610bd5565b610bc267a480718de270f26b60c01b6103b7565b8080610bcd906162b6565b915050610a7b565b5050505050565b6060610bf267ac7e7110669805e860c01b6103b7565b610c0667ecda14aee2102bb460c01b6103b7565b610c1a6795319e23189e0d3860c01b6103b7565b8573ffffffffffffffffffffffffffffffffffffffff16886000016020810190610c449190615791565b73ffffffffffffffffffffffffffffffffffffffff1614610cc257610c73676796525ef4b14a3a60c01b6103b7565b610c8767ed6f9cbb486820ed60c01b6103b7565b6040517f20220583000000000000000000000000000000000000000000000000000000008152600401610cb99061634a565b60405180910390fd5b610cd667e0ed09b6754bedfb60c01b6103b7565b610cea67af1d18a96d73489c60c01b6103b7565b610cfe67dd77c02a4e38eda260c01b6103b7565b878060200190610d0e9190616144565b604051610d1c9291906161d7565b60405180910390208484604051610d349291906161d7565b604051809103902014610da457610d5567bf81a58d9bddbdc860c01b6103b7565b610d69670b7302c13b66ae6e60c01b6103b7565b6040517f20220583000000000000000000000000000000000000000000000000000000008152600401610d9b906163b6565b60405180910390fd5b610db86764bc099be2c2cd3d60c01b6103b7565b610dcc67e1a0b8b0248ff05760c01b6103b7565b610de067bff10dc7836ce79160c01b6103b7565b6000888060600190610df291906160b2565b905003610e5c57610e0d670c799218414307cb60c01b6103b7565b610e216745887d2ee82b966260c01b6103b7565b6040517f20220583000000000000000000000000000000000000000000000000000000008152600401610e5390616422565b60405180910390fd5b610e7067902ad443190da7b360c01b6103b7565b610e846731a754beb95e2cb360c01b6103b7565b610e986710986752f5e5381260c01b6103b7565b6000610ea48787612e94565b9050610eba6730fce29a4539a68960c01b6103b7565b610ece671409bcf7245bc59460c01b6103b7565b8215610fa557610ee867e7c30151151d20e260c01b6103b7565b610efc67900911f5d0cecdf760c01b6103b7565b610f1067809dfa94f7115dff60c01b6103b7565b8051898060600190610f2291906160b2565b905014610f8c57610f3d67fad448a331c2221b60c01b6103b7565b610f5167a858fc78d9be479460c01b6103b7565b6040517f20220583000000000000000000000000000000000000000000000000000000008152600401610f839061648e565b60405180910390fd5b610fa067b21d673bb84112b960c01b6103b7565b611072565b610fb9670aa6eb590889180d60c01b6103b7565b610fcd675a0178736f39a1ac60c01b6103b7565b610fe167ee7feba5767e344260c01b6103b7565b8051898060600190610ff391906160b2565b9050111561105d5761100f67a31343868767937e60c01b6103b7565b6110226658cda5ecf4044160c01b6103b7565b6040517f202205830000000000000000000000000000000000000000000000000000000081526004016110549061648e565b60405180910390fd5b611071676c30410353c7f70a60c01b6103b7565b5b611086677d31e8b99ee23f8660c01b6103b7565b61109a67ff0ecd3b93b7d09a60c01b6103b7565b600160008a80606001906110ae91906160b2565b60008181106110c0576110bf616115565b5b90506020028101906110d29190616144565b6040516110e09291906161d7565b6040518091039020815260200190815260200160002060009054906101000a900460ff161561116c5761111d67f7f819e6ae8d608360c01b6103b7565b61113167ab474bc041b0a1f760c01b6103b7565b6040517f2022058300000000000000000000000000000000000000000000000000000000815260040161116390616520565b60405180910390fd5b611180672a0a1ea505c0311c60c01b6103b7565b61119467a83e87abb128a1d260c01b6103b7565b6111a8672df170082ce1501060c01b6103b7565b60008980606001906111ba91906160b2565b905067ffffffffffffffff8111156111d5576111d4615f07565b5b6040519080825280602002602001820160405280156112035781602001602082028036833780820191505090505b50905061121a67b7c930b9a6abe38160c01b6103b7565b61122e67f7d6127b38b690e260c01b6103b7565b60005b8a806060019061124191906160b2565b905081101561188f5761125e677a84b0ae0c7b85e560c01b6103b7565b6112726740a224467e54ff5660c01b6103b7565b60008b806060019061128491906160b2565b8381811061129557611294616115565b5b90506020028101906112a79190616144565b8080601f016020809104026020016040519081016040528093929190818152602001838380828437600081840152601f19601f8201169050808301925050505050505090506113006777ecaaea1e679e6d60c01b6103b7565b611314676cd827cddd4cb8b960c01b6103b7565b600061132a6702233c97ea6a9adb60c01b6103b7565b61133e67adf3f444199b19f560c01b6103b7565b600083036113c65761135a6742007caa00ef208060c01b6103b7565b61136e676c4aaa9f87825e4760c01b6103b7565b8c60000160208101906113819190615791565b8d80602001906113919190616144565b8f604001356040516020016113a994939291906161ff565b604051602081830303815290604052805190602001209050611457565b6113da67c33fbfcd40f793c060c01b6103b7565b6113ee673d12b8f9085bede360c01b6103b7565b8c80606001906113fe91906160b2565b60018561140b9190615dc1565b81811061141b5761141a616115565b5b905060200281019061142d9190616144565b60405160200161143e929190616540565b6040516020818303038152906040528051906020012090505b61146b675c6f76485b9605a260c01b6103b7565b61147f67033a623374db613060c01b6103b7565b600061149c8361148e846144ac565b6144dc90919063ffffffff16565b90506114b2679caedea99e13794760c01b6103b7565b6114c66769b5e4b650db636a60c01b6103b7565b60008685815181106114db576114da616115565b5b60200260200101516114ec83613036565b1677ffffffffffffffffffffffffffffffffffffffffffffffff1916905061151e671ab944e05ea1ce0760c01b6103b7565b61153267d80051d11819399c60c01b6103b7565b6000801b810361159f576115506712dea2453b59357d60c01b6103b7565b61156467e602cb4b8d5e163b60c01b6103b7565b6040517f20220583000000000000000000000000000000000000000000000000000000008152600401611596906165b0565b60405180910390fd5b6115b367b28e7d5fe977482d60c01b6103b7565b6115c7675e84edd42f10544860c01b6103b7565b6115db670a38907f4ed7fcf560c01b6103b7565b600085036116ce576115f767ffb6ad92612e7c9860c01b6103b7565b61160b67b88fe5453371c5e760c01b6103b7565b61161f67ddb4f6528ef0e21060c01b6103b7565b8d73ffffffffffffffffffffffffffffffffffffffff168273ffffffffffffffffffffffffffffffffffffffff16146116b55761166667aeacffe45eaea68260c01b6103b7565b61167a67504461f67cf7755b60c01b6103b7565b6040517f202205830000000000000000000000000000000000000000000000000000000081526004016116ac90616642565b60405180910390fd5b6116c967f25d7735d8206f4860c01b6103b7565b611816565b6116e267017d856816272ea860c01b6103b7565b6116f6678ef2b1094327da9960c01b6103b7565b61170a671d94f823618e693e60c01b6103b7565b60005b858110156118145761172967a0ffc63cbd9c5d8060c01b6103b7565b61173d67686cef39cd5e7d4060c01b6103b7565b8273ffffffffffffffffffffffffffffffffffffffff1687828151811061176757611766616115565b5b602002602001015173ffffffffffffffffffffffffffffffffffffffff16036117ed5761179e67135871da8ce2ec4b60c01b6103b7565b6117b2678548f75e10a3727860c01b6103b7565b6040517f202205830000000000000000000000000000000000000000000000000000000081526004016117e4906166ae565b60405180910390fd5b61180167129f2c778400bd6660c01b6103b7565b808061180c906162b6565b91505061170d565b505b61182a6751aa48240ea9cc8460c01b6103b7565b8186868151811061183e5761183d616115565b5b602002602001019073ffffffffffffffffffffffffffffffffffffffff16908173ffffffffffffffffffffffffffffffffffffffff1681525050505050508080611887906162b6565b915050611231565b506118a4672f5a8851cca1281f60c01b6103b7565b6118b867f3ebc9e88232e7b060c01b6103b7565b8092505050979650505050505050565b6118dc6734ac03760f4fbd9060c01b6103b7565b806118f16733fd69fd2e1b27ab60c01b614372565b611905670491372879f9441360c01b614372565b61191967787c9793bc133c1060c01b614372565b60008054906101000a900473ffffffffffffffffffffffffffffffffffffffff1673ffffffffffffffffffffffffffffffffffffffff16635c975abb6040518163ffffffff1660e01b8152600401602060405180830381865afa158015611984573d6000803e3d6000fd5b505050506040513d601f19601f820116820180604052508101906119a89190615a14565b15611b0d576119c167d887c0bc9ea4803560c01b614372565b6119d5672fa92d157a82c20560c01b614372565b6119e967161317a95f32faf060c01b614372565b60008054906101000a900473ffffffffffffffffffffffffffffffffffffffff1673ffffffffffffffffffffffffffffffffffffffff163073ffffffffffffffffffffffffffffffffffffffff16148015611a8d575063da1f874d60e01b6000357fffffffff00000000000000000000000000000000000000000000000000000000167bffffffffffffffffffffffffffffffffffffffffffffffffffffffff1916145b611af457611aa567706819e127f1c0cc60c01b614372565b611ab967fa2a1d0c41028e6060c01b614372565b6040517f20220583000000000000000000000000000000000000000000000000000000008152600401611aeb90615a9e565b60405180910390fd5b611b0867f8a9a4ac1202b7ce60c01b614372565b611b22565b611b21676f0c80aa3a6c233e60c01b614372565b5b611b36679821629509884a9d60c01b614372565b611b4a67f3f5c689d9ff9e6860c01b614372565b600081604051602001611b5d9190615d70565b604051602081830303815290604052516000369050611b7c9190615dc1565b9050611b9267c40954ddc421499360c01b614372565b611ba6670956ed88dffa896c60c01b614372565b60008054906101000a900473ffffffffffffffffffffffffffffffffffffffff1673ffffffffffffffffffffffffffffffffffffffff1663157432e48333306000357fffffffff00000000000000000000000000000000000000000000000000000000166000366000908992611c1e93929190615dff565b60016040518863ffffffff1660e01b8152600401611c429796959493929190615e96565b600060405180830381865afa158015611c5f573d6000803e3d6000fd5b505050506040513d6000823e3d601f19601f82011682018060405250810190611c88919061605a565b50611c9d67809d7fa40dde659c60c01b614372565b611cb167fbd08da899f376f660c01b6103b7565b611cc567cda12040393c926660c01b6103b7565b611cd967dd07cad7ff90ade960c01b6103b7565b611ced6726ddf07f1150645d60c01b6103b7565b611d3886868680806020026020016040519081016040528093929190818152602001838360200280828437600081840152601f19601f82011690508083019250505050505050614503565b611d4c673b04e6918293d40860c01b614372565b6001806000848060600190611d6191906160b2565b6000818110611d7357611d72616115565b5b9050602002810190611d859190616144565b604051611d939291906161d7565b6040518091039020815260200190815260200160002060006101000a81548160ff021916908315150217905550505050505050565b611ddc67bf30952efc4622b360c01b6103b7565b80611df16733fd69fd2e1b27ab60c01b614372565b611e05670491372879f9441360c01b614372565b611e1967787c9793bc133c1060c01b614372565b60008054906101000a900473ffffffffffffffffffffffffffffffffffffffff1673ffffffffffffffffffffffffffffffffffffffff16635c975abb6040518163ffffffff1660e01b8152600401602060405180830381865afa158015611e84573d6000803e3d6000fd5b505050506040513d601f19601f82011682018060405250810190611ea89190615a14565b1561200d57611ec167d887c0bc9ea4803560c01b614372565b611ed5672fa92d157a82c20560c01b614372565b611ee967161317a95f32faf060c01b614372565b60008054906101000a900473ffffffffffffffffffffffffffffffffffffffff1673ffffffffffffffffffffffffffffffffffffffff163073ffffffffffffffffffffffffffffffffffffffff16148015611f8d575063da1f874d60e01b6000357fffffffff00000000000000000000000000000000000000000000000000000000167bffffffffffffffffffffffffffffffffffffffffffffffffffffffff1916145b611ff457611fa567706819e127f1c0cc60c01b614372565b611fb967fa2a1d0c41028e6060c01b614372565b6040517f20220583000000000000000000000000000000000000000000000000000000008152600401611feb90615a9e565b60405180910390fd5b61200867f8a9a4ac1202b7ce60c01b614372565b612022565b612021676f0c80aa3a6c233e60c01b614372565b5b612036679821629509884a9d60c01b614372565b61204a67f3f5c689d9ff9e6860c01b614372565b60008160405160200161205d9190615d70565b60405160208183030381529060405251600036905061207c9190615dc1565b905061209267c40954ddc421499360c01b614372565b6120a6670956ed88dffa896c60c01b614372565b60008054906101000a900473ffffffffffffffffffffffffffffffffffffffff1673ffffffffffffffffffffffffffffffffffffffff1663157432e48333306000357fffffffff0000000000000000000000000000000000000000000000000000000016600036600090899261211e93929190615dff565b60016040518863ffffffff1660e01b81526004016121429796959493929190615e96565b600060405180830381865afa15801561215f573d6000803e3d6000fd5b505050506040513d6000823e3d601f19601f82011682018060405250810190612188919061605a565b5061219d67809d7fa40dde659c60c01b614372565b6121b1675f3281ba9f53658760c01b6103b7565b6121c5672c24a0272d01842460c01b6103b7565b6121d9670811d9e1f6fa325d60c01b6103b7565b6121ed67ac6838e142e8bf9860c01b6103b7565b60408585905060058054905061220391906166ce565b111561226c5761221d675334a45f4cdf6c5a60c01b6103b7565b612231677404ff72e334a81a60c01b6103b7565b6040517fc3d24d9c00000000000000000000000000000000000000000000000000000000815260040161226390616774565b60405180910390fd5b61228067b69a2444ec030d1760c01b6103b7565b61229467f754735210772d0060c01b6103b7565b6122a867930d1c722ab63db360c01b6103b7565b60005b8585905081101561231f576122ca679cc29b460d995d3e60c01b6103b7565b60058686838181106122df576122de616115565b5b9050602002013590806001815401808255809150506001900390600052602060002001600090919091909150558080612317906162b6565b9150506122ab565b506123346750eea704d6e35ed760c01b6103b7565b6123486787757bf703e514d660c01b6103b7565b7f544546aff9600397e6304978c08ffb59b1b0fd446d1a4abf65aecf26b76ae86185856040516123799291906167fe565b60405180910390a1612395673b04e6918293d40860c01b614372565b60018060008480606001906123aa91906160b2565b60008181106123bc576123bb616115565b5b90506020028101906123ce9190616144565b6040516123dc9291906161d7565b6040518091039020815260200190815260200160002060006101000a81548160ff0219169083151502179055505050505050565b6124246788c75c51c28e457e60c01b6103b7565b61242c61488f565b61244067ee29a40805aefd5060c01b6103b7565b61245467929473437130f9a260c01b6103b7565b806124696733fd69fd2e1b27ab60c01b614372565b61247d670491372879f9441360c01b614372565b61249167787c9793bc133c1060c01b614372565b60008054906101000a900473ffffffffffffffffffffffffffffffffffffffff1673ffffffffffffffffffffffffffffffffffffffff16635c975abb6040518163ffffffff1660e01b8152600401602060405180830381865afa1580156124fc573d6000803e3d6000fd5b505050506040513d601f19601f820116820180604052508101906125209190615a14565b156126855761253967d887c0bc9ea4803560c01b614372565b61254d672fa92d157a82c20560c01b614372565b61256167161317a95f32faf060c01b614372565b60008054906101000a900473ffffffffffffffffffffffffffffffffffffffff1673ffffffffffffffffffffffffffffffffffffffff163073ffffffffffffffffffffffffffffffffffffffff16148015612605575063da1f874d60e01b6000357fffffffff00000000000000000000000000000000000000000000000000000000167bffffffffffffffffffffffffffffffffffffffffffffffffffffffff1916145b61266c5761261d67706819e127f1c0cc60c01b614372565b61263167fa2a1d0c41028e6060c01b614372565b6040517f2022058300000000000000000000000000000000000000000000000000000000815260040161266390615a9e565b60405180910390fd5b61268067f8a9a4ac1202b7ce60c01b614372565b61269a565b612699676f0c80aa3a6c233e60c01b614372565b5b6126ae679821629509884a9d60c01b614372565b6126c267f3f5c689d9ff9e6860c01b614372565b6000816040516020016126d59190615d70565b6040516020818303038152906040525160003690506126f49190615dc1565b905061270a67c40954ddc421499360c01b614372565b61271e670956ed88dffa896c60c01b614372565b60008054906101000a900473ffffffffffffffffffffffffffffffffffffffff1673ffffffffffffffffffffffffffffffffffffffff1663157432e48333306000357fffffffff0000000000000000000000000000000000000000000000000000000016600036600090899261279693929190615dff565b60016040518863ffffffff1660e01b81526004016127ba9796959493929190615e96565b600060405180830381865afa1580156127d7573d6000803e3d6000fd5b505050506040513d6000823e3d601f19601f82011682018060405250810190612800919061605a565b5061281567809d7fa40dde659c60c01b614372565b6128296752e871b019ab1e1e60c01b6103b7565b61283d6759b8276b4fef0d8960c01b6103b7565b61285167e40eecafb9d20e1660c01b6103b7565b61286567d1ad48df8bc56e8460c01b6103b7565b60008573ffffffffffffffffffffffffffffffffffffffff168560405161288b90616848565b60006040518083038185875af1925050503d80600081146128c8576040519150601f19603f3d011682016040523d82523d6000602084013e6128cd565b606091505b505090506128e56752735e1bb422b1ed60c01b6103b7565b6128f967d2a2f3b4d832ce5c60c01b6103b7565b61290d67a07381473b26154960c01b6103b7565b8061291757600080fd5b61292b67dab7d55657fe88e960c01b6103b7565b50612940673b04e6918293d40860c01b614372565b600180600084806060019061295591906160b2565b600081811061296757612966616115565b5b90506020028101906129799190616144565b6040516129879291906161d7565b6040518091039020815260200190815260200160002060006101000a81548160ff02191690831515021790555050506129be6148de565b505050565b600460009054906101000a900460ff1681565b6129ea673fc6e29d6cabc5fb60c01b6103b7565b806129ff6733fd69fd2e1b27ab60c01b614372565b612a13670491372879f9441360c01b614372565b612a2767787c9793bc133c1060c01b614372565b60008054906101000a900473ffffffffffffffffffffffffffffffffffffffff1673ffffffffffffffffffffffffffffffffffffffff16635c975abb6040518163ffffffff1660e01b8152600401602060405180830381865afa158015612a92573d6000803e3d6000fd5b505050506040513d601f19601f82011682018060405250810190612ab69190615a14565b15612c1b57612acf67d887c0bc9ea4803560c01b614372565b612ae3672fa92d157a82c20560c01b614372565b612af767161317a95f32faf060c01b614372565b60008054906101000a900473ffffffffffffffffffffffffffffffffffffffff1673ffffffffffffffffffffffffffffffffffffffff163073ffffffffffffffffffffffffffffffffffffffff16148015612b9b575063da1f874d60e01b6000357fffffffff00000000000000000000000000000000000000000000000000000000167bffffffffffffffffffffffffffffffffffffffffffffffffffffffff1916145b612c0257612bb367706819e127f1c0cc60c01b614372565b612bc767fa2a1d0c41028e6060c01b614372565b6040517f20220583000000000000000000000000000000000000000000000000000000008152600401612bf990615a9e565b60405180910390fd5b612c1667f8a9a4ac1202b7ce60c01b614372565b612c30565b612c2f676f0c80aa3a6c233e60c01b614372565b5b612c44679821629509884a9d60c01b614372565b612c5867f3f5c689d9ff9e6860c01b614372565b600081604051602001612c6b9190615d70565b604051602081830303815290604052516000369050612c8a9190615dc1565b9050612ca067c40954ddc421499360c01b614372565b612cb4670956ed88dffa896c60c01b614372565b60008054906101000a900473ffffffffffffffffffffffffffffffffffffffff1673ffffffffffffffffffffffffffffffffffffffff1663157432e48333306000357fffffffff00000000000000000000000000000000000000000000000000000000166000366000908992612d2c93929190615dff565b60016040518863ffffffff1660e01b8152600401612d509796959493929190615e96565b600060405180830381865afa158015612d6d573d6000803e3d6000fd5b505050506040513d6000823e3d601f19601f82011682018060405250810190612d96919061605a565b50612dab67809d7fa40dde659c60c01b614372565b612dbf6707c65817deb9163960c01b6103b7565b612dd3670dd2a01efc4871e860c01b6103b7565b612de76706fd15489799ed0d60c01b6103b7565b612dfb678aaa759b4a2914ba60c01b6103b7565b612e0585856148e8565b612e19673b04e6918293d40860c01b614372565b6001806000848060600190612e2e91906160b2565b6000818110612e4057612e3f616115565b5b9050602002810190612e529190616144565b604051612e609291906161d7565b6040518091039020815260200190815260200160002060006101000a81548160ff0219169083151502179055505050505050565b6060612eaa674d4f8d1876d0890260c01b6103b7565b612ebe67c8e09e7acf69a7f760c01b6103b7565b612ed267c0d1bc3178d34d0960c01b6103b7565b6000600860008573ffffffffffffffffffffffffffffffffffffffff1673ffffffffffffffffffffffffffffffffffffffff1681526020019081526020016000206000847bffffffffffffffffffffffffffffffffffffffffffffffffffffffff19167bffffffffffffffffffffffffffffffffffffffffffffffffffffffff19168152602001908152602001600020549050612f79674a6f5ccbf0b4274860c01b6103b7565b612f8d676a0694a768a9d83560c01b6103b7565b6007600082815260200190815260200160002080548060200260200160405190810160405280929190818152602001828054801561302857602002820191906000526020600020906000905b82829054906101000a900460c01b77ffffffffffffffffffffffffffffffffffffffffffffffff191681526020019060080190602082600701049283019260010382029150808411612fd95790505b505050505091505092915050565b600061304c67ed32db2ff3d0f17560c01b6103b7565b613060678ba08ca14d5f5f4e60c01b6103b7565b61307467e61429e36f647e4360c01b6103b7565b600660008373ffffffffffffffffffffffffffffffffffffffff1673ffffffffffffffffffffffffffffffffffffffff16815260200190815260200160002060009054906101000a900460c01b9050919050565b60606130de67ae81684efdc3c43160c01b6103b7565b6130f267bfcf471ec9bb370560c01b6103b7565b6131066716b6b81f1554357d60c01b6103b7565b600580548060200260200160405190810160405280929190818152602001828054801561315257602002820191906000526020600020905b81548152602001906001019080831161313e575b5050505050905090565b6060613172672370ab49229af18f60c01b6103b7565b61318667a238a7a4af21f2a160c01b6103b7565b61319a67c3e1bffcebc9aa9f60c01b6103b7565b6007600083815260200190815260200160002080548060200260200160405190810160405280929190818152602001828054801561323557602002820191906000526020600020906000905b82829054906101000a900460c01b77ffffffffffffffffffffffffffffffffffffffffffffffff1916815260200190600801906020826007010492830192600103820291508084116131e65790505b50505050509050919050565b613255673469d8503c6c3e5e60c01b6103b7565b8061326a6733fd69fd2e1b27ab60c01b614372565b61327e670491372879f9441360c01b614372565b61329267787c9793bc133c1060c01b614372565b60008054906101000a900473ffffffffffffffffffffffffffffffffffffffff1673ffffffffffffffffffffffffffffffffffffffff16635c975abb6040518163ffffffff1660e01b8152600401602060405180830381865afa1580156132fd573d6000803e3d6000fd5b505050506040513d601f19601f820116820180604052508101906133219190615a14565b156134865761333a67d887c0bc9ea4803560c01b614372565b61334e672fa92d157a82c20560c01b614372565b61336267161317a95f32faf060c01b614372565b60008054906101000a900473ffffffffffffffffffffffffffffffffffffffff1673ffffffffffffffffffffffffffffffffffffffff163073ffffffffffffffffffffffffffffffffffffffff16148015613406575063da1f874d60e01b6000357fffffffff00000000000000000000000000000000000000000000000000000000167bffffffffffffffffffffffffffffffffffffffffffffffffffffffff1916145b61346d5761341e67706819e127f1c0cc60c01b614372565b61343267fa2a1d0c41028e6060c01b614372565b6040517f2022058300000000000000000000000000000000000000000000000000000000815260040161346490615a9e565b60405180910390fd5b61348167f8a9a4ac1202b7ce60c01b614372565b61349b565b61349a676f0c80aa3a6c233e60c01b614372565b5b6134af679821629509884a9d60c01b614372565b6134c367f3f5c689d9ff9e6860c01b614372565b6000816040516020016134d69190615d70565b6040516020818303038152906040525160003690506134f59190615dc1565b905061350b67c40954ddc421499360c01b614372565b61351f670956ed88dffa896c60c01b614372565b60008054906101000a900473ffffffffffffffffffffffffffffffffffffffff1673ffffffffffffffffffffffffffffffffffffffff1663157432e48333306000357fffffffff0000000000000000000000000000000000000000000000000000000016600036600090899261359793929190615dff565b60016040518863ffffffff1660e01b81526004016135bb9796959493929190615e96565b600060405180830381865afa1580156135d8573d6000803e3d6000fd5b505050506040513d6000823e3d601f19601f82011682018060405250810190613601919061605a565b5061361667809d7fa40dde659c60c01b614372565b61362a671583dab70a3f48cc60c01b6103b7565b61363e67b22ac6b93c2972ae60c01b6103b7565b61365267151afd653d1534bf60c01b6103b7565b6000600460006101000a81548160ff02191690831515021790555061368167f3895eda16e90ab660c01b6103b7565b61369567b9a67d38ca10db7360c01b6103b7565b7fa45f47fdea8a1efdd9029a5691c7f759c32b7c698632b563573e155625d1693360405160405180910390a16136d5673b04e6918293d40860c01b614372565b60018060008480606001906136ea91906160b2565b60008181106136fc576136fb616115565b5b905060200281019061370e9190616144565b60405161371c9291906161d7565b6040518091039020815260200190815260200160002060006101000a81548160ff021916908315150217905550505050565b6137626763ab4b6a26a6801260c01b6103b7565b6000600260019054906101000a900460ff1615905080801561379657506001600260009054906101000a900460ff1660ff16105b806137c557506137a530614a37565b1580156137c457506001600260009054906101000a900460ff1660ff16145b5b613804576040517f08c379a00000000000000000000000000000000000000000000000000000000081526004016137fb906168cf565b60405180910390fd5b6001600260006101000a81548160ff021916908360ff1602179055508015613842576001600260016101000a81548160ff0219169083151502179055505b61385667f386391c696ac56e60c01b6103b7565b61386a6788f7290b4c3464b060c01b6103b7565b61387e67e0c51c1214e877e660c01b6103b7565b306000806101000a81548173ffffffffffffffffffffffffffffffffffffffff021916908373ffffffffffffffffffffffffffffffffffffffff1602179055506138d267ef7f91fd4d45c71e60c01b6103b7565b6000600460006101000a81548160ff0219169083151502179055506139016711a0902bf336706960c01b6103b7565b6139156755543e4163ef109260c01b6103b7565b604087879050111561398457613935670d502adaab35bb2160c01b6103b7565b61394967ba0661af4f47b7b160c01b6103b7565b6040517fc3d24d9c00000000000000000000000000000000000000000000000000000000815260040161397b90616774565b60405180910390fd5b613998673275e6c8725f47e660c01b6103b7565b6139ac67fcd88e971f991c7c60c01b6103b7565b8686600591906139bd929190614d71565b506139d267504b366d0fd8393a60c01b6103b7565b6139e6678d347768c28a6e9960c01b6103b7565b7f544546aff9600397e6304978c08ffb59b1b0fd446d1a4abf65aecf26b76ae8618787604051613a179291906167fe565b60405180910390a1613a3367af85e8053c5ebd8a60c01b6103b7565b613a476768b2b5456ca3e07260c01b6103b7565b60005b85859050811015613af857613a69673167de95590c615760c01b6103b7565b613a7d67ac76697811f31cf160c01b6103b7565b6000868683818110613a9257613a91616115565b5b905060400201803603810190613aa89190616944565b9050613abe67e2154ba24a65b8b660c01b6103b7565b613ad267fb9c5ee64b71d15d60c01b6103b7565b613ae4816000015182602001516148e8565b508080613af0906162b6565b915050613a4a565b50613b0d67b496852b95df91e060c01b6103b7565b613b2167d6d7f174a6c6f84f60c01b6103b7565b613b8c7f61646d696e2d72756c6500000000000000000000000000000000000000000000848480806020026020016040519081016040528093929190818152602001838360200280828437600081840152601f19601f82011690508083019250505050505050614503565b613ba067c03f397c95383d7260c01b6103b7565b613bb4675ae06a277dbb5d5d60c01b6103b7565b613be630634aece76e60e01b7f61646d696e2d72756c6500000000000000000000000000000000000000000000614375565b613bfa67d11040aab38c047e60c01b6103b7565b613c0e6709417fd2ea11563a60c01b6103b7565b613c4030635ebbc32a60e01b7f61646d696e2d72756c6500000000000000000000000000000000000000000000614375565b613c546713bf2dda9e9586ce60c01b6103b7565b613c6867f72cbfd3b036276860c01b6103b7565b613c9a30631df0be8460e01b7f61646d696e2d72756c6500000000000000000000000000000000000000000000614375565b613cae6712dac03c4007234060c01b6103b7565b613cc267edb50d01c4bd3c6760c01b6103b7565b613cf4306302eba6ce60e01b7f61646d696e2d72756c6500000000000000000000000000000000000000000000614375565b613d0867c6ec3fd01291f18f60c01b6103b7565b613d1c673ba8d9f1a565bc6960c01b6103b7565b613d4e3063e1b7351f60e01b7f61646d696e2d72756c6500000000000000000000000000000000000000000000614375565b613d626726c4bd2b6293427460c01b6103b7565b613d766794178b2db8a2d51860c01b6103b7565b613da83063da1f874d60e01b7f61646d696e2d72756c6500000000000000000000000000000000000000000000614375565b613dbc674817cbaa1f207e0060c01b6103b7565b613dd06751ab09b3ba34584c60c01b6103b7565b613e02306350542f2a60e01b7f61646d696e2d72756c6500000000000000000000000000000000000000000000614375565b8015613e5c576000600260016101000a81548160ff0219169083151502179055507f7f26b83ff96e1f2b6a682f133852f6798a09c465da95921460cefb38474024986001604051613e5391906169c3565b60405180910390a15b50505050505050565b613e79676b90087330aee31060c01b6103b7565b80613e8e6733fd69fd2e1b27ab60c01b614372565b613ea2670491372879f9441360c01b614372565b613eb667787c9793bc133c1060c01b614372565b60008054906101000a900473ffffffffffffffffffffffffffffffffffffffff1673ffffffffffffffffffffffffffffffffffffffff16635c975abb6040518163ffffffff1660e01b8152600401602060405180830381865afa158015613f21573d6000803e3d6000fd5b505050506040513d601f19601f82011682018060405250810190613f459190615a14565b156140aa57613f5e67d887c0bc9ea4803560c01b614372565b613f72672fa92d157a82c20560c01b614372565b613f8667161317a95f32faf060c01b614372565b60008054906101000a900473ffffffffffffffffffffffffffffffffffffffff1673ffffffffffffffffffffffffffffffffffffffff163073ffffffffffffffffffffffffffffffffffffffff1614801561402a575063da1f874d60e01b6000357fffffffff00000000000000000000000000000000000000000000000000000000167bffffffffffffffffffffffffffffffffffffffffffffffffffffffff1916145b6140915761404267706819e127f1c0cc60c01b614372565b61405667fa2a1d0c41028e6060c01b614372565b6040517f2022058300000000000000000000000000000000000000000000000000000000815260040161408890615a9e565b60405180910390fd5b6140a567f8a9a4ac1202b7ce60c01b614372565b6140bf565b6140be676f0c80aa3a6c233e60c01b614372565b5b6140d3679821629509884a9d60c01b614372565b6140e767f3f5c689d9ff9e6860c01b614372565b6000816040516020016140fa9190615d70565b6040516020818303038152906040525160003690506141199190615dc1565b905061412f67c40954ddc421499360c01b614372565b614143670956ed88dffa896c60c01b614372565b60008054906101000a900473ffffffffffffffffffffffffffffffffffffffff1673ffffffffffffffffffffffffffffffffffffffff1663157432e48333306000357fffffffff000000000000000000000000000000000000000000000000000000001660003660009089926141bb93929190615dff565b60016040518863ffffffff1660e01b81526004016141df9796959493929190615e96565b600060405180830381865afa1580156141fc573d6000803e3d6000fd5b505050506040513d6000823e3d601f19601f82011682018060405250810190614225919061605a565b5061423a67809d7fa40dde659c60c01b614372565b61424e676e1d6c079701909b60c01b6103b7565b6142626752fba0e2f8114b7f60c01b6103b7565b61427667c278402cf2847c0460c01b6103b7565b6001600460006101000a81548160ff0219169083151502179055506142a56793b9a9bbb0952eb660c01b6103b7565b6142b967211282e5d3361c0260c01b6103b7565b7f9e87fac88ff661f02d44f95383c817fece4bce600a3dab7a54406878b965e75260405160405180910390a16142f9673b04e6918293d40860c01b614372565b600180600084806060019061430e91906160b2565b60008181106143205761431f616115565b5b90506020028101906143329190616144565b6040516143409291906161d7565b6040518091039020815260200190815260200160002060006101000a81548160ff021916908315150217905550505050565b50565b61438967b54fd9908f148be560c01b6103b7565b61439d67cced3b2f81b6f1a560c01b6103b7565b80600860008573ffffffffffffffffffffffffffffffffffffffff1673ffffffffffffffffffffffffffffffffffffffff1681526020019081526020016000206000847bffffffffffffffffffffffffffffffffffffffffffffffffffffffff19167bffffffffffffffffffffffffffffffffffffffffffffffffffffffff19168152602001908152602001600020819055506144446756b81dd39e9df2ea60c01b6103b7565b614458679da62924d59bafaf60c01b6103b7565b808373ffffffffffffffffffffffffffffffffffffffff167fb95d268dea281d3c04b7bfc67a18329d597c04f2c4a339d9507f286135bf81668460405161449f91906169de565b60405180910390a3505050565b6000816040516020016144bf9190616a71565b604051602081830303815290604052805190602001209050919050565b60008060006144eb8585614a5a565b915091506144f881614aab565b819250505092915050565b614517675b70eb8c0ab1465360c01b6103b7565b61452b6775b97bc2ed03839860c01b6103b7565b61453f679eeb6cca6fbdf38c60c01b6103b7565b6000801b82036145985761455d67db7c0e3e95d5c99d60c01b6103b7565b6040517fc3d24d9c00000000000000000000000000000000000000000000000000000000815260040161458f90616ae3565b60405180910390fd5b6145ac671bab21b65029d9e160c01b6103b7565b6145c0671c71ef70a4a30ec860c01b6103b7565b6145d467f607428735cd04df60c01b6103b7565b60006007600084815260200190815260200160002080549050111561465657614607678f6d8067bfc7a64360c01b6103b7565b61461b670bf5254555efc64260c01b6103b7565b6040517fc3d24d9c00000000000000000000000000000000000000000000000000000000815260040161464d90616b4f565b60405180910390fd5b61466a67f607095bbfe5046860c01b6103b7565b61467e67953630f78b9811a360c01b6103b7565b614692679e2e03928c69d3ae60c01b6103b7565b60008151036146ea576146af67d742ed0149d1a75d60c01b6103b7565b6040517fc3d24d9c0000000000000000000000000000000000000000000000000000000081526004016146e190616bbb565b60405180910390fd5b6146fe67ff1dec3c8273970560c01b6103b7565b61471267df186fa805039af360c01b6103b7565b61472667c107759c9527a14b60c01b6103b7565b6000614730614c11565b90506147466750ba3053676123b960c01b6103b7565b61475a6742182720b4d2b03a60c01b6103b7565b60005b82518110156147ed578183828151811061477a57614779616115565b5b60200260200101511683828151811061479657614795616115565b5b602002602001019077ffffffffffffffffffffffffffffffffffffffffffffffff1916908177ffffffffffffffffffffffffffffffffffffffffffffffff19168152505080806147e5906162b6565b91505061475d565b5061480267c51346adea12107060c01b6103b7565b81600760008581526020019081526020016000209080519060200190614829929190614dbe565b5061483e67a1209c8ba42bb45560c01b6103b7565b61485267d7f7211d394d507760c01b6103b7565b827ff92ed10a3a76164320f8908b68fbaa7925655941e20b9aa3d8e283f5826571c083604051614882919061576f565b60405180910390a2505050565b6002600354036148d4576040517f08c379a00000000000000000000000000000000000000000000000000000000081526004016148cb90616c27565b60405180910390fd5b6002600381905550565b6001600381905550565b6148fc67edde442d2b4cf48b60c01b6103b7565b61491067ce2c7b808337175060c01b6103b7565b6149246794b0bfa6af2dab9c60c01b6103b7565b600061492e614c11565b9050614944672f3a4f77e432b93e60c01b6103b7565b808216915061495d676203d3ca794e079160c01b6103b7565b81600660008573ffffffffffffffffffffffffffffffffffffffff1673ffffffffffffffffffffffffffffffffffffffff16815260200190815260200160002060006101000a81548167ffffffffffffffff021916908360c01c02179055506149d0678ddfb525740a159b60c01b6103b7565b6149e4670da4e1fb955c8c4760c01b6103b7565b8273ffffffffffffffffffffffffffffffffffffffff167f90ec3f76a8fc645fd9c626ef88dbeb60faff67f6a505e97861bb77558abf028f83604051614a2a91906157cd565b60405180910390a2505050565b6000808273ffffffffffffffffffffffffffffffffffffffff163b119050919050565b6000806041835103614a9b5760008060006020860151925060408601519150606086015160001a9050614a8f87828585614c8f565b94509450505050614aa4565b60006002915091505b9250929050565b60006004811115614abf57614abe616c47565b5b816004811115614ad257614ad1616c47565b5b0315614c0e5760016004811115614aec57614aeb616c47565b5b816004811115614aff57614afe616c47565b5b03614b3f576040517f08c379a0000000000000000000000000000000000000000000000000000000008152600401614b3690616cc2565b60405180910390fd5b60026004811115614b5357614b52616c47565b5b816004811115614b6657614b65616c47565b5b03614ba6576040517f08c379a0000000000000000000000000000000000000000000000000000000008152600401614b9d90616d2e565b60405180910390fd5b60036004811115614bba57614bb9616c47565b5b816004811115614bcd57614bcc616c47565b5b03614c0d576040517f08c379a0000000000000000000000000000000000000000000000000000000008152600401614c0490616dc0565b60405180910390fd5b5b50565b6000614c276721ac8504f6c3504360c01b6103b7565b614c3b677e74e0ca42214f7360c01b6103b7565b614c4f67a5d7e5b1a3fc939660c01b6103b7565b6005805490506040614c619190615dc1565b67ffffffffffffffff60c01b77ffffffffffffffffffffffffffffffffffffffffffffffff1916901c905090565b6000807f7fffffffffffffffffffffffffffffff5d576e7357a4501ddfe92f46681b20a08360001c1115614cca576000600391509150614d68565b600060018787878760405160008152602001604052604051614cef9493929190616dfe565b6020604051602081039080840390855afa158015614d11573d6000803e3d6000fd5b505050602060405103519050600073ffffffffffffffffffffffffffffffffffffffff168173ffffffffffffffffffffffffffffffffffffffff1603614d5f57600060019250925050614d68565b80600092509250505b94509492505050565b828054828255906000526020600020908101928215614dad579160200282015b82811115614dac578235825591602001919060010190614d91565b5b509050614dba9190614e73565b5090565b82805482825590600052602060002090600301600490048101928215614e625791602002820160005b83821115614e2c57835183826101000a81548167ffffffffffffffff021916908360c01c02179055509260200192600801602081600701049283019260010302614de7565b8015614e605782816101000a81549067ffffffffffffffff0219169055600801602081600701049283019260010302614e2c565b505b509050614e6f9190614e90565b5090565b5b80821115614e8c576000816000905550600101614e74565b5090565b5b80821115614ea9576000816000905550600101614e91565b5090565b6000604051905090565b600080fd5b600080fd5b600073ffffffffffffffffffffffffffffffffffffffff82169050919050565b6000614eec82614ec1565b9050919050565b614efc81614ee1565b8114614f0757600080fd5b50565b600081359050614f1981614ef3565b92915050565b60007fffffffff0000000000000000000000000000000000000000000000000000000082169050919050565b614f5481614f1f565b8114614f5f57600080fd5b50565b600081359050614f7181614f4b565b92915050565b6000819050919050565b614f8a81614f77565b8114614f9557600080fd5b50565b600081359050614fa781614f81565b92915050565b600080fd5b600060808284031215614fc857614fc7614fad565b5b81905092915050565b60008060008060808587031215614feb57614fea614eb7565b5b6000614ff987828801614f0a565b945050602061500a87828801614f62565b935050604061501b87828801614f98565b925050606085013567ffffffffffffffff81111561503c5761503b614ebc565b5b61504887828801614fb2565b91505092959194509250565b60006020828403121561506a57615069614eb7565b5b600082013567ffffffffffffffff81111561508857615087614ebc565b5b61509484828501614fb2565b91505092915050565b600080fd5b600080fd5b600080fd5b60008083601f8401126150c2576150c161509d565b5b8235905067ffffffffffffffff8111156150df576150de6150a2565b5b6020830191508360018202830111156150fb576150fa6150a7565b5b9250929050565b60008115159050919050565b61511781615102565b811461512257600080fd5b50565b6000813590506151348161510e565b92915050565b600080600080600080600060c0888a03121561515957615158614eb7565b5b600088013567ffffffffffffffff81111561517757615176614ebc565b5b6151838a828b01614fb2565b97505060206151948a828b01614f0a565b96505060406151a58a828b01614f0a565b95505060606151b68a828b01614f62565b945050608088013567ffffffffffffffff8111156151d7576151d6614ebc565b5b6151e38a828b016150ac565b935093505060a06151f68a828b01615125565b91505092959891949750929550565b600081519050919050565b600082825260208201905092915050565b6000819050602082019050919050565b61523a81614ee1565b82525050565b600061524c8383615231565b60208301905092915050565b6000602082019050919050565b600061527082615205565b61527a8185615210565b935061528583615221565b8060005b838110156152b657815161529d8882615240565b97506152a883615258565b925050600181019050615289565b5085935050505092915050565b600060208201905081810360008301526152dd8184615265565b905092915050565b60008083601f8401126152fb576152fa61509d565b5b8235905067ffffffffffffffff811115615318576153176150a2565b5b602083019150836020820283011115615334576153336150a7565b5b9250929050565b6000806000806060858703121561535557615354614eb7565b5b600061536387828801614f98565b945050602085013567ffffffffffffffff81111561538457615383614ebc565b5b615390878288016152e5565b9350935050604085013567ffffffffffffffff8111156153b3576153b2614ebc565b5b6153bf87828801614fb2565b91505092959194509250565b60008083601f8401126153e1576153e061509d565b5b8235905067ffffffffffffffff8111156153fe576153fd6150a2565b5b60208301915083602082028301111561541a576154196150a7565b5b9250929050565b60008060006040848603121561543a57615439614eb7565b5b600084013567ffffffffffffffff81111561545857615457614ebc565b5b615464868287016153cb565b9350935050602084013567ffffffffffffffff81111561548757615486614ebc565b5b61549386828701614fb2565b9150509250925092565b60006154a882614ec1565b9050919050565b6154b88161549d565b81146154c357600080fd5b50565b6000813590506154d5816154af565b92915050565b6000819050919050565b6154ee816154db565b81146154f957600080fd5b50565b60008135905061550b816154e5565b92915050565b60008060006060848603121561552a57615529614eb7565b5b6000615538868287016154c6565b9350506020615549868287016154fc565b925050604084013567ffffffffffffffff81111561556a57615569614ebc565b5b61557686828701614fb2565b9150509250925092565b61558981615102565b82525050565b60006020820190506155a46000830184615580565b92915050565b60007fffffffffffffffff00000000000000000000000000000000000000000000000082169050919050565b6155df816155aa565b81146155ea57600080fd5b50565b6000813590506155fc816155d6565b92915050565b60008060006060848603121561561b5761561a614eb7565b5b600061562986828701614f0a565b935050602061563a868287016155ed565b925050604084013567ffffffffffffffff81111561565b5761565a614ebc565b5b61566786828701614fb2565b9150509250925092565b6000806040838503121561568857615687614eb7565b5b600061569685828601614f0a565b92505060206156a785828601614f62565b9150509250929050565b600081519050919050565b600082825260208201905092915050565b6000819050602082019050919050565b6156e6816155aa565b82525050565b60006156f883836156dd565b60208301905092915050565b6000602082019050919050565b600061571c826156b1565b61572681856156bc565b9350615731836156cd565b8060005b8381101561576257815161574988826156ec565b975061575483615704565b925050600181019050615735565b5085935050505092915050565b600060208201905081810360008301526157898184615711565b905092915050565b6000602082840312156157a7576157a6614eb7565b5b60006157b584828501614f0a565b91505092915050565b6157c7816155aa565b82525050565b60006020820190506157e260008301846157be565b92915050565b600081519050919050565b600082825260208201905092915050565b6000819050602082019050919050565b61581d81614f77565b82525050565b600061582f8383615814565b60208301905092915050565b6000602082019050919050565b6000615853826157e8565b61585d81856157f3565b935061586883615804565b8060005b838110156158995781516158808882615823565b975061588b8361583b565b92505060018101905061586c565b5085935050505092915050565b600060208201905081810360008301526158c08184615848565b905092915050565b6000602082840312156158de576158dd614eb7565b5b60006158ec84828501614f98565b91505092915050565b60008083601f84011261590b5761590a61509d565b5b8235905067ffffffffffffffff811115615928576159276150a2565b5b602083019150836040820283011115615944576159436150a7565b5b9250929050565b6000806000806000806060878903121561596857615967614eb7565b5b600087013567ffffffffffffffff81111561598657615985614ebc565b5b61599289828a016153cb565b9650965050602087013567ffffffffffffffff8111156159b5576159b4614ebc565b5b6159c189828a016158f5565b9450945050604087013567ffffffffffffffff8111156159e4576159e3614ebc565b5b6159f089828a016152e5565b92509250509295509295509295565b600081519050615a0e8161510e565b92915050565b600060208284031215615a2a57615a29614eb7565b5b6000615a38848285016159ff565b91505092915050565b600082825260208201905092915050565b7f54686520536869656c6420697320706175736564000000000000000000000000600082015250565b6000615a88601483615a41565b9150615a9382615a52565b602082019050919050565b60006020820190508181036000830152615ab781615a7b565b9050919050565b6000615acd6020840184614f0a565b905092915050565b600080fd5b600080fd5b600080fd5b60008083356001602003843603038112615b0157615b00615adf565b5b83810192508235915060208301925067ffffffffffffffff821115615b2957615b28615ad5565b5b600182023603831315615b3f57615b3e615ada565b5b509250929050565b600082825260208201905092915050565b82818337600083830152505050565b6000601f19601f8301169050919050565b6000615b848385615b47565b9350615b91838584615b58565b615b9a83615b67565b840190509392505050565b6000615bb460208401846154fc565b905092915050565b615bc5816154db565b82525050565b60008083356001602003843603038112615be857615be7615adf565b5b83810192508235915060208301925067ffffffffffffffff821115615c1057615c0f615ad5565b5b602082023603831315615c2657615c25615ada565b5b509250929050565b600082825260208201905092915050565b6000819050919050565b6000615c56848484615b78565b90509392505050565b6000602082019050919050565b6000615c788385615c2e565b935083602084028501615c8a84615c3f565b8060005b87811015615cd0578484038952615ca58284615ae4565b615cb0868284615c49565b9550615cbb84615c5f565b935060208b019a505050600181019050615c8e565b50829750879450505050509392505050565b600060808301615cf56000840184615abe565b615d026000860182615231565b50615d106020840184615ae4565b8583036020870152615d23838284615b78565b92505050615d346040840184615ba5565b615d416040860182615bbc565b50615d4f6060840184615bcb565b8583036060870152615d62838284615c6c565b925050508091505092915050565b60006020820190508181036000830152615d8a8184615ce2565b905092915050565b7f4e487b7100000000000000000000000000000000000000000000000000000000600052601160045260246000fd5b6000615dcc826154db565b9150615dd7836154db565b9250828203905081811115615def57615dee615d92565b5b92915050565b600080fd5b600080fd5b60008085851115615e1357615e12615df5565b5b83861115615e2457615e23615dfa565b5b6001850283019150848603905094509492505050565b615e4381614ee1565b82525050565b615e5281614f1f565b82525050565b600082825260208201905092915050565b6000615e758385615e58565b9350615e82838584615b58565b615e8b83615b67565b840190509392505050565b600060c0820190508181036000830152615eb0818a615ce2565b9050615ebf6020830189615e3a565b615ecc6040830188615e3a565b615ed96060830187615e49565b8181036080830152615eec818587615e69565b9050615efb60a0830184615580565b98975050505050505050565b7f4e487b7100000000000000000000000000000000000000000000000000000000600052604160045260246000fd5b615f3f82615b67565b810181811067ffffffffffffffff82111715615f5e57615f5d615f07565b5b80604052505050565b6000615f71614ead565b9050615f7d8282615f36565b919050565b600067ffffffffffffffff821115615f9d57615f9c615f07565b5b602082029050602081019050919050565b600081519050615fbd81614ef3565b92915050565b6000615fd6615fd184615f82565b615f67565b90508083825260208201905060208402830185811115615ff957615ff86150a7565b5b835b81811015616022578061600e8882615fae565b845260208401935050602081019050615ffb565b5050509392505050565b600082601f8301126160415761604061509d565b5b8151616051848260208601615fc3565b91505092915050565b6000602082840312156160705761606f614eb7565b5b600082015167ffffffffffffffff81111561608e5761608d614ebc565b5b61609a8482850161602c565b91505092915050565b600080fd5b600080fd5b600080fd5b600080833560016020038436030381126160cf576160ce6160a3565b5b80840192508235915067ffffffffffffffff8211156160f1576160f06160a8565b5b60208301925060208202360383131561610d5761610c6160ad565b5b509250929050565b7f4e487b7100000000000000000000000000000000000000000000000000000000600052603260045260246000fd5b60008083356001602003843603038112616161576161606160a3565b5b80840192508235915067ffffffffffffffff821115616183576161826160a8565b5b60208301925060018202360383131561619f5761619e6160ad565b5b509250929050565b600081905092915050565b60006161be83856161a7565b93506161cb838584615b58565b82840190509392505050565b60006161e48284866161b2565b91508190509392505050565b6161f9816154db565b82525050565b60006060820190506162146000830187615e3a565b8181036020830152616227818587615e69565b905061623660408301846161f0565b95945050505050565b600082905092915050565b600082821b905092915050565b6000616263838361623f565b8261626e8135614f1f565b925060048210156162ae576162a97fffffffff000000000000000000000000000000000000000000000000000000008360040360080261624a565b831692505b505092915050565b60006162c1826154db565b91507fffffffffffffffffffffffffffffffffffffffffffffffffffffffffffffffff82036162f3576162f2615d92565b5b600182019050919050565b7f436f6e7472616374206d69736d61746368000000000000000000000000000000600082015250565b6000616334601183615a41565b915061633f826162fe565b602082019050919050565b6000602082019050818103600083015261636381616327565b9050919050565b7f46756e6374696f6e206d69736d61746368000000000000000000000000000000600082015250565b60006163a0601183615a41565b91506163ab8261636a565b602082019050919050565b600060208201905081810360008301526163cf81616393565b9050919050565b7f417070726f76616c732063616e6e6f7420626520656d70747900000000000000600082015250565b600061640c601983615a41565b9150616417826163d6565b602082019050919050565b6000602082019050818103600083015261643b816163ff565b9050919050565b7f496e636f7272656374206e756d626572206f6620617070726f76616c73000000600082015250565b6000616478601d83615a41565b915061648382616442565b602082019050919050565b600060208201905081810360008301526164a78161646b565b9050919050565b7f43726564656e7469616c732068617665206265656e207573656420616c72656160008201527f6479000000000000000000000000000000000000000000000000000000000000602082015250565b600061650a602283615a41565b9150616515826164ae565b604082019050919050565b60006020820190508181036000830152616539816164fd565b9050919050565b6000602082019050818103600083015261655b818486615e69565b90509392505050565b7f506f6c6963792076696f6c6174696f6e00000000000000000000000000000000600082015250565b600061659a601083615a41565b91506165a582616564565b602082019050919050565b600060208201905081810360008301526165c98161658d565b9050919050565b7f546865206f776e6572206d75737420626520746865206669727374206170707260008201527f6f76657200000000000000000000000000000000000000000000000000000000602082015250565b600061662c602483615a41565b9150616637826165d0565b604082019050919050565b6000602082019050818103600083015261665b8161661f565b9050919050565b7f53616d6520616464726573732063616e6e6f74207369676e2074776963650000600082015250565b6000616698601e83615a41565b91506166a382616662565b602082019050919050565b600060208201905081810360008301526166c78161668b565b9050919050565b60006166d9826154db565b91506166e4836154db565b92508282019050808211156166fc576166fb615d92565b5b92915050565b7f54686520536869656c642063616e6e6f742068617665206d6f7265207468616e60008201527f20363420726f6c65730000000000000000000000000000000000000000000000602082015250565b600061675e602983615a41565b915061676982616702565b604082019050919050565b6000602082019050818103600083015261678d81616751565b9050919050565b600080fd5b82818337505050565b60006167ae83856157f3565b93507f07ffffffffffffffffffffffffffffffffffffffffffffffffffffffffffffff8311156167e1576167e0616794565b5b6020830292506167f2838584616799565b82840190509392505050565b600060208201905081810360008301526168198184866167a2565b90509392505050565b50565b60006168326000836161a7565b915061683d82616822565b600082019050919050565b600061685382616825565b9150819050919050565b7f496e697469616c697a61626c653a20636f6e747261637420697320616c72656160008201527f647920696e697469616c697a6564000000000000000000000000000000000000602082015250565b60006168b9602e83615a41565b91506168c48261685d565b604082019050919050565b600060208201905081810360008301526168e8816168ac565b9050919050565b600080fd5b60006040828403121561690a576169096168ef565b5b6169146040615f67565b9050600061692484828501614f0a565b6000830152506020616938848285016155ed565b60208301525092915050565b60006040828403121561695a57616959614eb7565b5b6000616968848285016168f4565b91505092915050565b6000819050919050565b600060ff82169050919050565b6000819050919050565b60006169ad6169a86169a384616971565b616988565b61697b565b9050919050565b6169bd81616992565b82525050565b60006020820190506169d860008301846169b4565b92915050565b60006020820190506169f36000830184615e49565b92915050565b600081905092915050565b7f19457468657265756d205369676e6564204d6573736167653a0a333200000000600082015250565b6000616a3a601c836169f9565b9150616a4582616a04565b601c82019050919050565b6000819050919050565b616a6b616a6682614f77565b616a50565b82525050565b6000616a7c82616a2d565b9150616a888284616a5a565b60208201915081905092915050565b7f556e646566696e6564206c6162656c0000000000000000000000000000000000600082015250565b6000616acd600f83615a41565b9150616ad882616a97565b602082019050919050565b60006020820190508181036000830152616afc81616ac0565b9050919050565b7f4c6162656c20616c726561647920657869737473000000000000000000000000600082015250565b6000616b39601483615a41565b9150616b4482616b03565b602082019050919050565b60006020820190508181036000830152616b6881616b2c565b9050919050565b7f506f6c6963792063616e6e6f7420626520656d70747900000000000000000000600082015250565b6000616ba5601683615a41565b9150616bb082616b6f565b602082019050919050565b60006020820190508181036000830152616bd481616b98565b9050919050565b7f5265656e7472616e637947756172643a207265656e7472616e742063616c6c00600082015250565b6000616c11601f83615a41565b9150616c1c82616bdb565b602082019050919050565b60006020820190508181036000830152616c4081616c04565b9050919050565b7f4e487b7100000000000000000000000000000000000000000000000000000000600052602160045260246000fd5b7f45434453413a20696e76616c6964207369676e61747572650000000000000000600082015250565b6000616cac601883615a41565b9150616cb782616c76565b602082019050919050565b60006020820190508181036000830152616cdb81616c9f565b9050919050565b7f45434453413a20696e76616c6964207369676e6174757265206c656e67746800600082015250565b6000616d18601f83615a41565b9150616d2382616ce2565b602082019050919050565b60006020820190508181036000830152616d4781616d0b565b9050919050565b7f45434453413a20696e76616c6964207369676e6174757265202773272076616c60008201527f7565000000000000000000000000000000000000000000000000000000000000602082015250565b6000616daa602283615a41565b9150616db582616d4e565b604082019050919050565b60006020820190508181036000830152616dd981616d9d565b9050919050565b616de981614f77565b82525050565b616df88161697b565b82525050565b6000608082019050616e136000830187616de0565b616e206020830186616def565b616e2d6040830185616de0565b616e3a6060830184616de0565b9594505050505056fea2646970667358221220eb76201285a5a41f4b1db94d11454b312ed0ee24d339db4a9ec93a3286895bae64736f6c63430008110033",
  "linkReferences": {},
  "deployedLinkReferences": {}
}