{
  "_format": "hh-sol-artifact-1",
  "contractName": "ShieldFactory",
  "sourceName": "contracts/ShieldFactory.sol",
  "abi": [
    {
      "inputs": [],
      "stateMutability": "nonpayable",
      "type": "constructor"
    },
    {
      "anonymous": false,
      "inputs": [
        {
          "indexed": false,
          "internalType": "address",
          "name": "creator",
          "type": "address"
        },
        {
          "indexed": true,
          "internalType": "address",
          "name": "shield",
          "type": "address"
        },
        {
          "indexed": false,
          "internalType": "bytes32",
          "name": "name",
          "type": "bytes32"
        }
      ],
      "name": "ShieldCreated",
      "type": "event"
    },
    {
      "anonymous": false,
      "inputs": [
        {
          "indexed": false,
          "internalType": "address",
          "name": "shield",
          "type": "address"
        },
        {
          "indexed": false,
          "internalType": "address",
          "name": "user",
          "type": "address"
        }
      ],
      "name": "UserAdded",
      "type": "event"
    },
    {
      "inputs": [
        {
          "internalType": "address",
          "name": "shield",
          "type": "address"
        },
        {
          "internalType": "address",
          "name": "user",
          "type": "address"
        }
      ],
      "name": "addUser",
      "outputs": [],
      "stateMutability": "nonpayable",
      "type": "function"
    },
    {
      "inputs": [
        {
          "internalType": "bytes32",
          "name": "name",
          "type": "bytes32"
        },
        {
          "internalType": "bytes32[]",
          "name": "roles",
          "type": "bytes32[]"
        },
        {
          "components": [
            {
              "internalType": "address",
              "name": "addr",
              "type": "address"
            },
            {
              "internalType": "bytes8",
              "name": "roles",
              "type": "bytes8"
            }
          ],
          "internalType": "struct User[]",
          "name": "users",
          "type": "tuple[]"
        },
        {
          "internalType": "bytes8[]",
          "name": "policy",
          "type": "bytes8[]"
        }
      ],
      "name": "createShield",
      "outputs": [],
      "stateMutability": "nonpayable",
      "type": "function"
    }
  ],
  "bytecode": "0x60a060405234801561001057600080fd5b5060405161001d9061004b565b604051809103906000f080158015610039573d6000803e3d6000fd5b506001600160a01b0316608052610058565b6139198061086c83390190565b6080516107fa610072600039600060a701526107fa6000f3fe608060405234801561001057600080fd5b50600436106100365760003560e01c80638ca3b4481461003b578063b6fb226c14610050575b600080fd5b61004e61004936600461022b565b610063565b005b61004e61005e3660046104d4565b6100a0565b7f3d48e23e10bd950af477b393a250740762bbfa1547b0aafea39792683d4fdb1d8282604051610094929190610598565b60405180910390a15050565b60006100cb7f000000000000000000000000000000000000000000000000000000000000000061017c565b604051637c854e4f60e11b81529091506001600160a01b0382169063f90a9c9e90610100903090889088908890600401610723565b600060405180830381600087803b15801561011a57600080fd5b505af115801561012e573d6000803e3d6000fd5b50505050806001600160a01b03167f98308db6c3dfd8cbce8dff0d54265d889f2c68e542d515a90c6b6113da9907ee338760405161016d929190610775565b60405180910390a25050505050565b6000763d602d80600a3d3981f3363d3d373d3d3d363d730000008260601b60e81c176000526e5af43d82803e903d91602b57fd5bf38260781b17602052603760096000f090506001600160a01b0381166101f15760405162461bcd60e51b81526004016101e890610790565b60405180910390fd5b919050565b60006001600160a01b0382165b92915050565b610212816101f6565b811461021d57600080fd5b50565b803561020381610209565b6000806040838503121561024157610241600080fd5b600061024d8585610220565b925050602061025e85828601610220565b9150509250929050565b80610212565b803561020381610268565b634e487b7160e01b600052604160045260246000fd5b601f19601f830116810181811067ffffffffffffffff821117156102b5576102b5610279565b6040525050565b60006102c760405190565b90506101f1828261028f565b600067ffffffffffffffff8211156102ed576102ed610279565b5060209081020190565b600061030a610305846102d3565b6102bc565b8381529050602080820190840283018581111561032957610329600080fd5b835b8181101561034d578061033e888261026e565b8452506020928301920161032b565b5050509392505050565b600082601f83011261036b5761036b600080fd5b813561037b8482602086016102f7565b949350505050565b6001600160c01b03198116610212565b803561020381610383565b6000604082840312156103b3576103b3600080fd5b6103bd60406102bc565b905060006103cb8484610220565b82525060206103dc84848301610393565b60208301525092915050565b60006103f6610305846102d3565b8381529050602081016040840283018581111561041557610415600080fd5b835b8181101561034d578061042a888261039e565b845250602090920191604001610417565b600082601f83011261044f5761044f600080fd5b813561037b8482602086016103e8565b600061046d610305846102d3565b8381529050602080820190840283018581111561048c5761048c600080fd5b835b8181101561034d57806104a18882610393565b8452506020928301920161048e565b600082601f8301126104c4576104c4600080fd5b813561037b84826020860161045f565b600080600080608085870312156104ed576104ed600080fd5b60006104f9878761026e565b945050602085013567ffffffffffffffff81111561051957610519600080fd5b61052587828801610357565b935050604085013567ffffffffffffffff81111561054557610545600080fd5b6105518782880161043b565b925050606085013567ffffffffffffffff81111561057157610571600080fd5b61057d878288016104b0565b91505092959194509250565b610592816101f6565b82525050565b604081016105a68285610589565b6105b36020830184610589565b9392505050565b60006001600160a01b038216610203565b6000610203826105ba565b6000610203826105cb565b610592816105d6565b80610592565b60006105fc83836105ea565b505060200190565b600061060e825190565b80845260209384019383018060005b8381101561064257815161063188826105f0565b97506020830192505060010161061d565b509495945050505050565b6001600160c01b03198116610592565b8051604083019061066e8482610589565b506020820151610681602085018261064d565b50505050565b6000610693838361065d565b505060400190565b60006106a5825190565b80845260209384019383018060005b838110156106425781516106c88882610687565b9750602083019250506001016106b4565b60006105fc838361064d565b60006106ef825190565b80845260209384019383018060005b8381101561064257815161071288826106d9565b9750602083019250506001016106fe565b6080810161073182876105e1565b81810360208301526107438186610604565b90508181036040830152610757818561069b565b9050818103606083015261076b81846106e5565b9695505050505050565b604081016107838285610589565b6105b360208301846105ea565b60208082528101610203816016815275115490cc4c4d8dce8818dc99585d194819985a5b195960521b60208201526040019056fea2646970667358221220ef77e7360f9736675b5b568ba57cc1bda20a2a0d2eecc15b4d6b2e498c60002864736f6c6343000811003360806040523480156200001157600080fd5b50600080546001600160a01b031916309081179091556040517f7325cede0f4927e0139385df8b1c5e5fbb3e2de5851b8c784ea8e75e2576d1b7906200005b90839081906200012b565b60405180910390a15060016003556200007362000079565b620001b7565b600254610100900460ff1615620000ad5760405162461bcd60e51b8152600401620000a49062000151565b60405180910390fd5b60025460ff908116101562000105576002805460ff191660ff9081179091556040517f7f26b83ff96e1f2b6a682f133852f6798a09c465da95921460cefb384740249891620000fc91620001a7565b60405180910390a15b565b60006001600160a01b0382165b92915050565b620001258162000107565b82525050565b604081016200013b82856200011a565b6200014a60208301846200011a565b9392505050565b602080825281016200011481602781527f496e697469616c697a61626c653a20636f6e747261637420697320696e697469602082015266616c697a696e6760c81b604082015260600190565b60ff811662000125565b602081016200011482846200019d565b61375280620001c76000396000f3fe6080604052600436106100e05760003560e01c80637b9a91a811610084578063eda0651411610056578063eda0651414610295578063efd4f42b146102b5578063f90a9c9e146102d5578063fb3c2cec146102f557005b80637b9a91a814610215578063a3f685f914610228578063ccf77da114610248578063d4c58e4f1461026857005b80635c975abb116100bd5780635c975abb146101495780636bc49871146101805780636f77926b146101ad57806371061398146101f357005b806320f1fdd4146100e9578063226e6186146101095780633ae499f21461012957005b366100e757005b005b3480156100f557600080fd5b506100e761010436600461239d565b610315565b34801561011557600080fd5b506100e761012436600461242a565b610560565b34801561013557600080fd5b506100e76101443660046124ef565b610778565b34801561015557600080fd5b5060045461016a90600160a01b900460ff1681565b6040516101779190612582565b60405180910390f35b34801561018c57600080fd5b506101a061019b3660046125ab565b6109c4565b6040516101779190612655565b3480156101b957600080fd5b506101e66101c836600461266d565b6001600160a01b031660009081526006602052604090205460c01b90565b604051610177919061268e565b3480156101ff57600080fd5b50610208610a7d565b60405161017791906126ec565b6100e76102233660046126fd565b610ad5565b34801561023457600080fd5b506101a0610243366004612732565b610d5f565b34801561025457600080fd5b506100e761026336600461239d565b610dee565b34801561027457600080fd5b506102886102833660046127b0565b610fd3565b60405161017791906128c6565b3480156102a157600080fd5b506100e76102b03660046128d7565b61149f565b3480156102c157600080fd5b506100e76102d036600461239d565b611641565b3480156102e157600080fd5b506100e76102f03660046129a6565b611821565b34801561030157600080fd5b506100e7610310366004612a66565b611b10565b60005460408051635c975abb60e01b8152905183926001600160a01b031691635c975abb9160048083019260209291908290030181865afa15801561035e573d6000803e3d6000fd5b505050506040513d601f19601f820116820180604052508101906103829190612acf565b156103d9576000546001600160a01b0316301480156103b3575063083c7f7560e21b6001600160e01b031960003516145b6103d957604051632022058360e01b81526004016103d090612b1e565b60405180910390fd5b6000816040516020016103ec9190612d17565b60408051601f19818403018152919052516104079036612d3e565b610412906020612d51565b600080549192506001600160a01b039091169063d4c58e4f908490339030906001600160e01b03198135169061044b9088903681612d64565b60016040518863ffffffff1660e01b815260040161046f9796959493929190612da4565b600060405180830381865afa15801561048c573d6000803e3d6000fd5b505050506040513d6000823e601f3d908101601f191682016040526104b49190810190612f1c565b506004805460ff60a01b191690556040517fa45f47fdea8a1efdd9029a5691c7f759c32b7c698632b563573e155625d1693390600090a160018060006104fd6060860186612f56565b600081811061050e5761050e612faa565b90506020028101906105209190612fc0565b60405161052e929190613029565b6040518091039020815260200190815260200160002060006101000a81548160ff021916908315150217905550505050565b60005460408051635c975abb60e01b8152905183926001600160a01b031691635c975abb9160048083019260209291908290030181865afa1580156105a9573d6000803e3d6000fd5b505050506040513d601f19601f820116820180604052508101906105cd9190612acf565b1561061b576000546001600160a01b0316301480156105fe575063083c7f7560e21b6001600160e01b031960003516145b61061b57604051632022058360e01b81526004016103d090612b1e565b60008160405160200161062e9190612d17565b60408051601f19818403018152919052516106499036612d3e565b610654906020612d51565b600080549192506001600160a01b039091169063d4c58e4f908490339030906001600160e01b03198135169061068d9088903681612d64565b60016040518863ffffffff1660e01b81526004016106b19796959493929190612da4565b600060405180830381865afa1580156106ce573d6000803e3d6000fd5b505050506040513d6000823e601f3d908101601f191682016040526106f69190810190612f1c565b506107018585611d76565b60018060006107136060860186612f56565b600081811061072457610724612faa565b90506020028101906107369190612fc0565b604051610744929190613029565b6040518091039020815260200190815260200160002060006101000a81548160ff0219169083151502179055505050505050565b60005460408051635c975abb60e01b8152905183926001600160a01b031691635c975abb9160048083019260209291908290030181865afa1580156107c1573d6000803e3d6000fd5b505050506040513d601f19601f820116820180604052508101906107e59190612acf565b15610833576000546001600160a01b031630148015610816575063083c7f7560e21b6001600160e01b031960003516145b61083357604051632022058360e01b81526004016103d090612b1e565b6000816040516020016108469190612d17565b60408051601f19818403018152919052516108619036612d3e565b61086c906020612d51565b600080549192506001600160a01b039091169063d4c58e4f908490339030906001600160e01b0319813516906108a59088903681612d64565b60016040518863ffffffff1660e01b81526004016108c99796959493929190612da4565b600060405180830381865afa1580156108e6573d6000803e3d6000fd5b505050506040513d6000823e601f3d908101601f1916820160405261090e9190810190612f1c565b5061094c86868680806020026020016040519081016040528093929190818152602001838360200280828437600092019190915250611e8192505050565b600180600061095e6060860186612f56565b600081811061096f5761096f612faa565b90506020028101906109819190612fc0565b60405161098f929190613029565b6040518091039020815260200190815260200160002060006101000a81548160ff021916908315150217905550505050505050565b6001600160a01b03821660009081526008602090815260408083206001600160e01b0319851684528252808320548084526007835292819020805482518185028101850190935280835260609493830182828015610a6e57602002820191906000526020600020906000905b82829054906101000a900460c01b6001600160c01b03191681526020019060080190602082600701049283019260010382029150808411610a305790505b50505050509150505b92915050565b60606005805480602002602001604051908101604052809291908181526020018280548015610acb57602002820191906000526020600020905b815481526020019060010190808311610ab7575b5050505050905090565b610add611fbd565b60005460408051635c975abb60e01b8152905183926001600160a01b031691635c975abb9160048083019260209291908290030181865afa158015610b26573d6000803e3d6000fd5b505050506040513d601f19601f82011682018060405250810190610b4a9190612acf565b15610b98576000546001600160a01b031630148015610b7b575063083c7f7560e21b6001600160e01b031960003516145b610b9857604051632022058360e01b81526004016103d090612b1e565b600081604051602001610bab9190612d17565b60408051601f1981840301815291905251610bc69036612d3e565b610bd1906020612d51565b600080549192506001600160a01b039091169063d4c58e4f908490339030906001600160e01b031981351690610c0a9088903681612d64565b60016040518863ffffffff1660e01b8152600401610c2e9796959493929190612da4565b600060405180830381865afa158015610c4b573d6000803e3d6000fd5b505050506040513d6000823e601f3d908101601f19168201604052610c739190810190612f1c565b506000856001600160a01b031685604051610c8d90613036565b60006040518083038185875af1925050503d8060008114610cca576040519150601f19603f3d011682016040523d82523d6000602084013e610ccf565b606091505b5050905080610cdd57600080fd5b506001806000610cf06060860186612f56565b6000818110610d0157610d01612faa565b9050602002810190610d139190612fc0565b604051610d21929190613029565b6040518091039020815260200190815260200160002060006101000a81548160ff0219169083151502179055505050610d5a6001600355565b505050565b600081815260076020908152604091829020805483518184028101840190945280845260609392830182828015610de257602002820191906000526020600020906000905b82829054906101000a900460c01b6001600160c01b03191681526020019060080190602082600701049283019260010382029150808411610da45790505b50505050509050919050565b60005460408051635c975abb60e01b8152905183926001600160a01b031691635c975abb9160048083019260209291908290030181865afa158015610e37573d6000803e3d6000fd5b505050506040513d601f19601f82011682018060405250810190610e5b9190612acf565b15610ea9576000546001600160a01b031630148015610e8c575063083c7f7560e21b6001600160e01b031960003516145b610ea957604051632022058360e01b81526004016103d090612b1e565b600081604051602001610ebc9190612d17565b60408051601f1981840301815291905251610ed79036612d3e565b610ee2906020612d51565b600080549192506001600160a01b039091169063d4c58e4f908490339030906001600160e01b031981351690610f1b9088903681612d64565b60016040518863ffffffff1660e01b8152600401610f3f9796959493929190612da4565b600060405180830381865afa158015610f5c573d6000803e3d6000fd5b505050506040513d6000823e601f3d908101601f19168201604052610f849190810190612f1c565b506004805460ff60a01b1916600160a01b1790556040517f9e87fac88ff661f02d44f95383c817fece4bce600a3dab7a54406878b965e75290600090a160018060006104fd6060860186612f56565b60606001600160a01b038616610fec60208a018a61266d565b6001600160a01b03161461101357604051632022058360e01b81526004016103d090613066565b6110206040890189612fc0565b60405161102e929190613029565b60405180910390208484604051611046929190613029565b60405180910390201461106c57604051632022058360e01b81526004016103d09061309e565b6110796060890189612f56565b905060000361109b57604051632022058360e01b81526004016103d0906130e2565b60006110a787876109c4565b905082156110e35780516110be60608b018b612f56565b9050146110de57604051632022058360e01b81526004016103d090613126565b611113565b80516110f260608b018b612f56565b9050111561111357604051632022058360e01b81526004016103d090613126565b6001600061112460608c018c612f56565b600081811061113557611135612faa565b90506020028101906111479190612fc0565b604051611155929190613029565b604080519182900390912082526020820192909252016000205460ff161561119057604051632022058360e01b81526004016103d090613178565b600061119f60608b018b612f56565b90506001600160401b038111156111b8576111b8612e0c565b6040519080825280602002602001820160405280156111e1578160200160208202803683370190505b50905060005b6111f460608c018c612f56565b905081101561149157600061120c60608d018d612f56565b8381811061121c5761121c612faa565b905060200281019061122e9190612fc0565b8080601f0160208091040260200160405190810160405280939291908181526020018383808284376000920182905250939450505083820390506112bb5761127960208e018e61266d565b61128660408f018f612fc0565b8f6020013560405160200161129e9493929190613188565b60405160208183030381529060405280519060200120905061131e565b6112c860608e018e612f56565b6112d3600186612d3e565b8181106112e2576112e2612faa565b90506020028101906112f49190612fc0565b6040516020016113059291906131c1565b6040516020818303038152906040528051906020012090505b60006113338361132d84611fe6565b90612016565b9050600086858151811061134957611349612faa565b6020026020010151611373836001600160a01b031660009081526006602052604090205460c01b90565b166001600160c01b03191690508061139e57604051632022058360e01b81526004016103d0906131fa565b846000036113dd578d6001600160a01b0316826001600160a01b0316146113d857604051632022058360e01b81526004016103d09061324b565b611447565b60005b8581101561144557826001600160a01b031687828151811061140457611404612faa565b60200260200101516001600160a01b03160361143357604051632022058360e01b81526004016103d09061328f565b8061143d8161329f565b9150506113e0565b505b8186868151811061145a5761145a612faa565b60200260200101906001600160a01b031690816001600160a01b0316815250505050505080806114899061329f565b9150506111e7565b509998505050505050505050565b60005460408051635c975abb60e01b8152905183926001600160a01b031691635c975abb9160048083019260209291908290030181865afa1580156114e8573d6000803e3d6000fd5b505050506040513d601f19601f8201168201806040525081019061150c9190612acf565b1561155a576000546001600160a01b03163014801561153d575063083c7f7560e21b6001600160e01b031960003516145b61155a57604051632022058360e01b81526004016103d090612b1e565b60008160405160200161156d9190612d17565b60408051601f19818403018152919052516115889036612d3e565b611593906020612d51565b600080549192506001600160a01b039091169063d4c58e4f908490339030906001600160e01b0319813516906115cc9088903681612d64565b60016040518863ffffffff1660e01b81526004016115f09796959493929190612da4565b600060405180830381865afa15801561160d573d6000803e3d6000fd5b505050506040513d6000823e601f3d908101601f191682016040526116359190810190612f1c565b5061094c86868661203a565b6000611650602083018361266d565b61165d6040840184612fc0565b84602001356040516020016116759493929190613188565b60408051601f198184030181529190528051602090910120905060006117046116a16060850185612f56565b60008181106116b2576116b2612faa565b90506020028101906116c49190612fc0565b8080601f01602080910402602001604051908101604052809392919081815260200183838082843760009201919091525061132d9250869150611fe69050565b90506000611753848361171a602083018361266d565b6117276040890189612fc0565b61173691600491600091612d64565b61173f916132b9565b61174c60408a018a612fc0565b6000610fd3565b905060005b815181101561181a57336001600160a01b031682828151811061177d5761177d612faa565b60200260200101516001600160a01b0316036118085760018060006117a56060890189612f56565b60008181106117b6576117b6612faa565b90506020028101906117c89190612fc0565b6040516117d6929190613029565b6040518091039020815260200190815260200160002060006101000a81548160ff02191690831515021790555061181a565b806118128161329f565b915050611758565b5050505050565b600254610100900460ff16158080156118415750600254600160ff909116105b8061185b5750303b15801561185b575060025460ff166001145b6118775760405162461bcd60e51b81526004016103d09061333f565b6002805460ff19166001179055801561189a576002805461ff0019166101001790555b600480546001600160a01b038a166001600160a01b031991821617909155600080549091163017905560408611156118e5576040516330f4936760e21b81526004016103d090613395565b6118f160058888612279565b507fdc3627b8a50594a2c055615b1dd1ef69f5dc80de35b405d1550f8bc7276e71ee87876040516119239291906133e1565b60405180910390a160005b8481101561198757600086868381811061194a5761194a612faa565b905060400201803603810190611960919061343d565b905061197481600001518260200151611d76565b508061197f8161329f565b91505061192e565b506119d46b61646d696e2d706f6c69637960a01b848480806020026020016040519081016040528093929190818152602001838360200280828437600092019190915250611e8192505050565b6119f530633ecf0b3b60e21b6b61646d696e2d706f6c69637960a01b61203a565b611a163063113730c360e11b6b61646d696e2d706f6c69637960a01b61203a565b611a3730631d724cf960e11b6b61646d696e2d706f6c69637960a01b61203a565b611a5830633b68194560e21b6b61646d696e2d706f6c69637960a01b61203a565b611a793063ccf77da160e01b6b61646d696e2d706f6c69637960a01b61203a565b611a9a3063083c7f7560e21b6b61646d696e2d706f6c69637960a01b61203a565b611abb30630f73523560e31b6b61646d696e2d706f6c69637960a01b61203a565b8015611b06576002805461ff00191690556040517f7f26b83ff96e1f2b6a682f133852f6798a09c465da95921460cefb384740249890611afd90600190613472565b60405180910390a15b5050505050505050565b60005460408051635c975abb60e01b8152905183926001600160a01b031691635c975abb9160048083019260209291908290030181865afa158015611b59573d6000803e3d6000fd5b505050506040513d601f19601f82011682018060405250810190611b7d9190612acf565b15611bcb576000546001600160a01b031630148015611bae575063083c7f7560e21b6001600160e01b031960003516145b611bcb57604051632022058360e01b81526004016103d090612b1e565b600081604051602001611bde9190612d17565b60408051601f1981840301815291905251611bf99036612d3e565b611c04906020612d51565b600080549192506001600160a01b039091169063d4c58e4f908490339030906001600160e01b031981351690611c3d9088903681612d64565b60016040518863ffffffff1660e01b8152600401611c619796959493929190612da4565b600060405180830381865afa158015611c7e573d6000803e3d6000fd5b505050506040513d6000823e601f3d908101601f19168201604052611ca69190810190612f1c565b50600554604090611cb8908690612d51565b1115611cd7576040516330f4936760e21b81526004016103d090613395565b60005b84811015611d2a576005868683818110611cf657611cf6612faa565b8354600181018555600094855260209485902091909402929092013591909201555080611d228161329f565b915050611cda565b507fdc3627b8a50594a2c055615b1dd1ef69f5dc80de35b405d1550f8bc7276e71ee8585604051611d5c9291906133e1565b60405180910390a160018060006107136060860186612f56565b6000611d806120aa565b6001600160a01b0384166000908152600660205260409020549281169290915060c01b6001600160c01b031916611e155760048054604051631194768960e31b81526001600160a01b0390911691638ca3b44891611de2913091889101613480565b600060405180830381600087803b158015611dfc57600080fd5b505af1158015611e10573d6000803e3d6000fd5b505050505b6001600160a01b03831660009081526006602052604090819020805467ffffffffffffffff191660c085901c179055517f5569a0408084fc944688ca5c80f2e2bdd9ff575f048fee482aadafa3d36705ac90611e74908590859061349b565b60405180910390a1505050565b81611e9f576040516330f4936760e21b81526004016103d0906134dc565b60008281526007602052604090205415611ecc576040516330f4936760e21b81526004016103d090613517565b8051600003611eee576040516330f4936760e21b81526004016103d090613554565b6000611ef86120aa565b905060005b8251811015611f5f5781838281518110611f1957611f19612faa565b602002602001015116838281518110611f3457611f34612faa565b6001600160c01b03199092166020928302919091019091015280611f578161329f565b915050611efd565b5060008381526007602090815260409091208351611f7f928501906122c4565b50827f1c28460e7353d1f76d93ce571bb7bf39c569b19a4c9b2a4c1d7f2c9c95f4c0da83604051611fb09190612655565b60405180910390a2505050565b600260035403611fdf5760405162461bcd60e51b81526004016103d090613598565b6002600355565b600081604051602001611ff991906135a8565b604051602081830303815290604052805190602001209050919050565b600080600061202585856120cb565b9150915061203281612110565b509392505050565b6001600160a01b03831660008181526008602090815260408083206001600160e01b03198716845290915290819020839055518291907fba1ec2dff55a4b0931cf9207c31d493bd27e678b2e15d806c497b820c4dcaeeb9061209d9086906135e3565b60405180910390a3505050565b6005546000906120bb906040612d3e565b6001600160c01b0319901c919050565b60008082516041036121015760208301516040840151606085015160001a6120f5878285856121c2565b94509450505050612109565b506000905060025b9250929050565b6000816004811115612124576121246135f1565b0361212c5750565b6001816004811115612140576121406135f1565b0361215d5760405162461bcd60e51b81526004016103d09061363b565b6002816004811115612171576121716135f1565b0361218e5760405162461bcd60e51b81526004016103d09061367f565b60038160048111156121a2576121a26135f1565b036121bf5760405162461bcd60e51b81526004016103d0906136ce565b50565b6000807f7fffffffffffffffffffffffffffffff5d576e7357a4501ddfe92f46681b20a08311156121f95750600090506003612270565b60006001878787876040516000815260200160405260405161221e94939291906136e7565b6020604051602081039080840390855afa158015612240573d6000803e3d6000fd5b5050604051601f1901519150506001600160a01b03811661226957600060019250925050612270565b9150600090505b94509492505050565b8280548282559060005260206000209081019282156122b4579160200282015b828111156122b4578235825591602001919060010190612299565b506122c092915061236d565b5090565b828054828255906000526020600020906003016004900481019282156122b45791602002820160005b8382111561233157835183826101000a8154816001600160401b03021916908360c01c021790555092602001926008016020816007010492830192600103026122ed565b80156123645782816101000a8154906001600160401b030219169055600801602081600701049283019260010302612331565b50506122c09291505b5b808211156122c0576000815560010161236e565b60006080828403121561239757612397600080fd5b50919050565b6000602082840312156123b2576123b2600080fd5b81356001600160401b038111156123cb576123cb600080fd5b6123d784828501612382565b949350505050565b60006001600160a01b038216610a77565b6123f9816123df565b81146121bf57600080fd5b8035610a77816123f0565b6001600160c01b031981166123f9565b8035610a778161240f565b60008060006060848603121561244257612442600080fd5b600061244e8686612404565b935050602061245f8682870161241f565b92505060408401356001600160401b0381111561247e5761247e600080fd5b61248a86828701612382565b9150509250925092565b806123f9565b8035610a7781612494565b60008083601f8401126124ba576124ba600080fd5b5081356001600160401b038111156124d4576124d4600080fd5b60208301915083602082028301111561210957612109600080fd5b6000806000806060858703121561250857612508600080fd5b6000612514878761249a565b94505060208501356001600160401b0381111561253357612533600080fd5b61253f878288016124a5565b935093505060408501356001600160401b0381111561256057612560600080fd5b61256c87828801612382565b91505092959194509250565b8015155b82525050565b60208101610a778284612578565b6001600160e01b031981166123f9565b8035610a7781612590565b600080604083850312156125c1576125c1600080fd5b60006125cd8585612404565b92505060206125de858286016125a0565b9150509250929050565b6001600160c01b0319811661257c565b600061260483836125e8565b505060200190565b6000612616825190565b80845260209384019383018060005b8381101561264a57815161263988826125f8565b975060208301925050600101612625565b509495945050505050565b60208082528101612666818461260c565b9392505050565b60006020828403121561268257612682600080fd5b60006123d78484612404565b60208101610a7782846125e8565b8061257c565b6000612604838361269c565b60006126b8825190565b80845260209384019383018060005b8381101561264a5781516126db88826126a2565b9750602083019250506001016126c7565b6020808252810161266681846126ae565b60008060006060848603121561271557612715600080fd5b60006127218686612404565b935050602061245f8682870161249a565b60006020828403121561274757612747600080fd5b60006123d7848461249a565b60008083601f84011261276857612768600080fd5b5081356001600160401b0381111561278257612782600080fd5b60208301915083600182028301111561210957612109600080fd5b8015156123f9565b8035610a778161279d565b600080600080600080600060c0888a0312156127ce576127ce600080fd5b87356001600160401b038111156127e7576127e7600080fd5b6127f38a828b01612382565b97505060206128048a828b01612404565b96505060406128158a828b01612404565b95505060606128268a828b016125a0565b94505060808801356001600160401b0381111561284557612845600080fd5b6128518a828b01612753565b935093505060a06128648a828b016127a5565b91505092959891949750929550565b61257c816123df565b60006126048383612873565b6000612892825190565b80845260209384019383018060005b8381101561264a5781516128b5888261287c565b9750602083019250506001016128a1565b602080825281016126668184612888565b600080600080608085870312156128f0576128f0600080fd5b60006128fc8787612404565b945050602061290d878288016125a0565b935050604061291e8782880161249a565b92505060608501356001600160401b0381111561256057612560600080fd5b6000610a77826123df565b6123f98161293d565b8035610a7781612948565b60008083601f84011261297157612971600080fd5b5081356001600160401b0381111561298b5761298b600080fd5b60208301915083604082028301111561210957612109600080fd5b60008060008060008060006080888a0312156129c4576129c4600080fd5b60006129d08a8a612951565b97505060208801356001600160401b038111156129ef576129ef600080fd5b6129fb8a828b016124a5565b965096505060408801356001600160401b03811115612a1c57612a1c600080fd5b612a288a828b0161295c565b945094505060608801356001600160401b03811115612a4957612a49600080fd5b612a558a828b016124a5565b925092505092959891949750929550565b600080600060408486031215612a7e57612a7e600080fd5b83356001600160401b03811115612a9757612a97600080fd5b612aa3868287016124a5565b935093505060208401356001600160401b0381111561247e5761247e600080fd5b8051610a778161279d565b600060208284031215612ae457612ae4600080fd5b60006123d78484612ac4565b6014815260006020820173151a194814da1a595b19081a5cc81c185d5cd95960621b815291505b5060200190565b60208082528101610a7781612af0565b60006126666020840184612404565b6000612666602084018461249a565b6000808335601e1936859003018112612b6757612b67600080fd5b8381016020810193503591506001600160401b03821115612b8a57612b8a600080fd5b36829003831315612b9d57612b9d600080fd5b509250929050565b82818337506000910152565b8183526000602084019350612bc7838584612ba5565b5050601f01601f19160190565b6000808335601e1936859003018112612bef57612bef600080fd5b8381016020810193503591506001600160401b03821115612c1257612c12600080fd5b602082023603831315612b9d57612b9d600080fd5b60006123d7848484612bb1565b818352600060208401935083602084028101838060005b87811015612c86578484038952612c628284612b4c565b612c6d868284612c27565b95506020840160209b909b019a93505050600101612c4b565b5091979650505050505050565b600060808301612ca38380612b2e565b612cad8582612873565b50612cbb6020840184612b3d565b612cc8602086018261269c565b50612cd66040840184612b4c565b8583036040870152612ce9838284612bb1565b92505050612cfa6060840184612bd4565b8583036060870152612d0d838284612c34565b9695505050505050565b602080825281016126668184612c93565b634e487b7160e01b600052601160045260246000fd5b81810381811115610a7757610a77612d28565b80820180821115610a7757610a77612d28565b60008085851115612d7757612d77600080fd5b83861115612d8757612d87600080fd5b5050820193919092039150565b6001600160e01b0319811661257c565b60c08082528101612db5818a612c93565b9050612dc46020830189612873565b612dd16040830188612873565b612dde6060830187612d94565b8181036080830152612df1818587612bb1565b9050612e0060a0830184612578565b98975050505050505050565b634e487b7160e01b600052604160045260246000fd5b601f19601f83011681018181106001600160401b0382111715612e4757612e47612e0c565b6040525050565b6000612e5960405190565b9050612e658282612e22565b919050565b60006001600160401b03821115612e8357612e83612e0c565b5060209081020190565b8051610a77816123f0565b6000612eab612ea684612e6a565b612e4e565b83815290506020808201908402830185811115612eca57612eca600080fd5b835b81811015612eee5780612edf8882612e8d565b84525060209283019201612ecc565b5050509392505050565b600082601f830112612f0c57612f0c600080fd5b81516123d7848260208601612e98565b600060208284031215612f3157612f31600080fd5b81516001600160401b03811115612f4a57612f4a600080fd5b6123d784828501612ef8565b6000808335601e1936859003018112612f7157612f71600080fd5b8084019250823591506001600160401b03821115612f9157612f91600080fd5b60209283019282023603831315612b9d57612b9d600080fd5b634e487b7160e01b600052603260045260246000fd5b6000808335601e1936859003018112612fdb57612fdb600080fd5b8084019250823591506001600160401b03821115612ffb57612ffb600080fd5b602083019250600182023603831315612b9d57612b9d600080fd5b6000613023838584612ba5565b50500190565b60006123d7828486613016565b600081610a77565b6011815260006020820170086dedce8e4c2c6e840dad2e6dac2e8c6d607b1b81529150612b17565b60208082528101610a778161303e565b601181526000602082017008ceadcc6e8d2dedc40dad2e6dac2e8c6d607b1b81529150612b17565b60208082528101610a7781613076565b601981526000602082017f417070726f76616c732063616e6e6f7420626520656d7074790000000000000081529150612b17565b60208082528101610a77816130ae565b601d81526000602082017f496e636f7272656374206e756d626572206f6620617070726f76616c7300000081529150612b17565b60208082528101610a77816130f2565b602281526000602082017f43726564656e7469616c732068617665206265656e207573656420616c726561815261647960f01b602082015291505b5060400190565b60208082528101610a7781613136565b606081016131968287612873565b81810360208301526131a9818587612bb1565b90506131b8604083018461269c565b95945050505050565b602080825281016123d7818486612bb1565b601081526000602082016f2837b634b1bc903b34b7b630ba34b7b760811b81529150612b17565b60208082528101610a77816131d3565b602481526000602082017f546865206f776e6572206d75737420626520746865206669727374206170707281526337bb32b960e11b60208201529150613171565b60208082528101610a778161320a565b601e81526000602082017f53616d6520616464726573732063616e6e6f74207369676e207477696365000081529150612b17565b60208082528101610a778161325b565b600060001982036132b2576132b2612d28565b5060010190565b80356001600160e01b031916828260048210156132ec576132e76001600160e01b0319836004036008021b90565b831692505b505092915050565b602e81526000602082017f496e697469616c697a61626c653a20636f6e747261637420697320616c72656181526d191e481a5b9a5d1a585b1a5e995960921b60208201529150613171565b60208082528101610a77816132f4565b602981526000602082017f54686520536869656c642063616e6e6f742068617665206d6f7265207468616e81526820363420726f6c657360b81b60208201529150613171565b60208082528101610a778161334f565b82818337505050565b81835260006020840193506001600160fb1b038311156133d0576133d0600080fd5b6020830292506130238385846133a5565b602080825281016123d78184866133ae565b60006040828403121561340857613408600080fd5b6134126040612e4e565b905060006134208484612404565b82525060206134318484830161241f565b60208301525092915050565b60006040828403121561345257613452600080fd5b60006123d784846133f3565b600060ff8216610a77565b61257c8161345e565b60208101610a778284613469565b6040810161348e8285612873565b6126666020830184612873565b604081016134a98285612873565b61266660208301846125e8565b600f81526000602082016e155b9919599a5b9959081b1858995b608a1b81529150612b17565b60208082528101610a77816134b6565b60148152600060208201734c6162656c20616c72656164792065786973747360601b81529150612b17565b60208082528101610a77816134ec565b6016815260006020820175506f6c6963792063616e6e6f7420626520656d70747960501b81529150612b17565b60208082528101610a7781613527565b601f81526000602082017f5265656e7472616e637947756172643a207265656e7472616e742063616c6c0081529150612b17565b60208082528101610a7781613564565b7f19457468657265756d205369676e6564204d6573736167653a0a3332000000008152601c0160006135da828461269c565b50602001919050565b60208101610a778284612d94565b634e487b7160e01b600052602160045260246000fd5b601881526000602082017f45434453413a20696e76616c6964207369676e6174757265000000000000000081529150612b17565b60208082528101610a7781613607565b601f81526000602082017f45434453413a20696e76616c6964207369676e6174757265206c656e6774680081529150612b17565b60208082528101610a778161364b565b602281526000602082017f45434453413a20696e76616c6964207369676e6174757265202773272076616c815261756560f01b60208201529150613171565b60208082528101610a778161368f565b60ff811661257c565b608081016136f5828761269c565b61370260208301866136de565b61370f604083018561269c565b6131b8606083018461269c56fea2646970667358221220c42b47adae98973dee5f763286f52acd95a96e2d0b8afc5944d4a77d6bc3d90064736f6c63430008110033",
  "linkReferences": {},
  "deployedLinkReferences": {}
}